{"contracts/mocks/MockAggregatorV3.sol":{"MockAggregatorV3":{"abi":[{"inputs":[{"internalType":"int256","name":"_initialAnswer","type":"int256"},{"internalType":"uint8","name":"_decimals","type":"uint8"}],"stateMutability":"nonpayable","type":"constructor"},{"inputs":[],"name":"decimals","outputs":[{"internalType":"uint8","name":"","type":"uint8"}],"stateMutability":"view","type":"function"},{"inputs":[],"name":"description","outputs":[{"internalType":"string","name":"","type":"string"}],"stateMutability":"pure","type":"function"},{"inputs":[{"internalType":"uint80","name":"","type":"uint80"}],"name":"getRoundData","outputs":[{"internalType":"uint80","name":"","type":"uint80"},{"internalType":"int256","name":"","type":"int256"},{"internalType":"uint256","name":"","type":"uint256"},{"internalType":"uint256","name":"","type":"uint256"},{"internalType":"uint80","name":"","type":"uint80"}],"stateMutability":"view","type":"function"},{"inputs":[],"name":"getUpdatedAt","outputs":[{"internalType":"uint256","name":"","type":"uint256"}],"stateMutability":"view","type":"function"},{"inputs":[],"name":"latestRoundData","outputs":[{"internalType":"uint80","name":"roundId","type":"uint80"},{"internalType":"int256","name":"answer_","type":"int256"},{"internalType":"uint256","name":"startedAt","type":"uint256"},{"internalType":"uint256","name":"updatedAt","type":"uint256"},{"internalType":"uint80","name":"answeredInRound","type":"uint80"}],"stateMutability":"view","type":"function"},{"inputs":[{"internalType":"uint256","name":"_timestamp","type":"uint256"}],"name":"setUpdatedAt","outputs":[],"stateMutability":"nonpayable","type":"function"},{"inputs":[{"internalType":"int256","name":"_newAnswer","type":"int256"}],"name":"updateAnswer","outputs":[],"stateMutability":"nonpayable","type":"function"},{"inputs":[],"name":"version","outputs":[{"internalType":"uint256","name":"","type":"uint256"}],"stateMutability":"pure","type":"function"}],"evm":{"bytecode":{"linkReferences":{},"object":"608060405234801561001057600080fd5b506040516102f63803806102f683398101604081905261002f91610051565b6000919091556001805460ff191660ff90921691909117905542600255610087565b6000806040838503121561006457600080fd5b82519150602083015160ff8116811461007c57600080fd5b809150509250929050565b610260806100966000396000f3fe608060405234801561001057600080fd5b50600436106100885760003560e01c80639a6fc8f51161005b5780639a6fc8f51461010c578063a87a20ce14610163578063e83558531461017a578063feaf968c1461018257600080fd5b80631ecc7d881461008d578063313ce567146100a257806354fd4d50146100bc5780637284e416146100cd575b600080fd5b6100a061009b366004610190565b600255565b005b60015460405160ff90911681526020015b60405180910390f35b60015b6040519081526020016100b3565b604080518082018252601981527f4d6f636b20436861696e6c696e6b2041676772656761746f7200000000000000602082015290516100b391906101a9565b61012c61011a3660046101f7565b60008054600254808391939590929450565b6040805169ffffffffffffffffffff968716815260208101959095528401929092526060830152909116608082015260a0016100b3565b6100a0610171366004610190565b60005542600255565b6002546100bf565b60008054600254808361012c565b6000602082840312156101a257600080fd5b5035919050565b600060208083528351808285015260005b818110156101d6578581018301518582016040015282016101ba565b506000604082860101526040601f19601f8301168501019250505092915050565b60006020828403121561020957600080fd5b813569ffffffffffffffffffff8116811461022357600080fd5b939250505056fea2646970667358221220115a264a22ff12ab3ddf24acb3c7d788668b62629db8fd8fd9ab36ca68d39bb364736f6c63430008150033","opcodes":"PUSH1 0x80 PUSH1 0x40 MSTORE CALLVALUE DUP1 ISZERO PUSH2 0x10 JUMPI PUSH1 0x0 DUP1 REVERT JUMPDEST POP PUSH1 0x40 MLOAD PUSH2 0x2F6 CODESIZE SUB DUP1 PUSH2 0x2F6 DUP4 CODECOPY DUP2 ADD PUSH1 0x40 DUP2 SWAP1 MSTORE PUSH2 0x2F SWAP2 PUSH2 0x51 JUMP JUMPDEST PUSH1 0x0 SWAP2 SWAP1 SWAP2 SSTORE PUSH1 0x1 DUP1 SLOAD PUSH1 0xFF NOT AND PUSH1 0xFF SWAP1 SWAP3 AND SWAP2 SWAP1 SWAP2 OR SWAP1 SSTORE TIMESTAMP PUSH1 0x2 SSTORE PUSH2 0x87 JUMP JUMPDEST PUSH1 0x0 DUP1 PUSH1 0x40 DUP4 DUP6 SUB SLT ISZERO PUSH2 0x64 JUMPI PUSH1 0x0 DUP1 REVERT JUMPDEST DUP3 MLOAD SWAP2 POP PUSH1 0x20 DUP4 ADD MLOAD PUSH1 0xFF DUP2 AND DUP2 EQ PUSH2 0x7C JUMPI PUSH1 0x0 DUP1 REVERT JUMPDEST DUP1 SWAP2 POP POP SWAP3 POP SWAP3 SWAP1 POP JUMP JUMPDEST PUSH2 0x260 DUP1 PUSH2 0x96 PUSH1 0x0 CODECOPY PUSH1 0x0 RETURN INVALID PUSH1 0x80 PUSH1 0x40 MSTORE CALLVALUE DUP1 ISZERO PUSH2 0x10 JUMPI PUSH1 0x0 DUP1 REVERT JUMPDEST POP PUSH1 0x4 CALLDATASIZE LT PUSH2 0x88 JUMPI PUSH1 0x0 CALLDATALOAD PUSH1 0xE0 SHR DUP1 PUSH4 0x9A6FC8F5 GT PUSH2 0x5B JUMPI DUP1 PUSH4 0x9A6FC8F5 EQ PUSH2 0x10C JUMPI DUP1 PUSH4 0xA87A20CE EQ PUSH2 0x163 JUMPI DUP1 PUSH4 0xE8355853 EQ PUSH2 0x17A JUMPI DUP1 PUSH4 0xFEAF968C EQ PUSH2 0x182 JUMPI PUSH1 0x0 DUP1 REVERT JUMPDEST DUP1 PUSH4 0x1ECC7D88 EQ PUSH2 0x8D JUMPI DUP1 PUSH4 0x313CE567 EQ PUSH2 0xA2 JUMPI DUP1 PUSH4 0x54FD4D50 EQ PUSH2 0xBC JUMPI DUP1 PUSH4 0x7284E416 EQ PUSH2 0xCD JUMPI JUMPDEST PUSH1 0x0 DUP1 REVERT JUMPDEST PUSH2 0xA0 PUSH2 0x9B CALLDATASIZE PUSH1 0x4 PUSH2 0x190 JUMP JUMPDEST PUSH1 0x2 SSTORE JUMP JUMPDEST STOP JUMPDEST PUSH1 0x1 SLOAD PUSH1 0x40 MLOAD PUSH1 0xFF SWAP1 SWAP2 AND DUP2 MSTORE PUSH1 0x20 ADD JUMPDEST PUSH1 0x40 MLOAD DUP1 SWAP2 SUB SWAP1 RETURN JUMPDEST PUSH1 0x1 JUMPDEST PUSH1 0x40 MLOAD SWAP1 DUP2 MSTORE PUSH1 0x20 ADD PUSH2 0xB3 JUMP JUMPDEST PUSH1 0x40 DUP1 MLOAD DUP1 DUP3 ADD DUP3 MSTORE PUSH1 0x19 DUP2 MSTORE PUSH32 0x4D6F636B20436861696E6C696E6B2041676772656761746F7200000000000000 PUSH1 0x20 DUP3 ADD MSTORE SWAP1 MLOAD PUSH2 0xB3 SWAP2 SWAP1 PUSH2 0x1A9 JUMP JUMPDEST PUSH2 0x12C PUSH2 0x11A CALLDATASIZE PUSH1 0x4 PUSH2 0x1F7 JUMP JUMPDEST PUSH1 0x0 DUP1 SLOAD PUSH1 0x2 SLOAD DUP1 DUP4 SWAP2 SWAP4 SWAP6 SWAP1 SWAP3 SWAP5 POP JUMP JUMPDEST PUSH1 0x40 DUP1 MLOAD PUSH10 0xFFFFFFFFFFFFFFFFFFFF SWAP7 DUP8 AND DUP2 MSTORE PUSH1 0x20 DUP2 ADD SWAP6 SWAP1 SWAP6 MSTORE DUP5 ADD SWAP3 SWAP1 SWAP3 MSTORE PUSH1 0x60 DUP4 ADD MSTORE SWAP1 SWAP2 AND PUSH1 0x80 DUP3 ADD MSTORE PUSH1 0xA0 ADD PUSH2 0xB3 JUMP JUMPDEST PUSH2 0xA0 PUSH2 0x171 CALLDATASIZE PUSH1 0x4 PUSH2 0x190 JUMP JUMPDEST PUSH1 0x0 SSTORE TIMESTAMP PUSH1 0x2 SSTORE JUMP JUMPDEST PUSH1 0x2 SLOAD PUSH2 0xBF JUMP JUMPDEST PUSH1 0x0 DUP1 SLOAD PUSH1 0x2 SLOAD DUP1 DUP4 PUSH2 0x12C JUMP JUMPDEST PUSH1 0x0 PUSH1 0x20 DUP3 DUP5 SUB SLT ISZERO PUSH2 0x1A2 JUMPI PUSH1 0x0 DUP1 REVERT JUMPDEST POP CALLDATALOAD SWAP2 SWAP1 POP JUMP JUMPDEST PUSH1 0x0 PUSH1 0x20 DUP1 DUP4 MSTORE DUP4 MLOAD DUP1 DUP3 DUP6 ADD MSTORE PUSH1 0x0 JUMPDEST DUP2 DUP2 LT ISZERO PUSH2 0x1D6 JUMPI DUP6 DUP2 ADD DUP4 ADD MLOAD DUP6 DUP3 ADD PUSH1 0x40 ADD MSTORE DUP3 ADD PUSH2 0x1BA JUMP JUMPDEST POP PUSH1 0x0 PUSH1 0x40 DUP3 DUP7 ADD ADD MSTORE PUSH1 0x40 PUSH1 0x1F NOT PUSH1 0x1F DUP4 ADD AND DUP6 ADD ADD SWAP3 POP POP POP SWAP3 SWAP2 POP POP JUMP JUMPDEST PUSH1 0x0 PUSH1 0x20 DUP3 DUP5 SUB SLT ISZERO PUSH2 0x209 JUMPI PUSH1 0x0 DUP1 REVERT JUMPDEST DUP2 CALLDATALOAD PUSH10 0xFFFFFFFFFFFFFFFFFFFF DUP2 AND DUP2 EQ PUSH2 0x223 JUMPI PUSH1 0x0 DUP1 REVERT JUMPDEST SWAP4 SWAP3 POP POP POP JUMP INVALID LOG2 PUSH5 0x6970667358 0x22 SLT KECCAK256 GT GAS 0x26 0x4A 0x22 SELFDESTRUCT SLT 0xAB RETURNDATASIZE 0xDF 0x24 0xAC 0xB3 0xC7 0xD7 DUP9 PUSH7 0x8B62629DB8FD8F 0xD9 0xAB CALLDATASIZE 0xCA PUSH9 0xD39BB364736F6C6343 STOP ADDMOD ISZERO STOP CALLER "},"methodIdentifiers":{"decimals()":"313ce567","description()":"7284e416","getRoundData(uint80)":"9a6fc8f5","getUpdatedAt()":"e8355853","latestRoundData()":"feaf968c","setUpdatedAt(uint256)":"1ecc7d88","updateAnswer(int256)":"a87a20ce","version()":"54fd4d50"}}}}}