{"contracts/core/Oracle.sol":{"Oracle":{"abi":[{"inputs":[{"internalType":"address","name":"_owner","type":"address"}],"stateMutability":"nonpayable","type":"constructor"},{"inputs":[{"internalType":"address","name":"feed","type":"address"}],"name":"InvalidFeedContract","type":"error"},{"inputs":[{"internalType":"address","name":"feed","type":"address"},{"internalType":"uint8","name":"decimals","type":"uint8"}],"name":"InvalidFeedDecimals","type":"error"},{"inputs":[{"internalType":"address","name":"token","type":"address"},{"internalType":"uint256","name":"price","type":"uint256"}],"name":"InvalidManualPrice","type":"error"},{"inputs":[{"internalType":"address","name":"token","type":"address"},{"internalType":"address","name":"feed","type":"address"}],"name":"InvalidOraclePrice","type":"error"},{"inputs":[{"internalType":"uint256","name":"period","type":"uint256"}],"name":"InvalidStalePeriod","type":"error"},{"inputs":[{"internalType":"address","name":"vault","type":"address"},{"internalType":"uint256","name":"minRate","type":"uint256"},{"internalType":"uint256","name":"maxRate","type":"uint256"}],"name":"InvalidVaultBounds","type":"error"},{"inputs":[{"internalType":"address","name":"vault","type":"address"},{"internalType":"uint256","name":"rate","type":"uint256"}],"name":"InvalidVaultExchangeRate","type":"error"},{"inputs":[{"internalType":"address","name":"token","type":"address"}],"name":"NoFallbackPrice","type":"error"},{"inputs":[{"internalType":"address","name":"token","type":"address"}],"name":"NoPriceFeed","type":"error"},{"inputs":[{"internalType":"address","name":"oracle","type":"address"},{"internalType":"uint256","name":"timestamp","type":"uint256"}],"name":"OraclePaused","type":"error"},{"inputs":[{"internalType":"address","name":"owner","type":"address"}],"name":"OwnableInvalidOwner","type":"error"},{"inputs":[{"internalType":"address","name":"account","type":"address"}],"name":"OwnableUnauthorizedAccount","type":"error"},{"inputs":[{"internalType":"address","name":"token","type":"address"}],"name":"RecursiveResolution","type":"error"},{"inputs":[{"internalType":"address","name":"token","type":"address"}],"name":"StaleFallback","type":"error"},{"inputs":[{"internalType":"address","name":"token","type":"address"},{"internalType":"uint256","name":"updatedAt","type":"uint256"},{"internalType":"uint256","name":"currentTime","type":"uint256"}],"name":"StalePrice","type":"error"},{"inputs":[{"internalType":"address","name":"vault","type":"address"},{"internalType":"uint256","name":"rate","type":"uint256"}],"name":"SuspiciousVaultRate","type":"error"},{"inputs":[{"internalType":"string","name":"functionName","type":"string"},{"internalType":"string","name":"field","type":"string"}],"name":"ZeroAddress","type":"error"},{"anonymous":false,"inputs":[{"indexed":true,"internalType":"address","name":"token","type":"address"},{"indexed":true,"internalType":"address","name":"feed","type":"address"}],"name":"ChainlinkFeedSet","type":"event"},{"anonymous":false,"inputs":[{"indexed":true,"internalType":"address","name":"vault","type":"address"},{"indexed":true,"internalType":"address","name":"underlying","type":"address"}],"name":"ERC4626Registered","type":"event"},{"anonymous":false,"inputs":[{"indexed":false,"internalType":"uint256","name":"newPeriod","type":"uint256"}],"name":"FallbackStalePeriodUpdated","type":"event"},{"anonymous":false,"inputs":[{"indexed":true,"internalType":"address","name":"token","type":"address"},{"indexed":false,"internalType":"uint256","name":"price","type":"uint256"},{"indexed":false,"internalType":"uint256","name":"timestamp","type":"uint256"}],"name":"LastValidPriceUpdated","type":"event"},{"anonymous":false,"inputs":[{"indexed":true,"internalType":"address","name":"token","type":"address"},{"indexed":false,"internalType":"bool","name":"enabled","type":"bool"}],"name":"ManualModeEnabled","type":"event"},{"anonymous":false,"inputs":[{"indexed":true,"internalType":"address","name":"token","type":"address"},{"indexed":false,"internalType":"uint256","name":"price","type":"uint256"}],"name":"ManualPriceSet","type":"event"},{"anonymous":false,"inputs":[{"indexed":true,"internalType":"address","name":"token","type":"address"},{"indexed":false,"internalType":"uint256","name":"lastValid","type":"uint256"},{"indexed":false,"internalType":"uint256","name":"at","type":"uint256"},{"indexed":false,"internalType":"string","name":"reason","type":"string"}],"name":"OracleFallbackUsed","type":"event"},{"anonymous":false,"inputs":[{"indexed":false,"internalType":"enum IOracle.OracleMode","name":"oldMode","type":"uint8"},{"indexed":false,"internalType":"enum IOracle.OracleMode","name":"newMode","type":"uint8"}],"name":"OracleModeChanged","type":"event"},{"anonymous":false,"inputs":[{"indexed":true,"internalType":"address","name":"previousOwner","type":"address"},{"indexed":true,"internalType":"address","name":"newOwner","type":"address"}],"name":"OwnershipTransferred","type":"event"},{"anonymous":false,"inputs":[{"indexed":false,"internalType":"uint256","name":"newPeriod","type":"uint256"}],"name":"StalePeriodUpdated","type":"event"},{"anonymous":false,"inputs":[{"indexed":true,"internalType":"address","name":"vault","type":"address"},{"indexed":false,"internalType":"uint256","name":"minRate","type":"uint256"},{"indexed":false,"internalType":"uint256","name":"maxRate","type":"uint256"}],"name":"VaultRateBoundsSet","type":"event"},{"inputs":[{"internalType":"address","name":"","type":"address"}],"name":"chainlinkFeeds","outputs":[{"internalType":"address","name":"","type":"address"}],"stateMutability":"view","type":"function"},{"inputs":[{"internalType":"address","name":"token","type":"address"}],"name":"disableManualPrice","outputs":[],"stateMutability":"nonpayable","type":"function"},{"inputs":[{"internalType":"address","name":"","type":"address"}],"name":"erc4626Underlying","outputs":[{"internalType":"address","name":"","type":"address"}],"stateMutability":"view","type":"function"},{"inputs":[],"name":"fallbackStalePeriod","outputs":[{"internalType":"uint256","name":"","type":"uint256"}],"stateMutability":"view","type":"function"},{"inputs":[{"internalType":"address","name":"token","type":"address"}],"name":"fetchAndUpdatePrice","outputs":[{"internalType":"uint256","name":"","type":"uint256"}],"stateMutability":"nonpayable","type":"function"},{"inputs":[{"internalType":"address","name":"token","type":"address"}],"name":"getPrice","outputs":[{"internalType":"uint256","name":"price","type":"uint256"}],"stateMutability":"view","type":"function"},{"inputs":[{"internalType":"address","name":"token","type":"address"}],"name":"getPriceAge","outputs":[{"internalType":"uint256","name":"age","type":"uint256"}],"stateMutability":"view","type":"function"},{"inputs":[{"internalType":"address","name":"","type":"address"}],"name":"isManual","outputs":[{"internalType":"bool","name":"","type":"bool"}],"stateMutability":"view","type":"function"},{"inputs":[{"internalType":"address","name":"token","type":"address"}],"name":"isPriceFresh","outputs":[{"internalType":"bool","name":"isFresh","type":"bool"}],"stateMutability":"view","type":"function"},{"inputs":[{"internalType":"address","name":"","type":"address"}],"name":"lastValidPrice","outputs":[{"internalType":"uint256","name":"price","type":"uint256"},{"internalType":"uint256","name":"timestamp","type":"uint256"}],"stateMutability":"view","type":"function"},{"inputs":[{"internalType":"address","name":"","type":"address"}],"name":"manualPrices","outputs":[{"internalType":"uint256","name":"","type":"uint256"}],"stateMutability":"view","type":"function"},{"inputs":[],"name":"mode","outputs":[{"internalType":"enum IOracle.OracleMode","name":"","type":"uint8"}],"stateMutability":"view","type":"function"},{"inputs":[],"name":"owner","outputs":[{"internalType":"address","name":"","type":"address"}],"stateMutability":"view","type":"function"},{"inputs":[],"name":"renounceOwnership","outputs":[],"stateMutability":"nonpayable","type":"function"},{"inputs":[{"internalType":"address","name":"token","type":"address"}],"name":"resolvePrice","outputs":[{"internalType":"uint256","name":"price","type":"uint256"}],"stateMutability":"nonpayable","type":"function"},{"inputs":[{"internalType":"address","name":"token","type":"address"},{"internalType":"address","name":"feed","type":"address"}],"name":"setChainlinkFeed","outputs":[],"stateMutability":"nonpayable","type":"function"},{"inputs":[{"internalType":"address","name":"vault","type":"address"},{"internalType":"address","name":"underlying","type":"address"}],"name":"setERC4626Vault","outputs":[],"stateMutability":"nonpayable","type":"function"},{"inputs":[{"internalType":"uint256","name":"period","type":"uint256"}],"name":"setFallbackStalePeriod","outputs":[],"stateMutability":"nonpayable","type":"function"},{"inputs":[{"internalType":"address","name":"token","type":"address"},{"internalType":"uint256","name":"price","type":"uint256"}],"name":"setManualPrice","outputs":[],"stateMutability":"nonpayable","type":"function"},{"inputs":[{"internalType":"enum IOracle.OracleMode","name":"newMode","type":"uint8"}],"name":"setOracleMode","outputs":[],"stateMutability":"nonpayable","type":"function"},{"inputs":[{"internalType":"uint256","name":"period","type":"uint256"}],"name":"setStalePeriod","outputs":[],"stateMutability":"nonpayable","type":"function"},{"inputs":[{"internalType":"address","name":"vault","type":"address"},{"internalType":"uint256","name":"minRate","type":"uint256"},{"internalType":"uint256","name":"maxRate","type":"uint256"}],"name":"setVaultRateBounds","outputs":[],"stateMutability":"nonpayable","type":"function"},{"inputs":[],"name":"stalePeriod","outputs":[{"internalType":"uint256","name":"","type":"uint256"}],"stateMutability":"view","type":"function"},{"inputs":[{"internalType":"address","name":"newOwner","type":"address"}],"name":"transferOwnership","outputs":[],"stateMutability":"nonpayable","type":"function"},{"inputs":[{"internalType":"address","name":"","type":"address"}],"name":"vaultRateBounds","outputs":[{"internalType":"uint256","name":"minRate","type":"uint256"},{"internalType":"uint256","name":"maxRate","type":"uint256"}],"stateMutability":"view","type":"function"}],"evm":{"bytecode":{"linkReferences":{},"object":"6080604052610e10600755610e1060026200001b919062000158565b6008556009805460ff191690553480156200003557600080fd5b5060405162001fc838038062001fc8833981016040819052620000589162000184565b806001600160a01b0381166200008957604051631e4fbdf760e01b8152600060048201526024015b60405180910390fd5b620000948162000108565b506001600160a01b0381166200010157604080516374b58fcf60e01b81526004810191909152601260448201527127b930b1b6329d31b7b739ba393ab1ba37b960711b606482015260806024820152600560848201526437bbb732b960d91b60a482015260c40162000080565b50620001b6565b600080546001600160a01b038381166001600160a01b0319831681178455604051919092169283917f8be0079c531659141344cd1fd0a4f28419497f9722a3daafe3b4186f6b6457e09190a35050565b80820281158282048414176200017e57634e487b7160e01b600052601160045260246000fd5b92915050565b6000602082840312156200019757600080fd5b81516001600160a01b0381168114620001af57600080fd5b9392505050565b611e0280620001c66000396000f3fe608060405234801561001057600080fd5b50600436106101735760003560e01c80638da5cb5b116100de578063cfa3d59311610097578063e8c1650011610071578063e8c1650014610389578063ed06a12d146103b2578063f04c98ca146103c5578063f2fde38b146103e557600080fd5b8063cfa3d59314610326578063d979303314610339578063e310bd2a1461036257600080fd5b80638da5cb5b146102ac5780638fef24a3146102d1578063a5b36a36146102e4578063a6f4ab2e146102ed578063a95121b514610300578063ced663b01461031357600080fd5b80634316b5a2116101305780634316b5a21461021c57806348c87c511461022f57806369ef32d214610242578063715018a61461025557806371e8023c1461025d5780637f33780a1461027057600080fd5b80630af1a39f146101785780630f5d559d146101a0578063260f9a8b146101c3578063295a5212146101da5780633b82fdeb146101f457806341976e0914610209575b600080fd5b61018b610186366004611819565b6103f8565b60405190151581526020015b60405180910390f35b61018b6101ae366004611819565b60046020526000908152604090205460ff1681565b6101cc60085481565b604051908152602001610197565b6009546101e79060ff1681565b604051610197919061186e565b610207610202366004611882565b61044f565b005b6101cc610217366004611819565b6104bb565b61020761022a3660046118a3565b6105f6565b6101cc61023d366004611819565b610660565b6102076102503660046118bc565b6106b1565b6102076108f8565b61020761026b3660046118bc565b61090c565b61029761027e366004611819565b6005602052600090815260409020805460019091015482565b60408051928352602083019190915201610197565b6000546001600160a01b03165b6040516001600160a01b039091168152602001610197565b6102076102df3660046118f5565b610a45565b6101cc60075481565b6102076102fb3660046118a3565b610b90565b61020761030e36600461192a565b610bff565b610207610321366004611819565b610ec9565b6101cc610334366004611819565b610f4d565b6102b9610347366004611819565b6002602052600090815260409020546001600160a01b031681565b610297610370366004611819565b6006602052600090815260409020805460019091015482565b6102b9610397366004611819565b6001602052600090815260409020546001600160a01b031681565b6101cc6103c0366004611819565b6112b3565b6101cc6103d3366004611819565b60036020526000908152604090205481565b6102076103f3366004611819565b61132c565b6001600160a01b038116600090815260056020908152604080832081518083019092528054825260010154918101829052901580159061044857506007546020820151610445904261196c565b11155b9392505050565b61045761136a565b6009805460ff811691839160ff19166001838181111561047957610479611836565b02179055507fa6972b82c1819c55fbb1eb3a5226aab6498a55b1cccd85bcffc44175751eb57381836040516104af92919061197f565b60405180910390a15050565b60006001600160a01b0382166104ed576040516374b58fcf60e01b81526004016104e4906119b2565b60405180910390fd5b6001600160a01b03821660009081526005602090815260408083208151808301909252805480835260019091015492820192909252910361054c57604051635a94181960e01b81526001600160a01b03841660048201526024016104e4565b604051630af1a39f60e01b81526001600160a01b03841660048201523090630af1a39f90602401602060405180830381865afa158015610590573d6000803e3d6000fd5b505050506040513d601f19601f820116820180604052508101906105b491906119ea565b6105ef5760208101516040516348da37e960e11b81526001600160a01b038516600482015260248101919091524260448201526064016104e4565b5192915050565b6105fe61136a565b600754811015610624576040516301ee48e160e71b8152600481018290526024016104e4565b60088190556040518181527fedd414ac063290211a282c8be3e328fcc6d60e4d1422ab34bc5af9a01736943d906020015b60405180910390a150565b6001600160a01b0381166000908152600560209081526040808320815180830190925280548252600101549181018290529082036106a2575060001992915050565b6020810151610448904261196c565b6106b961136a565b6001600160a01b03821615806106d657506001600160a01b038116155b156106f4576040516374b58fcf60e01b81526004016104e490611a0c565b806001600160a01b03163b60000361072a5760405163c2b3d6a360e01b81526001600160a01b03821660048201526024016104e4565b60008190506000816001600160a01b031663313ce5676040518163ffffffff1660e01b8152600401602060405180830381865afa15801561076f573d6000803e3d6000fd5b505050506040513d601f19601f820116820180604052508101906107939190611a65565b905060128160ff1611156107ce5760405163bed0220560e01b81526001600160a01b038416600482015260ff821660248201526044016104e4565b816001600160a01b031663feaf968c6040518163ffffffff1660e01b815260040160a060405180830381865afa925050508015610828575060408051601f3d908101601f1916820190925261082591810190611aa2565b60015b6108505760405163c2b3d6a360e01b81526001600160a01b03841660048201526024016104e4565b60008413158061085e575081155b156108875760405163c2b3d6a360e01b81526001600160a01b03891660048201526024016104e4565b50505050506001600160a01b03808516600081815260016020908152604080832080549589166001600160a01b0319909616861790556004909152808220805460ff19169055517fb9b75140a682094a10720170347bc8e03bfd71f1bb59d103cd8dc0782c5256839190a350505050565b61090061136a565b61090a6000611397565b565b61091461136a565b6001600160a01b038216158061093157506001600160a01b038116155b1561094f576040516374b58fcf60e01b81526004016104e490611af2565b816001600160a01b03166338d52e0f6040518163ffffffff1660e01b8152600401602060405180830381865afa9250505080156109a9575060408051601f3d908101601f191682019092526109a691810190611b44565b60015b6109ed5760405162461bcd60e51b8152602060048201526015602482015274125b9d985b1a5908115490cd0d8c8d881d985d5b1d605a1b60448201526064016104e4565b506001600160a01b0382811660008181526002602052604080822080546001600160a01b0319169486169485179055517f456db9889a9cf62250a0d96274761be08bc928b1ea97a2b6e45d9db8b575fa0c9190a35050565b610a4d61136a565b6001600160a01b038316610ac257604080516374b58fcf60e01b81526004810191909152601960448201527f4f7261636c653a7365745661756c7452617465426f756e64730000000000000060648201526080602482015260056084820152641d985d5b1d60da1b60a482015260c4016104e4565b811580610acf5750818111155b80610ae2575068056bc75e2d6310000081115b15610b195760405163dceed17360e01b81526001600160a01b038416600482015260248101839052604481018290526064016104e4565b60408051808201825283815260208082018481526001600160a01b038716600081815260068452859020935184559051600190930192909255825185815290810184905290917f97b96731e654217eb1034ea218d533d1b086cd0ba6ba8b09735ef3e70c4d5fd491015b60405180910390a2505050565b610b9861136a565b610e10811080610ba95750612a3081115b15610bca576040516301ee48e160e71b8152600481018290526024016104e4565b60078190556040518181527f8e163815dacf2204ab589790672a86e421041804acc4cb85a7caebac33be1b2b90602001610655565b610c0761136a565b600160095460ff166001811115610c2057610c20611836565b03610c46576040516330bcb70560e21b81523060048201524260248201526044016104e4565b6001600160a01b038216610c6d576040516374b58fcf60e01b81526004016104e490611b61565b6402540be400811080610c8c57506c0c9f2c9cd04674edea4000000081115b15610cbc57604051638366d84d60e01b81526001600160a01b0383166004820152602481018290526044016104e4565b6001600160a01b038216600090815260056020908152604091829020825180840190935280548084526001909101549183019190915215801590610d1057506007546020820151610d0d904261196c565b11155b15610dbf576000670de0b6b3a7640000610d3267016345785d8a00008261196c565b8351610d3e9190611b9f565b610d489190611bb6565b90506000670de0b6b3a7640000610d6767016345785d8a000082611bd8565b8451610d739190611b9f565b610d7d9190611bb6565b905081841080610d8c57508084115b15610dbc57604051638366d84d60e01b81526001600160a01b0386166004820152602481018590526044016104e4565b50505b6001600160a01b038316600081815260036020908152604080832086905560048252808320805460ff191660019081179091558151808301835287815242818501908152868652600585529483902090518155935193019290925590518481527f469ff3a7ada7a8c122e2729e7041dfdabfc5e8b26802fa04d7f00706149c4e24910160405180910390a2604051600181526001600160a01b038416907f782cbde6cfd4fcc41b55a876a6a2983d09080438d1e4316b98042b68025a29a89060200160405180910390a2604080518381524260208201526001600160a01b038516917f895efb821f241e50aca7011c501989268b4e15748c700bf77d48ff447049888c9101610b83565b610ed161136a565b6001600160a01b038116610ef8576040516374b58fcf60e01b81526004016104e490611beb565b6001600160a01b0381166000818152600460209081526040808320805460ff19169055519182527f782cbde6cfd4fcc41b55a876a6a2983d09080438d1e4316b98042b68025a29a8910160405180910390a250565b6001600160a01b03811660009081526004602052604081205460ff1615610f8a57506001600160a01b031660009081526003602052604090205490565b6001600160a01b03808316600090815260026020526040902054168015610fb55761044883826113e7565b6001600160a01b038084166000908152600160205260409020541680610ff957604051632a4f499d60e21b81526001600160a01b03851660048201526024016104e4565b60008060019050826001600160a01b031663feaf968c6040518163ffffffff1660e01b815260040160a060405180830381865afa92505050801561105a575060408051601f3d908101601f1916820190925261105791810190611aa2565b60015b6110665750600061118f565b600084131580611074575081155b806110895750600754611087834261196c565b115b156110975760009550611189565b6000886001600160a01b031663313ce5676040518163ffffffff1660e01b8152600401602060405180830381865afa1580156110d7573d6000803e3d6000fd5b505050506040513d601f19601f820116820180604052508101906110fb9190611a65565b905084601260ff8316146111595760128260ff16106111395761111f601283611c31565b61112a90600a611d2e565b6111349082611bb6565b61115b565b611144826012611c31565b61114f90600a611d2e565b6111349082611b9f565b805b98506402540be40089108061117c57506c0c9f2c9cd04674edea4000000089115b1561118657600097505b50505b50505050505b801561119e5750949350505050565b6001600160a01b0386166000908152600560209081526040808320815180830190925280548083526001909101549282019290925291036111fd57604051635a94181960e01b81526001600160a01b03881660048201526024016104e4565b600854602082015161120f904261196c565b111561123957604051634ebf1f0f60e11b81526001600160a01b03881660048201526024016104e4565b805160408051918252426020830152606090820181905260119082015270436861696e6c696e6b206661696c75726560781b60808201526001600160a01b038816907f1037657730ddbc445dbaba678e03c33d31f7ae7f523c4f5de5f458ea5b837d399060a00160405180910390a2519695505050505050565b6000600160095460ff1660018111156112ce576112ce611836565b036112f4576040516330bcb70560e21b81523060048201524260248201526044016104e4565b6001600160a01b03821661131b576040516374b58fcf60e01b81526004016104e490611d3d565b61132482611730565b90505b919050565b61133461136a565b6001600160a01b03811661135e57604051631e4fbdf760e01b8152600060048201526024016104e4565b61136781611397565b50565b6000546001600160a01b0316331461090a5760405163118cdaa760e01b81523360048201526024016104e4565b600080546001600160a01b038381166001600160a01b0319831681178455604051919092169283917f8be0079c531659141344cd1fd0a4f28419497f9722a3daafe3b4186f6b6457e09190a35050565b60006001600a541061140f57604051630e5daffd60e11b8152600060048201526024016104e4565b600a805490600061141f83611d83565b91905055506000836001600160a01b031663313ce5676040518163ffffffff1660e01b8152600401602060405180830381865afa158015611464573d6000803e3d6000fd5b505050506040513d601f19601f820116820180604052508101906114889190611a65565b90506000836001600160a01b031663313ce5676040518163ffffffff1660e01b8152600401602060405180830381865afa1580156114ca573d6000803e3d6000fd5b505050506040513d601f19601f820116820180604052508101906114ee9190611a65565b905060006114fd83600a611d2e565b6040516303d1689d60e11b8152600481018290529091506000906001600160a01b038816906307a2d13a90602401602060405180830381865afa158015611548573d6000803e3d6000fd5b505050506040513d601f19601f8201168201806040525081019061156c9190611d9c565b905080158061158957506ec097ce7bc90715b34b9f100000000081115b156115b857604051624df74960e31b81526001600160a01b0388166004820152602481018290526044016104e4565b60006115c584600a611d2e565b6115d7670de0b6b3a764000084611b9f565b6115e19190611bb6565b905060006115f086600a611d2e565b611602670de0b6b3a764000086611b9f565b61160c9190611bb6565b9050600081611623670de0b6b3a764000085611b9f565b61162d9190611bb6565b6001600160a01b038b16600090815260066020908152604080832081518083019092528054808352600190910154928201929092529293501561167157815161167b565b6702c68af0bb1400005b90506000826020015160001461169557826020015161169f565b6729a2241af62c00005b9050808411806116ae57508184105b156116de5760405163c55e83d360e01b81526001600160a01b038e166004820152602481018590526044016104e4565b60006116e98d610f4d565b9050670de0b6b3a76400006116fe8683611b9f565b6117089190611bb6565b9b505050505050505050505050600a805490600061172583611db5565b919050555092915050565b600061173b82610f4d565b90506402540be40081108061175c57506c0c9f2c9cd04674edea4000000081115b1561178c57604051631b27609360e01b81526001600160a01b0383166004820152600060248201526044016104e4565b6040805180820182528281524260208083018281526001600160a01b03871660008181526005845286902094518555905160019094019390935583518581529081019190915290917f895efb821f241e50aca7011c501989268b4e15748c700bf77d48ff447049888c910160405180910390a2919050565b6001600160a01b038116811461136757600080fd5b60006020828403121561182b57600080fd5b813561044881611804565b634e487b7160e01b600052602160045260246000fd5b6002811061186a57634e487b7160e01b600052602160045260246000fd5b9052565b6020810161187c828461184c565b92915050565b60006020828403121561189457600080fd5b81356002811061044857600080fd5b6000602082840312156118b557600080fd5b5035919050565b600080604083850312156118cf57600080fd5b82356118da81611804565b915060208301356118ea81611804565b809150509250929050565b60008060006060848603121561190a57600080fd5b833561191581611804565b95602085013595506040909401359392505050565b6000806040838503121561193d57600080fd5b823561194881611804565b946020939093013593505050565b634e487b7160e01b600052601160045260246000fd5b8181038181111561187c5761187c611956565b6040810161198d828561184c565b610448602083018461184c565b60058152643a37b5b2b760d91b602082015260400190565b60408152600f60408201526e4f7261636c653a676574507269636560881b60608201526080602082015260006113246080830161199a565b6000602082840312156119fc57600080fd5b8151801515811461044857600080fd5b60408152601760408201527f4f7261636c653a736574436861696e6c696e6b4665656400000000000000000060608201526080602082015260006113246080830160058152641a5b9c1d5d60da1b602082015260400190565b600060208284031215611a7757600080fd5b815160ff8116811461044857600080fd5b805169ffffffffffffffffffff8116811461132757600080fd5b600080600080600060a08688031215611aba57600080fd5b611ac386611a88565b9450602086015193506040860151925060608601519150611ae660808701611a88565b90509295509295909350565b60408152601660408201527513dc9858db194e9cd95d115490cd0d8c8d95985d5b1d60521b60608201526080602082015260006113246080830160058152641a5b9c1d5d60da1b602082015260400190565b600060208284031215611b5657600080fd5b815161044881611804565b6040815260156040820152744f7261636c653a7365744d616e75616c507269636560581b60608201526080602082015260006113246080830161199a565b808202811582820484141761187c5761187c611956565b600082611bd357634e487b7160e01b600052601260045260246000fd5b500490565b8082018082111561187c5761187c611956565b60408152601960408201527f4f7261636c653a64697361626c654d616e75616c50726963650000000000000060608201526080602082015260006113246080830161199a565b60ff828116828216039081111561187c5761187c611956565b600181815b80851115611c85578160001904821115611c6b57611c6b611956565b80851615611c7857918102915b93841c9390800290611c4f565b509250929050565b600082611c9c5750600161187c565b81611ca95750600061187c565b8160018114611cbf5760028114611cc957611ce5565b600191505061187c565b60ff841115611cda57611cda611956565b50506001821b61187c565b5060208310610133831016604e8410600b8410161715611d08575081810a61187c565b611d128383611c4a565b8060001904821115611d2657611d26611956565b029392505050565b600061044860ff841683611c8d565b60408152601a60408201527f4f7261636c653a6665746368416e64557064617465507269636500000000000060608201526080602082015260006113246080830161199a565b600060018201611d9557611d95611956565b5060010190565b600060208284031215611dae57600080fd5b5051919050565b600081611dc457611dc4611956565b50600019019056fea26469706673582212207252108efe2c87bad044d4c17e61b80fc716089806239a4ac8bab5962f58035664736f6c63430008150033","opcodes":"PUSH1 0x80 PUSH1 0x40 MSTORE PUSH2 0xE10 PUSH1 0x7 SSTORE PUSH2 0xE10 PUSH1 0x2 PUSH3 0x1B SWAP2 SWAP1 PUSH3 0x158 JUMP JUMPDEST PUSH1 0x8 SSTORE PUSH1 0x9 DUP1 SLOAD PUSH1 0xFF NOT AND SWAP1 SSTORE CALLVALUE DUP1 ISZERO PUSH3 0x35 JUMPI PUSH1 0x0 DUP1 REVERT JUMPDEST POP PUSH1 0x40 MLOAD PUSH3 0x1FC8 CODESIZE SUB DUP1 PUSH3 0x1FC8 DUP4 CODECOPY DUP2 ADD PUSH1 0x40 DUP2 SWAP1 MSTORE PUSH3 0x58 SWAP2 PUSH3 0x184 JUMP JUMPDEST DUP1 PUSH1 0x1 PUSH1 0x1 PUSH1 0xA0 SHL SUB DUP2 AND PUSH3 0x89 JUMPI PUSH1 0x40 MLOAD PUSH4 0x1E4FBDF7 PUSH1 0xE0 SHL DUP2 MSTORE PUSH1 0x0 PUSH1 0x4 DUP3 ADD MSTORE PUSH1 0x24 ADD JUMPDEST PUSH1 0x40 MLOAD DUP1 SWAP2 SUB SWAP1 REVERT JUMPDEST PUSH3 0x94 DUP2 PUSH3 0x108 JUMP JUMPDEST POP PUSH1 0x1 PUSH1 0x1 PUSH1 0xA0 SHL SUB DUP2 AND PUSH3 0x101 JUMPI PUSH1 0x40 DUP1 MLOAD PUSH4 0x74B58FCF PUSH1 0xE0 SHL DUP2 MSTORE PUSH1 0x4 DUP2 ADD SWAP2 SWAP1 SWAP2 MSTORE PUSH1 0x12 PUSH1 0x44 DUP3 ADD MSTORE PUSH18 0x27B930B1B6329D31B7B739BA393AB1BA37B9 PUSH1 0x71 SHL PUSH1 0x64 DUP3 ADD MSTORE PUSH1 0x80 PUSH1 0x24 DUP3 ADD MSTORE PUSH1 0x5 PUSH1 0x84 DUP3 ADD MSTORE PUSH5 0x37BBB732B9 PUSH1 0xD9 SHL PUSH1 0xA4 DUP3 ADD MSTORE PUSH1 0xC4 ADD PUSH3 0x80 JUMP JUMPDEST POP PUSH3 0x1B6 JUMP JUMPDEST PUSH1 0x0 DUP1 SLOAD PUSH1 0x1 PUSH1 0x1 PUSH1 0xA0 SHL SUB DUP4 DUP2 AND PUSH1 0x1 PUSH1 0x1 PUSH1 0xA0 SHL SUB NOT DUP4 AND DUP2 OR DUP5 SSTORE PUSH1 0x40 MLOAD SWAP2 SWAP1 SWAP3 AND SWAP3 DUP4 SWAP2 PUSH32 0x8BE0079C531659141344CD1FD0A4F28419497F9722A3DAAFE3B4186F6B6457E0 SWAP2 SWAP1 LOG3 POP POP JUMP JUMPDEST DUP1 DUP3 MUL DUP2 ISZERO DUP3 DUP3 DIV DUP5 EQ OR PUSH3 0x17E JUMPI PUSH4 0x4E487B71 PUSH1 0xE0 SHL PUSH1 0x0 MSTORE PUSH1 0x11 PUSH1 0x4 MSTORE PUSH1 0x24 PUSH1 0x0 REVERT JUMPDEST SWAP3 SWAP2 POP POP JUMP JUMPDEST PUSH1 0x0 PUSH1 0x20 DUP3 DUP5 SUB SLT ISZERO PUSH3 0x197 JUMPI PUSH1 0x0 DUP1 REVERT JUMPDEST DUP2 MLOAD PUSH1 0x1 PUSH1 0x1 PUSH1 0xA0 SHL SUB DUP2 AND DUP2 EQ PUSH3 0x1AF JUMPI PUSH1 0x0 DUP1 REVERT JUMPDEST SWAP4 SWAP3 POP POP POP JUMP JUMPDEST PUSH2 0x1E02 DUP1 PUSH3 0x1C6 PUSH1 0x0 CODECOPY PUSH1 0x0 RETURN INVALID PUSH1 0x80 PUSH1 0x40 MSTORE CALLVALUE DUP1 ISZERO PUSH2 0x10 JUMPI PUSH1 0x0 DUP1 REVERT JUMPDEST POP PUSH1 0x4 CALLDATASIZE LT PUSH2 0x173 JUMPI PUSH1 0x0 CALLDATALOAD PUSH1 0xE0 SHR DUP1 PUSH4 0x8DA5CB5B GT PUSH2 0xDE JUMPI DUP1 PUSH4 0xCFA3D593 GT PUSH2 0x97 JUMPI DUP1 PUSH4 0xE8C16500 GT PUSH2 0x71 JUMPI DUP1 PUSH4 0xE8C16500 EQ PUSH2 0x389 JUMPI DUP1 PUSH4 0xED06A12D EQ PUSH2 0x3B2 JUMPI DUP1 PUSH4 0xF04C98CA EQ PUSH2 0x3C5 JUMPI DUP1 PUSH4 0xF2FDE38B EQ PUSH2 0x3E5 JUMPI PUSH1 0x0 DUP1 REVERT JUMPDEST DUP1 PUSH4 0xCFA3D593 EQ PUSH2 0x326 JUMPI DUP1 PUSH4 0xD9793033 EQ PUSH2 0x339 JUMPI DUP1 PUSH4 0xE310BD2A EQ PUSH2 0x362 JUMPI PUSH1 0x0 DUP1 REVERT JUMPDEST DUP1 PUSH4 0x8DA5CB5B EQ PUSH2 0x2AC JUMPI DUP1 PUSH4 0x8FEF24A3 EQ PUSH2 0x2D1 JUMPI DUP1 PUSH4 0xA5B36A36 EQ PUSH2 0x2E4 JUMPI DUP1 PUSH4 0xA6F4AB2E EQ PUSH2 0x2ED JUMPI DUP1 PUSH4 0xA95121B5 EQ PUSH2 0x300 JUMPI DUP1 PUSH4 0xCED663B0 EQ PUSH2 0x313 JUMPI PUSH1 0x0 DUP1 REVERT JUMPDEST DUP1 PUSH4 0x4316B5A2 GT PUSH2 0x130 JUMPI DUP1 PUSH4 0x4316B5A2 EQ PUSH2 0x21C JUMPI DUP1 PUSH4 0x48C87C51 EQ PUSH2 0x22F JUMPI DUP1 PUSH4 0x69EF32D2 EQ PUSH2 0x242 JUMPI DUP1 PUSH4 0x715018A6 EQ PUSH2 0x255 JUMPI DUP1 PUSH4 0x71E8023C EQ PUSH2 0x25D JUMPI DUP1 PUSH4 0x7F33780A EQ PUSH2 0x270 JUMPI PUSH1 0x0 DUP1 REVERT JUMPDEST DUP1 PUSH4 0xAF1A39F EQ PUSH2 0x178 JUMPI DUP1 PUSH4 0xF5D559D EQ PUSH2 0x1A0 JUMPI DUP1 PUSH4 0x260F9A8B EQ PUSH2 0x1C3 JUMPI DUP1 PUSH4 0x295A5212 EQ PUSH2 0x1DA JUMPI DUP1 PUSH4 0x3B82FDEB EQ PUSH2 0x1F4 JUMPI DUP1 PUSH4 0x41976E09 EQ PUSH2 0x209 JUMPI JUMPDEST PUSH1 0x0 DUP1 REVERT JUMPDEST PUSH2 0x18B PUSH2 0x186 CALLDATASIZE PUSH1 0x4 PUSH2 0x1819 JUMP JUMPDEST PUSH2 0x3F8 JUMP JUMPDEST PUSH1 0x40 MLOAD SWAP1 ISZERO ISZERO DUP2 MSTORE PUSH1 0x20 ADD JUMPDEST PUSH1 0x40 MLOAD DUP1 SWAP2 SUB SWAP1 RETURN JUMPDEST PUSH2 0x18B PUSH2 0x1AE CALLDATASIZE PUSH1 0x4 PUSH2 0x1819 JUMP JUMPDEST PUSH1 0x4 PUSH1 0x20 MSTORE PUSH1 0x0 SWAP1 DUP2 MSTORE PUSH1 0x40 SWAP1 KECCAK256 SLOAD PUSH1 0xFF AND DUP2 JUMP JUMPDEST PUSH2 0x1CC PUSH1 0x8 SLOAD DUP2 JUMP JUMPDEST PUSH1 0x40 MLOAD SWAP1 DUP2 MSTORE PUSH1 0x20 ADD PUSH2 0x197 JUMP JUMPDEST PUSH1 0x9 SLOAD PUSH2 0x1E7 SWAP1 PUSH1 0xFF AND DUP2 JUMP JUMPDEST PUSH1 0x40 MLOAD PUSH2 0x197 SWAP2 SWAP1 PUSH2 0x186E JUMP JUMPDEST PUSH2 0x207 PUSH2 0x202 CALLDATASIZE PUSH1 0x4 PUSH2 0x1882 JUMP JUMPDEST PUSH2 0x44F JUMP JUMPDEST STOP JUMPDEST PUSH2 0x1CC PUSH2 0x217 CALLDATASIZE PUSH1 0x4 PUSH2 0x1819 JUMP JUMPDEST PUSH2 0x4BB JUMP JUMPDEST PUSH2 0x207 PUSH2 0x22A CALLDATASIZE PUSH1 0x4 PUSH2 0x18A3 JUMP JUMPDEST PUSH2 0x5F6 JUMP JUMPDEST PUSH2 0x1CC PUSH2 0x23D CALLDATASIZE PUSH1 0x4 PUSH2 0x1819 JUMP JUMPDEST PUSH2 0x660 JUMP JUMPDEST PUSH2 0x207 PUSH2 0x250 CALLDATASIZE PUSH1 0x4 PUSH2 0x18BC JUMP JUMPDEST PUSH2 0x6B1 JUMP JUMPDEST PUSH2 0x207 PUSH2 0x8F8 JUMP JUMPDEST PUSH2 0x207 PUSH2 0x26B CALLDATASIZE PUSH1 0x4 PUSH2 0x18BC JUMP JUMPDEST PUSH2 0x90C JUMP JUMPDEST PUSH2 0x297 PUSH2 0x27E CALLDATASIZE PUSH1 0x4 PUSH2 0x1819 JUMP JUMPDEST PUSH1 0x5 PUSH1 0x20 MSTORE PUSH1 0x0 SWAP1 DUP2 MSTORE PUSH1 0x40 SWAP1 KECCAK256 DUP1 SLOAD PUSH1 0x1 SWAP1 SWAP2 ADD SLOAD DUP3 JUMP JUMPDEST PUSH1 0x40 DUP1 MLOAD SWAP3 DUP4 MSTORE PUSH1 0x20 DUP4 ADD SWAP2 SWAP1 SWAP2 MSTORE ADD PUSH2 0x197 JUMP JUMPDEST PUSH1 0x0 SLOAD PUSH1 0x1 PUSH1 0x1 PUSH1 0xA0 SHL SUB AND JUMPDEST PUSH1 0x40 MLOAD PUSH1 0x1 PUSH1 0x1 PUSH1 0xA0 SHL SUB SWAP1 SWAP2 AND DUP2 MSTORE PUSH1 0x20 ADD PUSH2 0x197 JUMP JUMPDEST PUSH2 0x207 PUSH2 0x2DF CALLDATASIZE PUSH1 0x4 PUSH2 0x18F5 JUMP JUMPDEST PUSH2 0xA45 JUMP JUMPDEST PUSH2 0x1CC PUSH1 0x7 SLOAD DUP2 JUMP JUMPDEST PUSH2 0x207 PUSH2 0x2FB CALLDATASIZE PUSH1 0x4 PUSH2 0x18A3 JUMP JUMPDEST PUSH2 0xB90 JUMP JUMPDEST PUSH2 0x207 PUSH2 0x30E CALLDATASIZE PUSH1 0x4 PUSH2 0x192A JUMP JUMPDEST PUSH2 0xBFF JUMP JUMPDEST PUSH2 0x207 PUSH2 0x321 CALLDATASIZE PUSH1 0x4 PUSH2 0x1819 JUMP JUMPDEST PUSH2 0xEC9 JUMP JUMPDEST PUSH2 0x1CC PUSH2 0x334 CALLDATASIZE PUSH1 0x4 PUSH2 0x1819 JUMP JUMPDEST PUSH2 0xF4D JUMP JUMPDEST PUSH2 0x2B9 PUSH2 0x347 CALLDATASIZE PUSH1 0x4 PUSH2 0x1819 JUMP JUMPDEST PUSH1 0x2 PUSH1 0x20 MSTORE PUSH1 0x0 SWAP1 DUP2 MSTORE PUSH1 0x40 SWAP1 KECCAK256 SLOAD PUSH1 0x1 PUSH1 0x1 PUSH1 0xA0 SHL SUB AND DUP2 JUMP JUMPDEST PUSH2 0x297 PUSH2 0x370 CALLDATASIZE PUSH1 0x4 PUSH2 0x1819 JUMP JUMPDEST PUSH1 0x6 PUSH1 0x20 MSTORE PUSH1 0x0 SWAP1 DUP2 MSTORE PUSH1 0x40 SWAP1 KECCAK256 DUP1 SLOAD PUSH1 0x1 SWAP1 SWAP2 ADD SLOAD DUP3 JUMP JUMPDEST PUSH2 0x2B9 PUSH2 0x397 CALLDATASIZE PUSH1 0x4 PUSH2 0x1819 JUMP JUMPDEST PUSH1 0x1 PUSH1 0x20 MSTORE PUSH1 0x0 SWAP1 DUP2 MSTORE PUSH1 0x40 SWAP1 KECCAK256 SLOAD PUSH1 0x1 PUSH1 0x1 PUSH1 0xA0 SHL SUB AND DUP2 JUMP JUMPDEST PUSH2 0x1CC PUSH2 0x3C0 CALLDATASIZE PUSH1 0x4 PUSH2 0x1819 JUMP JUMPDEST PUSH2 0x12B3 JUMP JUMPDEST PUSH2 0x1CC PUSH2 0x3D3 CALLDATASIZE PUSH1 0x4 PUSH2 0x1819 JUMP JUMPDEST PUSH1 0x3 PUSH1 0x20 MSTORE PUSH1 0x0 SWAP1 DUP2 MSTORE PUSH1 0x40 SWAP1 KECCAK256 SLOAD DUP2 JUMP JUMPDEST PUSH2 0x207 PUSH2 0x3F3 CALLDATASIZE PUSH1 0x4 PUSH2 0x1819 JUMP JUMPDEST PUSH2 0x132C JUMP JUMPDEST PUSH1 0x1 PUSH1 0x1 PUSH1 0xA0 SHL SUB DUP2 AND PUSH1 0x0 SWAP1 DUP2 MSTORE PUSH1 0x5 PUSH1 0x20 SWAP1 DUP2 MSTORE PUSH1 0x40 DUP1 DUP4 KECCAK256 DUP2 MLOAD DUP1 DUP4 ADD SWAP1 SWAP3 MSTORE DUP1 SLOAD DUP3 MSTORE PUSH1 0x1 ADD SLOAD SWAP2 DUP2 ADD DUP3 SWAP1 MSTORE SWAP1 ISZERO DUP1 ISZERO SWAP1 PUSH2 0x448 JUMPI POP PUSH1 0x7 SLOAD PUSH1 0x20 DUP3 ADD MLOAD PUSH2 0x445 SWAP1 TIMESTAMP PUSH2 0x196C JUMP JUMPDEST GT ISZERO JUMPDEST SWAP4 SWAP3 POP POP POP JUMP JUMPDEST PUSH2 0x457 PUSH2 0x136A JUMP JUMPDEST PUSH1 0x9 DUP1 SLOAD PUSH1 0xFF DUP2 AND SWAP2 DUP4 SWAP2 PUSH1 0xFF NOT AND PUSH1 0x1 DUP4 DUP2 DUP2 GT ISZERO PUSH2 0x479 JUMPI PUSH2 0x479 PUSH2 0x1836 JUMP JUMPDEST MUL OR SWAP1 SSTORE POP PUSH32 0xA6972B82C1819C55FBB1EB3A5226AAB6498A55B1CCCD85BCFFC44175751EB573 DUP2 DUP4 PUSH1 0x40 MLOAD PUSH2 0x4AF SWAP3 SWAP2 SWAP1 PUSH2 0x197F JUMP JUMPDEST PUSH1 0x40 MLOAD DUP1 SWAP2 SUB SWAP1 LOG1 POP POP JUMP JUMPDEST PUSH1 0x0 PUSH1 0x1 PUSH1 0x1 PUSH1 0xA0 SHL SUB DUP3 AND PUSH2 0x4ED JUMPI PUSH1 0x40 MLOAD PUSH4 0x74B58FCF PUSH1 0xE0 SHL DUP2 MSTORE PUSH1 0x4 ADD PUSH2 0x4E4 SWAP1 PUSH2 0x19B2 JUMP JUMPDEST PUSH1 0x40 MLOAD DUP1 SWAP2 SUB SWAP1 REVERT JUMPDEST PUSH1 0x1 PUSH1 0x1 PUSH1 0xA0 SHL SUB DUP3 AND PUSH1 0x0 SWAP1 DUP2 MSTORE PUSH1 0x5 PUSH1 0x20 SWAP1 DUP2 MSTORE PUSH1 0x40 DUP1 DUP4 KECCAK256 DUP2 MLOAD DUP1 DUP4 ADD SWAP1 SWAP3 MSTORE DUP1 SLOAD DUP1 DUP4 MSTORE PUSH1 0x1 SWAP1 SWAP2 ADD SLOAD SWAP3 DUP3 ADD SWAP3 SWAP1 SWAP3 MSTORE SWAP2 SUB PUSH2 0x54C JUMPI PUSH1 0x40 MLOAD PUSH4 0x5A941819 PUSH1 0xE0 SHL DUP2 MSTORE PUSH1 0x1 PUSH1 0x1 PUSH1 0xA0 SHL SUB DUP5 AND PUSH1 0x4 DUP3 ADD MSTORE PUSH1 0x24 ADD PUSH2 0x4E4 JUMP JUMPDEST PUSH1 0x40 MLOAD PUSH4 0xAF1A39F PUSH1 0xE0 SHL DUP2 MSTORE PUSH1 0x1 PUSH1 0x1 PUSH1 0xA0 SHL SUB DUP5 AND PUSH1 0x4 DUP3 ADD MSTORE ADDRESS SWAP1 PUSH4 0xAF1A39F SWAP1 PUSH1 0x24 ADD PUSH1 0x20 PUSH1 0x40 MLOAD DUP1 DUP4 SUB DUP2 DUP7 GAS STATICCALL ISZERO DUP1 ISZERO PUSH2 0x590 JUMPI RETURNDATASIZE PUSH1 0x0 DUP1 RETURNDATACOPY RETURNDATASIZE PUSH1 0x0 REVERT JUMPDEST POP POP POP POP PUSH1 0x40 MLOAD RETURNDATASIZE PUSH1 0x1F NOT PUSH1 0x1F DUP3 ADD AND DUP3 ADD DUP1 PUSH1 0x40 MSTORE POP DUP2 ADD SWAP1 PUSH2 0x5B4 SWAP2 SWAP1 PUSH2 0x19EA JUMP JUMPDEST PUSH2 0x5EF JUMPI PUSH1 0x20 DUP2 ADD MLOAD PUSH1 0x40 MLOAD PUSH4 0x48DA37E9 PUSH1 0xE1 SHL DUP2 MSTORE PUSH1 0x1 PUSH1 0x1 PUSH1 0xA0 SHL SUB DUP6 AND PUSH1 0x4 DUP3 ADD MSTORE PUSH1 0x24 DUP2 ADD SWAP2 SWAP1 SWAP2 MSTORE TIMESTAMP PUSH1 0x44 DUP3 ADD MSTORE PUSH1 0x64 ADD PUSH2 0x4E4 JUMP JUMPDEST MLOAD SWAP3 SWAP2 POP POP JUMP JUMPDEST PUSH2 0x5FE PUSH2 0x136A JUMP JUMPDEST PUSH1 0x7 SLOAD DUP2 LT ISZERO PUSH2 0x624 JUMPI PUSH1 0x40 MLOAD PUSH4 0x1EE48E1 PUSH1 0xE7 SHL DUP2 MSTORE PUSH1 0x4 DUP2 ADD DUP3 SWAP1 MSTORE PUSH1 0x24 ADD PUSH2 0x4E4 JUMP JUMPDEST PUSH1 0x8 DUP2 SWAP1 SSTORE PUSH1 0x40 MLOAD DUP2 DUP2 MSTORE PUSH32 0xEDD414AC063290211A282C8BE3E328FCC6D60E4D1422AB34BC5AF9A01736943D SWAP1 PUSH1 0x20 ADD JUMPDEST PUSH1 0x40 MLOAD DUP1 SWAP2 SUB SWAP1 LOG1 POP JUMP JUMPDEST PUSH1 0x1 PUSH1 0x1 PUSH1 0xA0 SHL SUB DUP2 AND PUSH1 0x0 SWAP1 DUP2 MSTORE PUSH1 0x5 PUSH1 0x20 SWAP1 DUP2 MSTORE PUSH1 0x40 DUP1 DUP4 KECCAK256 DUP2 MLOAD DUP1 DUP4 ADD SWAP1 SWAP3 MSTORE DUP1 SLOAD DUP3 MSTORE PUSH1 0x1 ADD SLOAD SWAP2 DUP2 ADD DUP3 SWAP1 MSTORE SWAP1 DUP3 SUB PUSH2 0x6A2 JUMPI POP PUSH1 0x0 NOT SWAP3 SWAP2 POP POP JUMP JUMPDEST PUSH1 0x20 DUP2 ADD MLOAD PUSH2 0x448 SWAP1 TIMESTAMP PUSH2 0x196C JUMP JUMPDEST PUSH2 0x6B9 PUSH2 0x136A JUMP JUMPDEST PUSH1 0x1 PUSH1 0x1 PUSH1 0xA0 SHL SUB DUP3 AND ISZERO DUP1 PUSH2 0x6D6 JUMPI POP PUSH1 0x1 PUSH1 0x1 PUSH1 0xA0 SHL SUB DUP2 AND ISZERO JUMPDEST ISZERO PUSH2 0x6F4 JUMPI PUSH1 0x40 MLOAD PUSH4 0x74B58FCF PUSH1 0xE0 SHL DUP2 MSTORE PUSH1 0x4 ADD PUSH2 0x4E4 SWAP1 PUSH2 0x1A0C JUMP JUMPDEST DUP1 PUSH1 0x1 PUSH1 0x1 PUSH1 0xA0 SHL SUB AND EXTCODESIZE PUSH1 0x0 SUB PUSH2 0x72A JUMPI PUSH1 0x40 MLOAD PUSH4 0xC2B3D6A3 PUSH1 0xE0 SHL DUP2 MSTORE PUSH1 0x1 PUSH1 0x1 PUSH1 0xA0 SHL SUB DUP3 AND PUSH1 0x4 DUP3 ADD MSTORE PUSH1 0x24 ADD PUSH2 0x4E4 JUMP JUMPDEST PUSH1 0x0 DUP2 SWAP1 POP PUSH1 0x0 DUP2 PUSH1 0x1 PUSH1 0x1 PUSH1 0xA0 SHL SUB AND PUSH4 0x313CE567 PUSH1 0x40 MLOAD DUP2 PUSH4 0xFFFFFFFF AND PUSH1 0xE0 SHL DUP2 MSTORE PUSH1 0x4 ADD PUSH1 0x20 PUSH1 0x40 MLOAD DUP1 DUP4 SUB DUP2 DUP7 GAS STATICCALL ISZERO DUP1 ISZERO PUSH2 0x76F JUMPI RETURNDATASIZE PUSH1 0x0 DUP1 RETURNDATACOPY RETURNDATASIZE PUSH1 0x0 REVERT JUMPDEST POP POP POP POP PUSH1 0x40 MLOAD RETURNDATASIZE PUSH1 0x1F NOT PUSH1 0x1F DUP3 ADD AND DUP3 ADD DUP1 PUSH1 0x40 MSTORE POP DUP2 ADD SWAP1 PUSH2 0x793 SWAP2 SWAP1 PUSH2 0x1A65 JUMP JUMPDEST SWAP1 POP PUSH1 0x12 DUP2 PUSH1 0xFF AND GT ISZERO PUSH2 0x7CE JUMPI PUSH1 0x40 MLOAD PUSH4 0xBED02205 PUSH1 0xE0 SHL DUP2 MSTORE PUSH1 0x1 PUSH1 0x1 PUSH1 0xA0 SHL SUB DUP5 AND PUSH1 0x4 DUP3 ADD MSTORE PUSH1 0xFF DUP3 AND PUSH1 0x24 DUP3 ADD MSTORE PUSH1 0x44 ADD PUSH2 0x4E4 JUMP JUMPDEST DUP2 PUSH1 0x1 PUSH1 0x1 PUSH1 0xA0 SHL SUB AND PUSH4 0xFEAF968C PUSH1 0x40 MLOAD DUP2 PUSH4 0xFFFFFFFF AND PUSH1 0xE0 SHL DUP2 MSTORE PUSH1 0x4 ADD PUSH1 0xA0 PUSH1 0x40 MLOAD DUP1 DUP4 SUB DUP2 DUP7 GAS STATICCALL SWAP3 POP POP POP DUP1 ISZERO PUSH2 0x828 JUMPI POP PUSH1 0x40 DUP1 MLOAD PUSH1 0x1F RETURNDATASIZE SWAP1 DUP2 ADD PUSH1 0x1F NOT AND DUP3 ADD SWAP1 SWAP3 MSTORE PUSH2 0x825 SWAP2 DUP2 ADD SWAP1 PUSH2 0x1AA2 JUMP JUMPDEST PUSH1 0x1 JUMPDEST PUSH2 0x850 JUMPI PUSH1 0x40 MLOAD PUSH4 0xC2B3D6A3 PUSH1 0xE0 SHL DUP2 MSTORE PUSH1 0x1 PUSH1 0x1 PUSH1 0xA0 SHL SUB DUP5 AND PUSH1 0x4 DUP3 ADD MSTORE PUSH1 0x24 ADD PUSH2 0x4E4 JUMP JUMPDEST PUSH1 0x0 DUP5 SGT ISZERO DUP1 PUSH2 0x85E JUMPI POP DUP2 ISZERO JUMPDEST ISZERO PUSH2 0x887 JUMPI PUSH1 0x40 MLOAD PUSH4 0xC2B3D6A3 PUSH1 0xE0 SHL DUP2 MSTORE PUSH1 0x1 PUSH1 0x1 PUSH1 0xA0 SHL SUB DUP10 AND PUSH1 0x4 DUP3 ADD MSTORE PUSH1 0x24 ADD PUSH2 0x4E4 JUMP JUMPDEST POP POP POP POP POP PUSH1 0x1 PUSH1 0x1 PUSH1 0xA0 SHL SUB DUP1 DUP6 AND PUSH1 0x0 DUP2 DUP2 MSTORE PUSH1 0x1 PUSH1 0x20 SWAP1 DUP2 MSTORE PUSH1 0x40 DUP1 DUP4 KECCAK256 DUP1 SLOAD SWAP6 DUP10 AND PUSH1 0x1 PUSH1 0x1 PUSH1 0xA0 SHL SUB NOT SWAP1 SWAP7 AND DUP7 OR SWAP1 SSTORE PUSH1 0x4 SWAP1 SWAP2 MSTORE DUP1 DUP3 KECCAK256 DUP1 SLOAD PUSH1 0xFF NOT AND SWAP1 SSTORE MLOAD PUSH32 0xB9B75140A682094A10720170347BC8E03BFD71F1BB59D103CD8DC0782C525683 SWAP2 SWAP1 LOG3 POP POP POP POP JUMP JUMPDEST PUSH2 0x900 PUSH2 0x136A JUMP JUMPDEST PUSH2 0x90A PUSH1 0x0 PUSH2 0x1397 JUMP JUMPDEST JUMP JUMPDEST PUSH2 0x914 PUSH2 0x136A JUMP JUMPDEST PUSH1 0x1 PUSH1 0x1 PUSH1 0xA0 SHL SUB DUP3 AND ISZERO DUP1 PUSH2 0x931 JUMPI POP PUSH1 0x1 PUSH1 0x1 PUSH1 0xA0 SHL SUB DUP2 AND ISZERO JUMPDEST ISZERO PUSH2 0x94F JUMPI PUSH1 0x40 MLOAD PUSH4 0x74B58FCF PUSH1 0xE0 SHL DUP2 MSTORE PUSH1 0x4 ADD PUSH2 0x4E4 SWAP1 PUSH2 0x1AF2 JUMP JUMPDEST DUP2 PUSH1 0x1 PUSH1 0x1 PUSH1 0xA0 SHL SUB AND PUSH4 0x38D52E0F PUSH1 0x40 MLOAD DUP2 PUSH4 0xFFFFFFFF AND PUSH1 0xE0 SHL DUP2 MSTORE PUSH1 0x4 ADD PUSH1 0x20 PUSH1 0x40 MLOAD DUP1 DUP4 SUB DUP2 DUP7 GAS STATICCALL SWAP3 POP POP POP DUP1 ISZERO PUSH2 0x9A9 JUMPI POP PUSH1 0x40 DUP1 MLOAD PUSH1 0x1F RETURNDATASIZE SWAP1 DUP2 ADD PUSH1 0x1F NOT AND DUP3 ADD SWAP1 SWAP3 MSTORE PUSH2 0x9A6 SWAP2 DUP2 ADD SWAP1 PUSH2 0x1B44 JUMP JUMPDEST PUSH1 0x1 JUMPDEST PUSH2 0x9ED JUMPI PUSH1 0x40 MLOAD PUSH3 0x461BCD PUSH1 0xE5 SHL DUP2 MSTORE PUSH1 0x20 PUSH1 0x4 DUP3 ADD MSTORE PUSH1 0x15 PUSH1 0x24 DUP3 ADD MSTORE PUSH21 0x125B9D985B1A5908115490CD0D8C8D881D985D5B1D PUSH1 0x5A SHL PUSH1 0x44 DUP3 ADD MSTORE PUSH1 0x64 ADD PUSH2 0x4E4 JUMP JUMPDEST POP PUSH1 0x1 PUSH1 0x1 PUSH1 0xA0 SHL SUB DUP3 DUP2 AND PUSH1 0x0 DUP2 DUP2 MSTORE PUSH1 0x2 PUSH1 0x20 MSTORE PUSH1 0x40 DUP1 DUP3 KECCAK256 DUP1 SLOAD PUSH1 0x1 PUSH1 0x1 PUSH1 0xA0 SHL SUB NOT AND SWAP5 DUP7 AND SWAP5 DUP6 OR SWAP1 SSTORE MLOAD PUSH32 0x456DB9889A9CF62250A0D96274761BE08BC928B1EA97A2B6E45D9DB8B575FA0C SWAP2 SWAP1 LOG3 POP POP JUMP JUMPDEST PUSH2 0xA4D PUSH2 0x136A JUMP JUMPDEST PUSH1 0x1 PUSH1 0x1 PUSH1 0xA0 SHL SUB DUP4 AND PUSH2 0xAC2 JUMPI PUSH1 0x40 DUP1 MLOAD PUSH4 0x74B58FCF PUSH1 0xE0 SHL DUP2 MSTORE PUSH1 0x4 DUP2 ADD SWAP2 SWAP1 SWAP2 MSTORE PUSH1 0x19 PUSH1 0x44 DUP3 ADD MSTORE PUSH32 0x4F7261636C653A7365745661756C7452617465426F756E647300000000000000 PUSH1 0x64 DUP3 ADD MSTORE PUSH1 0x80 PUSH1 0x24 DUP3 ADD MSTORE PUSH1 0x5 PUSH1 0x84 DUP3 ADD MSTORE PUSH5 0x1D985D5B1D PUSH1 0xDA SHL PUSH1 0xA4 DUP3 ADD MSTORE PUSH1 0xC4 ADD PUSH2 0x4E4 JUMP JUMPDEST DUP2 ISZERO DUP1 PUSH2 0xACF JUMPI POP DUP2 DUP2 GT ISZERO JUMPDEST DUP1 PUSH2 0xAE2 JUMPI POP PUSH9 0x56BC75E2D63100000 DUP2 GT JUMPDEST ISZERO PUSH2 0xB19 JUMPI PUSH1 0x40 MLOAD PUSH4 0xDCEED173 PUSH1 0xE0 SHL DUP2 MSTORE PUSH1 0x1 PUSH1 0x1 PUSH1 0xA0 SHL SUB DUP5 AND PUSH1 0x4 DUP3 ADD MSTORE PUSH1 0x24 DUP2 ADD DUP4 SWAP1 MSTORE PUSH1 0x44 DUP2 ADD DUP3 SWAP1 MSTORE PUSH1 0x64 ADD PUSH2 0x4E4 JUMP JUMPDEST PUSH1 0x40 DUP1 MLOAD DUP1 DUP3 ADD DUP3 MSTORE DUP4 DUP2 MSTORE PUSH1 0x20 DUP1 DUP3 ADD DUP5 DUP2 MSTORE PUSH1 0x1 PUSH1 0x1 PUSH1 0xA0 SHL SUB DUP8 AND PUSH1 0x0 DUP2 DUP2 MSTORE PUSH1 0x6 DUP5 MSTORE DUP6 SWAP1 KECCAK256 SWAP4 MLOAD DUP5 SSTORE SWAP1 MLOAD PUSH1 0x1 SWAP1 SWAP4 ADD SWAP3 SWAP1 SWAP3 SSTORE DUP3 MLOAD DUP6 DUP2 MSTORE SWAP1 DUP2 ADD DUP5 SWAP1 MSTORE SWAP1 SWAP2 PUSH32 0x97B96731E654217EB1034EA218D533D1B086CD0BA6BA8B09735EF3E70C4D5FD4 SWAP2 ADD JUMPDEST PUSH1 0x40 MLOAD DUP1 SWAP2 SUB SWAP1 LOG2 POP POP POP JUMP JUMPDEST PUSH2 0xB98 PUSH2 0x136A JUMP JUMPDEST PUSH2 0xE10 DUP2 LT DUP1 PUSH2 0xBA9 JUMPI POP PUSH2 0x2A30 DUP2 GT JUMPDEST ISZERO PUSH2 0xBCA JUMPI PUSH1 0x40 MLOAD PUSH4 0x1EE48E1 PUSH1 0xE7 SHL DUP2 MSTORE PUSH1 0x4 DUP2 ADD DUP3 SWAP1 MSTORE PUSH1 0x24 ADD PUSH2 0x4E4 JUMP JUMPDEST PUSH1 0x7 DUP2 SWAP1 SSTORE PUSH1 0x40 MLOAD DUP2 DUP2 MSTORE PUSH32 0x8E163815DACF2204AB589790672A86E421041804ACC4CB85A7CAEBAC33BE1B2B SWAP1 PUSH1 0x20 ADD PUSH2 0x655 JUMP JUMPDEST PUSH2 0xC07 PUSH2 0x136A JUMP JUMPDEST PUSH1 0x1 PUSH1 0x9 SLOAD PUSH1 0xFF AND PUSH1 0x1 DUP2 GT ISZERO PUSH2 0xC20 JUMPI PUSH2 0xC20 PUSH2 0x1836 JUMP JUMPDEST SUB PUSH2 0xC46 JUMPI PUSH1 0x40 MLOAD PUSH4 0x30BCB705 PUSH1 0xE2 SHL DUP2 MSTORE ADDRESS PUSH1 0x4 DUP3 ADD MSTORE TIMESTAMP PUSH1 0x24 DUP3 ADD MSTORE PUSH1 0x44 ADD PUSH2 0x4E4 JUMP JUMPDEST PUSH1 0x1 PUSH1 0x1 PUSH1 0xA0 SHL SUB DUP3 AND PUSH2 0xC6D JUMPI PUSH1 0x40 MLOAD PUSH4 0x74B58FCF PUSH1 0xE0 SHL DUP2 MSTORE PUSH1 0x4 ADD PUSH2 0x4E4 SWAP1 PUSH2 0x1B61 JUMP JUMPDEST PUSH5 0x2540BE400 DUP2 LT DUP1 PUSH2 0xC8C JUMPI POP PUSH13 0xC9F2C9CD04674EDEA40000000 DUP2 GT JUMPDEST ISZERO PUSH2 0xCBC JUMPI PUSH1 0x40 MLOAD PUSH4 0x8366D84D PUSH1 0xE0 SHL DUP2 MSTORE PUSH1 0x1 PUSH1 0x1 PUSH1 0xA0 SHL SUB DUP4 AND PUSH1 0x4 DUP3 ADD MSTORE PUSH1 0x24 DUP2 ADD DUP3 SWAP1 MSTORE PUSH1 0x44 ADD PUSH2 0x4E4 JUMP JUMPDEST PUSH1 0x1 PUSH1 0x1 PUSH1 0xA0 SHL SUB DUP3 AND PUSH1 0x0 SWAP1 DUP2 MSTORE PUSH1 0x5 PUSH1 0x20 SWAP1 DUP2 MSTORE PUSH1 0x40 SWAP2 DUP3 SWAP1 KECCAK256 DUP3 MLOAD DUP1 DUP5 ADD SWAP1 SWAP4 MSTORE DUP1 SLOAD DUP1 DUP5 MSTORE PUSH1 0x1 SWAP1 SWAP2 ADD SLOAD SWAP2 DUP4 ADD SWAP2 SWAP1 SWAP2 MSTORE ISZERO DUP1 ISZERO SWAP1 PUSH2 0xD10 JUMPI POP PUSH1 0x7 SLOAD PUSH1 0x20 DUP3 ADD MLOAD PUSH2 0xD0D SWAP1 TIMESTAMP PUSH2 0x196C JUMP JUMPDEST GT ISZERO JUMPDEST ISZERO PUSH2 0xDBF JUMPI PUSH1 0x0 PUSH8 0xDE0B6B3A7640000 PUSH2 0xD32 PUSH8 0x16345785D8A0000 DUP3 PUSH2 0x196C JUMP JUMPDEST DUP4 MLOAD PUSH2 0xD3E SWAP2 SWAP1 PUSH2 0x1B9F JUMP JUMPDEST PUSH2 0xD48 SWAP2 SWAP1 PUSH2 0x1BB6 JUMP JUMPDEST SWAP1 POP PUSH1 0x0 PUSH8 0xDE0B6B3A7640000 PUSH2 0xD67 PUSH8 0x16345785D8A0000 DUP3 PUSH2 0x1BD8 JUMP JUMPDEST DUP5 MLOAD PUSH2 0xD73 SWAP2 SWAP1 PUSH2 0x1B9F JUMP JUMPDEST PUSH2 0xD7D SWAP2 SWAP1 PUSH2 0x1BB6 JUMP JUMPDEST SWAP1 POP DUP2 DUP5 LT DUP1 PUSH2 0xD8C JUMPI POP DUP1 DUP5 GT JUMPDEST ISZERO PUSH2 0xDBC JUMPI PUSH1 0x40 MLOAD PUSH4 0x8366D84D PUSH1 0xE0 SHL DUP2 MSTORE PUSH1 0x1 PUSH1 0x1 PUSH1 0xA0 SHL SUB DUP7 AND PUSH1 0x4 DUP3 ADD MSTORE PUSH1 0x24 DUP2 ADD DUP6 SWAP1 MSTORE PUSH1 0x44 ADD PUSH2 0x4E4 JUMP JUMPDEST POP POP JUMPDEST PUSH1 0x1 PUSH1 0x1 PUSH1 0xA0 SHL SUB DUP4 AND PUSH1 0x0 DUP2 DUP2 MSTORE PUSH1 0x3 PUSH1 0x20 SWAP1 DUP2 MSTORE PUSH1 0x40 DUP1 DUP4 KECCAK256 DUP7 SWAP1 SSTORE PUSH1 0x4 DUP3 MSTORE DUP1 DUP4 KECCAK256 DUP1 SLOAD PUSH1 0xFF NOT AND PUSH1 0x1 SWAP1 DUP2 OR SWAP1 SWAP2 SSTORE DUP2 MLOAD DUP1 DUP4 ADD DUP4 MSTORE DUP8 DUP2 MSTORE TIMESTAMP DUP2 DUP6 ADD SWAP1 DUP2 MSTORE DUP7 DUP7 MSTORE PUSH1 0x5 DUP6 MSTORE SWAP5 DUP4 SWAP1 KECCAK256 SWAP1 MLOAD DUP2 SSTORE SWAP4 MLOAD SWAP4 ADD SWAP3 SWAP1 SWAP3 SSTORE SWAP1 MLOAD DUP5 DUP2 MSTORE PUSH32 0x469FF3A7ADA7A8C122E2729E7041DFDABFC5E8B26802FA04D7F00706149C4E24 SWAP2 ADD PUSH1 0x40 MLOAD DUP1 SWAP2 SUB SWAP1 LOG2 PUSH1 0x40 MLOAD PUSH1 0x1 DUP2 MSTORE PUSH1 0x1 PUSH1 0x1 PUSH1 0xA0 SHL SUB DUP5 AND SWAP1 PUSH32 0x782CBDE6CFD4FCC41B55A876A6A2983D09080438D1E4316B98042B68025A29A8 SWAP1 PUSH1 0x20 ADD PUSH1 0x40 MLOAD DUP1 SWAP2 SUB SWAP1 LOG2 PUSH1 0x40 DUP1 MLOAD DUP4 DUP2 MSTORE TIMESTAMP PUSH1 0x20 DUP3 ADD MSTORE PUSH1 0x1 PUSH1 0x1 PUSH1 0xA0 SHL SUB DUP6 AND SWAP2 PUSH32 0x895EFB821F241E50ACA7011C501989268B4E15748C700BF77D48FF447049888C SWAP2 ADD PUSH2 0xB83 JUMP JUMPDEST PUSH2 0xED1 PUSH2 0x136A JUMP JUMPDEST PUSH1 0x1 PUSH1 0x1 PUSH1 0xA0 SHL SUB DUP2 AND PUSH2 0xEF8 JUMPI PUSH1 0x40 MLOAD PUSH4 0x74B58FCF PUSH1 0xE0 SHL DUP2 MSTORE PUSH1 0x4 ADD PUSH2 0x4E4 SWAP1 PUSH2 0x1BEB JUMP JUMPDEST PUSH1 0x1 PUSH1 0x1 PUSH1 0xA0 SHL SUB DUP2 AND PUSH1 0x0 DUP2 DUP2 MSTORE PUSH1 0x4 PUSH1 0x20 SWAP1 DUP2 MSTORE PUSH1 0x40 DUP1 DUP4 KECCAK256 DUP1 SLOAD PUSH1 0xFF NOT AND SWAP1 SSTORE MLOAD SWAP2 DUP3 MSTORE PUSH32 0x782CBDE6CFD4FCC41B55A876A6A2983D09080438D1E4316B98042B68025A29A8 SWAP2 ADD PUSH1 0x40 MLOAD DUP1 SWAP2 SUB SWAP1 LOG2 POP JUMP JUMPDEST PUSH1 0x1 PUSH1 0x1 PUSH1 0xA0 SHL SUB DUP2 AND PUSH1 0x0 SWAP1 DUP2 MSTORE PUSH1 0x4 PUSH1 0x20 MSTORE PUSH1 0x40 DUP2 KECCAK256 SLOAD PUSH1 0xFF AND ISZERO PUSH2 0xF8A JUMPI POP PUSH1 0x1 PUSH1 0x1 PUSH1 0xA0 SHL SUB AND PUSH1 0x0 SWAP1 DUP2 MSTORE PUSH1 0x3 PUSH1 0x20 MSTORE PUSH1 0x40 SWAP1 KECCAK256 SLOAD SWAP1 JUMP JUMPDEST PUSH1 0x1 PUSH1 0x1 PUSH1 0xA0 SHL SUB DUP1 DUP4 AND PUSH1 0x0 SWAP1 DUP2 MSTORE PUSH1 0x2 PUSH1 0x20 MSTORE PUSH1 0x40 SWAP1 KECCAK256 SLOAD AND DUP1 ISZERO PUSH2 0xFB5 JUMPI PUSH2 0x448 DUP4 DUP3 PUSH2 0x13E7 JUMP JUMPDEST PUSH1 0x1 PUSH1 0x1 PUSH1 0xA0 SHL SUB DUP1 DUP5 AND PUSH1 0x0 SWAP1 DUP2 MSTORE PUSH1 0x1 PUSH1 0x20 MSTORE PUSH1 0x40 SWAP1 KECCAK256 SLOAD AND DUP1 PUSH2 0xFF9 JUMPI PUSH1 0x40 MLOAD PUSH4 0x2A4F499D PUSH1 0xE2 SHL DUP2 MSTORE PUSH1 0x1 PUSH1 0x1 PUSH1 0xA0 SHL SUB DUP6 AND PUSH1 0x4 DUP3 ADD MSTORE PUSH1 0x24 ADD PUSH2 0x4E4 JUMP JUMPDEST PUSH1 0x0 DUP1 PUSH1 0x1 SWAP1 POP DUP3 PUSH1 0x1 PUSH1 0x1 PUSH1 0xA0 SHL SUB AND PUSH4 0xFEAF968C PUSH1 0x40 MLOAD DUP2 PUSH4 0xFFFFFFFF AND PUSH1 0xE0 SHL DUP2 MSTORE PUSH1 0x4 ADD PUSH1 0xA0 PUSH1 0x40 MLOAD DUP1 DUP4 SUB DUP2 DUP7 GAS STATICCALL SWAP3 POP POP POP DUP1 ISZERO PUSH2 0x105A JUMPI POP PUSH1 0x40 DUP1 MLOAD PUSH1 0x1F RETURNDATASIZE SWAP1 DUP2 ADD PUSH1 0x1F NOT AND DUP3 ADD SWAP1 SWAP3 MSTORE PUSH2 0x1057 SWAP2 DUP2 ADD SWAP1 PUSH2 0x1AA2 JUMP JUMPDEST PUSH1 0x1 JUMPDEST PUSH2 0x1066 JUMPI POP PUSH1 0x0 PUSH2 0x118F JUMP JUMPDEST PUSH1 0x0 DUP5 SGT ISZERO DUP1 PUSH2 0x1074 JUMPI POP DUP2 ISZERO JUMPDEST DUP1 PUSH2 0x1089 JUMPI POP PUSH1 0x7 SLOAD PUSH2 0x1087 DUP4 TIMESTAMP PUSH2 0x196C JUMP JUMPDEST GT JUMPDEST ISZERO PUSH2 0x1097 JUMPI PUSH1 0x0 SWAP6 POP PUSH2 0x1189 JUMP JUMPDEST PUSH1 0x0 DUP9 PUSH1 0x1 PUSH1 0x1 PUSH1 0xA0 SHL SUB AND PUSH4 0x313CE567 PUSH1 0x40 MLOAD DUP2 PUSH4 0xFFFFFFFF AND PUSH1 0xE0 SHL DUP2 MSTORE PUSH1 0x4 ADD PUSH1 0x20 PUSH1 0x40 MLOAD DUP1 DUP4 SUB DUP2 DUP7 GAS STATICCALL ISZERO DUP1 ISZERO PUSH2 0x10D7 JUMPI RETURNDATASIZE PUSH1 0x0 DUP1 RETURNDATACOPY RETURNDATASIZE PUSH1 0x0 REVERT JUMPDEST POP POP POP POP PUSH1 0x40 MLOAD RETURNDATASIZE PUSH1 0x1F NOT PUSH1 0x1F DUP3 ADD AND DUP3 ADD DUP1 PUSH1 0x40 MSTORE POP DUP2 ADD SWAP1 PUSH2 0x10FB SWAP2 SWAP1 PUSH2 0x1A65 JUMP JUMPDEST SWAP1 POP DUP5 PUSH1 0x12 PUSH1 0xFF DUP4 AND EQ PUSH2 0x1159 JUMPI PUSH1 0x12 DUP3 PUSH1 0xFF AND LT PUSH2 0x1139 JUMPI PUSH2 0x111F PUSH1 0x12 DUP4 PUSH2 0x1C31 JUMP JUMPDEST PUSH2 0x112A SWAP1 PUSH1 0xA PUSH2 0x1D2E JUMP JUMPDEST PUSH2 0x1134 SWAP1 DUP3 PUSH2 0x1BB6 JUMP JUMPDEST PUSH2 0x115B JUMP JUMPDEST PUSH2 0x1144 DUP3 PUSH1 0x12 PUSH2 0x1C31 JUMP JUMPDEST PUSH2 0x114F SWAP1 PUSH1 0xA PUSH2 0x1D2E JUMP JUMPDEST PUSH2 0x1134 SWAP1 DUP3 PUSH2 0x1B9F JUMP JUMPDEST DUP1 JUMPDEST SWAP9 POP PUSH5 0x2540BE400 DUP10 LT DUP1 PUSH2 0x117C JUMPI POP PUSH13 0xC9F2C9CD04674EDEA40000000 DUP10 GT JUMPDEST ISZERO PUSH2 0x1186 JUMPI PUSH1 0x0 SWAP8 POP JUMPDEST POP POP JUMPDEST POP POP POP POP POP JUMPDEST DUP1 ISZERO PUSH2 0x119E JUMPI POP SWAP5 SWAP4 POP POP POP POP JUMP JUMPDEST PUSH1 0x1 PUSH1 0x1 PUSH1 0xA0 SHL SUB DUP7 AND PUSH1 0x0 SWAP1 DUP2 MSTORE PUSH1 0x5 PUSH1 0x20 SWAP1 DUP2 MSTORE PUSH1 0x40 DUP1 DUP4 KECCAK256 DUP2 MLOAD DUP1 DUP4 ADD SWAP1 SWAP3 MSTORE DUP1 SLOAD DUP1 DUP4 MSTORE PUSH1 0x1 SWAP1 SWAP2 ADD SLOAD SWAP3 DUP3 ADD SWAP3 SWAP1 SWAP3 MSTORE SWAP2 SUB PUSH2 0x11FD JUMPI PUSH1 0x40 MLOAD PUSH4 0x5A941819 PUSH1 0xE0 SHL DUP2 MSTORE PUSH1 0x1 PUSH1 0x1 PUSH1 0xA0 SHL SUB DUP9 AND PUSH1 0x4 DUP3 ADD MSTORE PUSH1 0x24 ADD PUSH2 0x4E4 JUMP JUMPDEST PUSH1 0x8 SLOAD PUSH1 0x20 DUP3 ADD MLOAD PUSH2 0x120F SWAP1 TIMESTAMP PUSH2 0x196C JUMP JUMPDEST GT ISZERO PUSH2 0x1239 JUMPI PUSH1 0x40 MLOAD PUSH4 0x4EBF1F0F PUSH1 0xE1 SHL DUP2 MSTORE PUSH1 0x1 PUSH1 0x1 PUSH1 0xA0 SHL SUB DUP9 AND PUSH1 0x4 DUP3 ADD MSTORE PUSH1 0x24 ADD PUSH2 0x4E4 JUMP JUMPDEST DUP1 MLOAD PUSH1 0x40 DUP1 MLOAD SWAP2 DUP3 MSTORE TIMESTAMP PUSH1 0x20 DUP4 ADD MSTORE PUSH1 0x60 SWAP1 DUP3 ADD DUP2 SWAP1 MSTORE PUSH1 0x11 SWAP1 DUP3 ADD MSTORE PUSH17 0x436861696E6C696E6B206661696C757265 PUSH1 0x78 SHL PUSH1 0x80 DUP3 ADD MSTORE PUSH1 0x1 PUSH1 0x1 PUSH1 0xA0 SHL SUB DUP9 AND SWAP1 PUSH32 0x1037657730DDBC445DBABA678E03C33D31F7AE7F523C4F5DE5F458EA5B837D39 SWAP1 PUSH1 0xA0 ADD PUSH1 0x40 MLOAD DUP1 SWAP2 SUB SWAP1 LOG2 MLOAD SWAP7 SWAP6 POP POP POP POP POP POP JUMP JUMPDEST PUSH1 0x0 PUSH1 0x1 PUSH1 0x9 SLOAD PUSH1 0xFF AND PUSH1 0x1 DUP2 GT ISZERO PUSH2 0x12CE JUMPI PUSH2 0x12CE PUSH2 0x1836 JUMP JUMPDEST SUB PUSH2 0x12F4 JUMPI PUSH1 0x40 MLOAD PUSH4 0x30BCB705 PUSH1 0xE2 SHL DUP2 MSTORE ADDRESS PUSH1 0x4 DUP3 ADD MSTORE TIMESTAMP PUSH1 0x24 DUP3 ADD MSTORE PUSH1 0x44 ADD PUSH2 0x4E4 JUMP JUMPDEST PUSH1 0x1 PUSH1 0x1 PUSH1 0xA0 SHL SUB DUP3 AND PUSH2 0x131B JUMPI PUSH1 0x40 MLOAD PUSH4 0x74B58FCF PUSH1 0xE0 SHL DUP2 MSTORE PUSH1 0x4 ADD PUSH2 0x4E4 SWAP1 PUSH2 0x1D3D JUMP JUMPDEST PUSH2 0x1324 DUP3 PUSH2 0x1730 JUMP JUMPDEST SWAP1 POP JUMPDEST SWAP2 SWAP1 POP JUMP JUMPDEST PUSH2 0x1334 PUSH2 0x136A JUMP JUMPDEST PUSH1 0x1 PUSH1 0x1 PUSH1 0xA0 SHL SUB DUP2 AND PUSH2 0x135E JUMPI PUSH1 0x40 MLOAD PUSH4 0x1E4FBDF7 PUSH1 0xE0 SHL DUP2 MSTORE PUSH1 0x0 PUSH1 0x4 DUP3 ADD MSTORE PUSH1 0x24 ADD PUSH2 0x4E4 JUMP JUMPDEST PUSH2 0x1367 DUP2 PUSH2 0x1397 JUMP JUMPDEST POP JUMP JUMPDEST PUSH1 0x0 SLOAD PUSH1 0x1 PUSH1 0x1 PUSH1 0xA0 SHL SUB AND CALLER EQ PUSH2 0x90A JUMPI PUSH1 0x40 MLOAD PUSH4 0x118CDAA7 PUSH1 0xE0 SHL DUP2 MSTORE CALLER PUSH1 0x4 DUP3 ADD MSTORE PUSH1 0x24 ADD PUSH2 0x4E4 JUMP JUMPDEST PUSH1 0x0 DUP1 SLOAD PUSH1 0x1 PUSH1 0x1 PUSH1 0xA0 SHL SUB DUP4 DUP2 AND PUSH1 0x1 PUSH1 0x1 PUSH1 0xA0 SHL SUB NOT DUP4 AND DUP2 OR DUP5 SSTORE PUSH1 0x40 MLOAD SWAP2 SWAP1 SWAP3 AND SWAP3 DUP4 SWAP2 PUSH32 0x8BE0079C531659141344CD1FD0A4F28419497F9722A3DAAFE3B4186F6B6457E0 SWAP2 SWAP1 LOG3 POP POP JUMP JUMPDEST PUSH1 0x0 PUSH1 0x1 PUSH1 0xA SLOAD LT PUSH2 0x140F JUMPI PUSH1 0x40 MLOAD PUSH4 0xE5DAFFD PUSH1 0xE1 SHL DUP2 MSTORE PUSH1 0x0 PUSH1 0x4 DUP3 ADD MSTORE PUSH1 0x24 ADD PUSH2 0x4E4 JUMP JUMPDEST PUSH1 0xA DUP1 SLOAD SWAP1 PUSH1 0x0 PUSH2 0x141F DUP4 PUSH2 0x1D83 JUMP JUMPDEST SWAP2 SWAP1 POP SSTORE POP PUSH1 0x0 DUP4 PUSH1 0x1 PUSH1 0x1 PUSH1 0xA0 SHL SUB AND PUSH4 0x313CE567 PUSH1 0x40 MLOAD DUP2 PUSH4 0xFFFFFFFF AND PUSH1 0xE0 SHL DUP2 MSTORE PUSH1 0x4 ADD PUSH1 0x20 PUSH1 0x40 MLOAD DUP1 DUP4 SUB DUP2 DUP7 GAS STATICCALL ISZERO DUP1 ISZERO PUSH2 0x1464 JUMPI RETURNDATASIZE PUSH1 0x0 DUP1 RETURNDATACOPY RETURNDATASIZE PUSH1 0x0 REVERT JUMPDEST POP POP POP POP PUSH1 0x40 MLOAD RETURNDATASIZE PUSH1 0x1F NOT PUSH1 0x1F DUP3 ADD AND DUP3 ADD DUP1 PUSH1 0x40 MSTORE POP DUP2 ADD SWAP1 PUSH2 0x1488 SWAP2 SWAP1 PUSH2 0x1A65 JUMP JUMPDEST SWAP1 POP PUSH1 0x0 DUP4 PUSH1 0x1 PUSH1 0x1 PUSH1 0xA0 SHL SUB AND PUSH4 0x313CE567 PUSH1 0x40 MLOAD DUP2 PUSH4 0xFFFFFFFF AND PUSH1 0xE0 SHL DUP2 MSTORE PUSH1 0x4 ADD PUSH1 0x20 PUSH1 0x40 MLOAD DUP1 DUP4 SUB DUP2 DUP7 GAS STATICCALL ISZERO DUP1 ISZERO PUSH2 0x14CA JUMPI RETURNDATASIZE PUSH1 0x0 DUP1 RETURNDATACOPY RETURNDATASIZE PUSH1 0x0 REVERT JUMPDEST POP POP POP POP PUSH1 0x40 MLOAD RETURNDATASIZE PUSH1 0x1F NOT PUSH1 0x1F DUP3 ADD AND DUP3 ADD DUP1 PUSH1 0x40 MSTORE POP DUP2 ADD SWAP1 PUSH2 0x14EE SWAP2 SWAP1 PUSH2 0x1A65 JUMP JUMPDEST SWAP1 POP PUSH1 0x0 PUSH2 0x14FD DUP4 PUSH1 0xA PUSH2 0x1D2E JUMP JUMPDEST PUSH1 0x40 MLOAD PUSH4 0x3D1689D PUSH1 0xE1 SHL DUP2 MSTORE PUSH1 0x4 DUP2 ADD DUP3 SWAP1 MSTORE SWAP1 SWAP2 POP PUSH1 0x0 SWAP1 PUSH1 0x1 PUSH1 0x1 PUSH1 0xA0 SHL SUB DUP9 AND SWAP1 PUSH4 0x7A2D13A SWAP1 PUSH1 0x24 ADD PUSH1 0x20 PUSH1 0x40 MLOAD DUP1 DUP4 SUB DUP2 DUP7 GAS STATICCALL ISZERO DUP1 ISZERO PUSH2 0x1548 JUMPI RETURNDATASIZE PUSH1 0x0 DUP1 RETURNDATACOPY RETURNDATASIZE PUSH1 0x0 REVERT JUMPDEST POP POP POP POP PUSH1 0x40 MLOAD RETURNDATASIZE PUSH1 0x1F NOT PUSH1 0x1F DUP3 ADD AND DUP3 ADD DUP1 PUSH1 0x40 MSTORE POP DUP2 ADD SWAP1 PUSH2 0x156C SWAP2 SWAP1 PUSH2 0x1D9C JUMP JUMPDEST SWAP1 POP DUP1 ISZERO DUP1 PUSH2 0x1589 JUMPI POP PUSH15 0xC097CE7BC90715B34B9F1000000000 DUP2 GT JUMPDEST ISZERO PUSH2 0x15B8 JUMPI PUSH1 0x40 MLOAD PUSH3 0x4DF749 PUSH1 0xE3 SHL DUP2 MSTORE PUSH1 0x1 PUSH1 0x1 PUSH1 0xA0 SHL SUB DUP9 AND PUSH1 0x4 DUP3 ADD MSTORE PUSH1 0x24 DUP2 ADD DUP3 SWAP1 MSTORE PUSH1 0x44 ADD PUSH2 0x4E4 JUMP JUMPDEST PUSH1 0x0 PUSH2 0x15C5 DUP5 PUSH1 0xA PUSH2 0x1D2E JUMP JUMPDEST PUSH2 0x15D7 PUSH8 0xDE0B6B3A7640000 DUP5 PUSH2 0x1B9F JUMP JUMPDEST PUSH2 0x15E1 SWAP2 SWAP1 PUSH2 0x1BB6 JUMP JUMPDEST SWAP1 POP PUSH1 0x0 PUSH2 0x15F0 DUP7 PUSH1 0xA PUSH2 0x1D2E JUMP JUMPDEST PUSH2 0x1602 PUSH8 0xDE0B6B3A7640000 DUP7 PUSH2 0x1B9F JUMP JUMPDEST PUSH2 0x160C SWAP2 SWAP1 PUSH2 0x1BB6 JUMP JUMPDEST SWAP1 POP PUSH1 0x0 DUP2 PUSH2 0x1623 PUSH8 0xDE0B6B3A7640000 DUP6 PUSH2 0x1B9F JUMP JUMPDEST PUSH2 0x162D SWAP2 SWAP1 PUSH2 0x1BB6 JUMP JUMPDEST PUSH1 0x1 PUSH1 0x1 PUSH1 0xA0 SHL SUB DUP12 AND PUSH1 0x0 SWAP1 DUP2 MSTORE PUSH1 0x6 PUSH1 0x20 SWAP1 DUP2 MSTORE PUSH1 0x40 DUP1 DUP4 KECCAK256 DUP2 MLOAD DUP1 DUP4 ADD SWAP1 SWAP3 MSTORE DUP1 SLOAD DUP1 DUP4 MSTORE PUSH1 0x1 SWAP1 SWAP2 ADD SLOAD SWAP3 DUP3 ADD SWAP3 SWAP1 SWAP3 MSTORE SWAP3 SWAP4 POP ISZERO PUSH2 0x1671 JUMPI DUP2 MLOAD PUSH2 0x167B JUMP JUMPDEST PUSH8 0x2C68AF0BB140000 JUMPDEST SWAP1 POP PUSH1 0x0 DUP3 PUSH1 0x20 ADD MLOAD PUSH1 0x0 EQ PUSH2 0x1695 JUMPI DUP3 PUSH1 0x20 ADD MLOAD PUSH2 0x169F JUMP JUMPDEST PUSH8 0x29A2241AF62C0000 JUMPDEST SWAP1 POP DUP1 DUP5 GT DUP1 PUSH2 0x16AE JUMPI POP DUP2 DUP5 LT JUMPDEST ISZERO PUSH2 0x16DE JUMPI PUSH1 0x40 MLOAD PUSH4 0xC55E83D3 PUSH1 0xE0 SHL DUP2 MSTORE PUSH1 0x1 PUSH1 0x1 PUSH1 0xA0 SHL SUB DUP15 AND PUSH1 0x4 DUP3 ADD MSTORE PUSH1 0x24 DUP2 ADD DUP6 SWAP1 MSTORE PUSH1 0x44 ADD PUSH2 0x4E4 JUMP JUMPDEST PUSH1 0x0 PUSH2 0x16E9 DUP14 PUSH2 0xF4D JUMP JUMPDEST SWAP1 POP PUSH8 0xDE0B6B3A7640000 PUSH2 0x16FE DUP7 DUP4 PUSH2 0x1B9F JUMP JUMPDEST PUSH2 0x1708 SWAP2 SWAP1 PUSH2 0x1BB6 JUMP JUMPDEST SWAP12 POP POP POP POP POP POP POP POP POP POP POP POP PUSH1 0xA DUP1 SLOAD SWAP1 PUSH1 0x0 PUSH2 0x1725 DUP4 PUSH2 0x1DB5 JUMP JUMPDEST SWAP2 SWAP1 POP SSTORE POP SWAP3 SWAP2 POP POP JUMP JUMPDEST PUSH1 0x0 PUSH2 0x173B DUP3 PUSH2 0xF4D JUMP JUMPDEST SWAP1 POP PUSH5 0x2540BE400 DUP2 LT DUP1 PUSH2 0x175C JUMPI POP PUSH13 0xC9F2C9CD04674EDEA40000000 DUP2 GT JUMPDEST ISZERO PUSH2 0x178C JUMPI PUSH1 0x40 MLOAD PUSH4 0x1B276093 PUSH1 0xE0 SHL DUP2 MSTORE PUSH1 0x1 PUSH1 0x1 PUSH1 0xA0 SHL SUB DUP4 AND PUSH1 0x4 DUP3 ADD MSTORE PUSH1 0x0 PUSH1 0x24 DUP3 ADD MSTORE PUSH1 0x44 ADD PUSH2 0x4E4 JUMP JUMPDEST PUSH1 0x40 DUP1 MLOAD DUP1 DUP3 ADD DUP3 MSTORE DUP3 DUP2 MSTORE TIMESTAMP PUSH1 0x20 DUP1 DUP4 ADD DUP3 DUP2 MSTORE PUSH1 0x1 PUSH1 0x1 PUSH1 0xA0 SHL SUB DUP8 AND PUSH1 0x0 DUP2 DUP2 MSTORE PUSH1 0x5 DUP5 MSTORE DUP7 SWAP1 KECCAK256 SWAP5 MLOAD DUP6 SSTORE SWAP1 MLOAD PUSH1 0x1 SWAP1 SWAP5 ADD SWAP4 SWAP1 SWAP4 SSTORE DUP4 MLOAD DUP6 DUP2 MSTORE SWAP1 DUP2 ADD SWAP2 SWAP1 SWAP2 MSTORE SWAP1 SWAP2 PUSH32 0x895EFB821F241E50ACA7011C501989268B4E15748C700BF77D48FF447049888C SWAP2 ADD PUSH1 0x40 MLOAD DUP1 SWAP2 SUB SWAP1 LOG2 SWAP2 SWAP1 POP JUMP JUMPDEST PUSH1 0x1 PUSH1 0x1 PUSH1 0xA0 SHL SUB DUP2 AND DUP2 EQ PUSH2 0x1367 JUMPI PUSH1 0x0 DUP1 REVERT JUMPDEST PUSH1 0x0 PUSH1 0x20 DUP3 DUP5 SUB SLT ISZERO PUSH2 0x182B JUMPI PUSH1 0x0 DUP1 REVERT JUMPDEST DUP2 CALLDATALOAD PUSH2 0x448 DUP2 PUSH2 0x1804 JUMP JUMPDEST PUSH4 0x4E487B71 PUSH1 0xE0 SHL PUSH1 0x0 MSTORE PUSH1 0x21 PUSH1 0x4 MSTORE PUSH1 0x24 PUSH1 0x0 REVERT JUMPDEST PUSH1 0x2 DUP2 LT PUSH2 0x186A JUMPI PUSH4 0x4E487B71 PUSH1 0xE0 SHL PUSH1 0x0 MSTORE PUSH1 0x21 PUSH1 0x4 MSTORE PUSH1 0x24 PUSH1 0x0 REVERT JUMPDEST SWAP1 MSTORE JUMP JUMPDEST PUSH1 0x20 DUP2 ADD PUSH2 0x187C DUP3 DUP5 PUSH2 0x184C JUMP JUMPDEST SWAP3 SWAP2 POP POP JUMP JUMPDEST PUSH1 0x0 PUSH1 0x20 DUP3 DUP5 SUB SLT ISZERO PUSH2 0x1894 JUMPI PUSH1 0x0 DUP1 REVERT JUMPDEST DUP2 CALLDATALOAD PUSH1 0x2 DUP2 LT PUSH2 0x448 JUMPI PUSH1 0x0 DUP1 REVERT JUMPDEST PUSH1 0x0 PUSH1 0x20 DUP3 DUP5 SUB SLT ISZERO PUSH2 0x18B5 JUMPI PUSH1 0x0 DUP1 REVERT JUMPDEST POP CALLDATALOAD SWAP2 SWAP1 POP JUMP JUMPDEST PUSH1 0x0 DUP1 PUSH1 0x40 DUP4 DUP6 SUB SLT ISZERO PUSH2 0x18CF JUMPI PUSH1 0x0 DUP1 REVERT JUMPDEST DUP3 CALLDATALOAD PUSH2 0x18DA DUP2 PUSH2 0x1804 JUMP JUMPDEST SWAP2 POP PUSH1 0x20 DUP4 ADD CALLDATALOAD PUSH2 0x18EA DUP2 PUSH2 0x1804 JUMP JUMPDEST DUP1 SWAP2 POP POP SWAP3 POP SWAP3 SWAP1 POP JUMP JUMPDEST PUSH1 0x0 DUP1 PUSH1 0x0 PUSH1 0x60 DUP5 DUP7 SUB SLT ISZERO PUSH2 0x190A JUMPI PUSH1 0x0 DUP1 REVERT JUMPDEST DUP4 CALLDATALOAD PUSH2 0x1915 DUP2 PUSH2 0x1804 JUMP JUMPDEST SWAP6 PUSH1 0x20 DUP6 ADD CALLDATALOAD SWAP6 POP PUSH1 0x40 SWAP1 SWAP5 ADD CALLDATALOAD SWAP4 SWAP3 POP POP POP JUMP JUMPDEST PUSH1 0x0 DUP1 PUSH1 0x40 DUP4 DUP6 SUB SLT ISZERO PUSH2 0x193D JUMPI PUSH1 0x0 DUP1 REVERT JUMPDEST DUP3 CALLDATALOAD PUSH2 0x1948 DUP2 PUSH2 0x1804 JUMP JUMPDEST SWAP5 PUSH1 0x20 SWAP4 SWAP1 SWAP4 ADD CALLDATALOAD SWAP4 POP POP POP JUMP JUMPDEST PUSH4 0x4E487B71 PUSH1 0xE0 SHL PUSH1 0x0 MSTORE PUSH1 0x11 PUSH1 0x4 MSTORE PUSH1 0x24 PUSH1 0x0 REVERT JUMPDEST DUP2 DUP2 SUB DUP2 DUP2 GT ISZERO PUSH2 0x187C JUMPI PUSH2 0x187C PUSH2 0x1956 JUMP JUMPDEST PUSH1 0x40 DUP2 ADD PUSH2 0x198D DUP3 DUP6 PUSH2 0x184C JUMP JUMPDEST PUSH2 0x448 PUSH1 0x20 DUP4 ADD DUP5 PUSH2 0x184C JUMP JUMPDEST PUSH1 0x5 DUP2 MSTORE PUSH5 0x3A37B5B2B7 PUSH1 0xD9 SHL PUSH1 0x20 DUP3 ADD MSTORE PUSH1 0x40 ADD SWAP1 JUMP JUMPDEST PUSH1 0x40 DUP2 MSTORE PUSH1 0xF PUSH1 0x40 DUP3 ADD MSTORE PUSH15 0x4F7261636C653A6765745072696365 PUSH1 0x88 SHL PUSH1 0x60 DUP3 ADD MSTORE PUSH1 0x80 PUSH1 0x20 DUP3 ADD MSTORE PUSH1 0x0 PUSH2 0x1324 PUSH1 0x80 DUP4 ADD PUSH2 0x199A JUMP JUMPDEST PUSH1 0x0 PUSH1 0x20 DUP3 DUP5 SUB SLT ISZERO PUSH2 0x19FC JUMPI PUSH1 0x0 DUP1 REVERT JUMPDEST DUP2 MLOAD DUP1 ISZERO ISZERO DUP2 EQ PUSH2 0x448 JUMPI PUSH1 0x0 DUP1 REVERT JUMPDEST PUSH1 0x40 DUP2 MSTORE PUSH1 0x17 PUSH1 0x40 DUP3 ADD MSTORE PUSH32 0x4F7261636C653A736574436861696E6C696E6B46656564000000000000000000 PUSH1 0x60 DUP3 ADD MSTORE PUSH1 0x80 PUSH1 0x20 DUP3 ADD MSTORE PUSH1 0x0 PUSH2 0x1324 PUSH1 0x80 DUP4 ADD PUSH1 0x5 DUP2 MSTORE PUSH5 0x1A5B9C1D5D PUSH1 0xDA SHL PUSH1 0x20 DUP3 ADD MSTORE PUSH1 0x40 ADD SWAP1 JUMP JUMPDEST PUSH1 0x0 PUSH1 0x20 DUP3 DUP5 SUB SLT ISZERO PUSH2 0x1A77 JUMPI PUSH1 0x0 DUP1 REVERT JUMPDEST DUP2 MLOAD PUSH1 0xFF DUP2 AND DUP2 EQ PUSH2 0x448 JUMPI PUSH1 0x0 DUP1 REVERT JUMPDEST DUP1 MLOAD PUSH10 0xFFFFFFFFFFFFFFFFFFFF DUP2 AND DUP2 EQ PUSH2 0x1327 JUMPI PUSH1 0x0 DUP1 REVERT JUMPDEST PUSH1 0x0 DUP1 PUSH1 0x0 DUP1 PUSH1 0x0 PUSH1 0xA0 DUP7 DUP9 SUB SLT ISZERO PUSH2 0x1ABA JUMPI PUSH1 0x0 DUP1 REVERT JUMPDEST PUSH2 0x1AC3 DUP7 PUSH2 0x1A88 JUMP JUMPDEST SWAP5 POP PUSH1 0x20 DUP7 ADD MLOAD SWAP4 POP PUSH1 0x40 DUP7 ADD MLOAD SWAP3 POP PUSH1 0x60 DUP7 ADD MLOAD SWAP2 POP PUSH2 0x1AE6 PUSH1 0x80 DUP8 ADD PUSH2 0x1A88 JUMP JUMPDEST SWAP1 POP SWAP3 SWAP6 POP SWAP3 SWAP6 SWAP1 SWAP4 POP JUMP JUMPDEST PUSH1 0x40 DUP2 MSTORE PUSH1 0x16 PUSH1 0x40 DUP3 ADD MSTORE PUSH22 0x13DC9858DB194E9CD95D115490CD0D8C8D95985D5B1D PUSH1 0x52 SHL PUSH1 0x60 DUP3 ADD MSTORE PUSH1 0x80 PUSH1 0x20 DUP3 ADD MSTORE PUSH1 0x0 PUSH2 0x1324 PUSH1 0x80 DUP4 ADD PUSH1 0x5 DUP2 MSTORE PUSH5 0x1A5B9C1D5D PUSH1 0xDA SHL PUSH1 0x20 DUP3 ADD MSTORE PUSH1 0x40 ADD SWAP1 JUMP JUMPDEST PUSH1 0x0 PUSH1 0x20 DUP3 DUP5 SUB SLT ISZERO PUSH2 0x1B56 JUMPI PUSH1 0x0 DUP1 REVERT JUMPDEST DUP2 MLOAD PUSH2 0x448 DUP2 PUSH2 0x1804 JUMP JUMPDEST PUSH1 0x40 DUP2 MSTORE PUSH1 0x15 PUSH1 0x40 DUP3 ADD MSTORE PUSH21 0x4F7261636C653A7365744D616E75616C5072696365 PUSH1 0x58 SHL PUSH1 0x60 DUP3 ADD MSTORE PUSH1 0x80 PUSH1 0x20 DUP3 ADD MSTORE PUSH1 0x0 PUSH2 0x1324 PUSH1 0x80 DUP4 ADD PUSH2 0x199A JUMP JUMPDEST DUP1 DUP3 MUL DUP2 ISZERO DUP3 DUP3 DIV DUP5 EQ OR PUSH2 0x187C JUMPI PUSH2 0x187C PUSH2 0x1956 JUMP JUMPDEST PUSH1 0x0 DUP3 PUSH2 0x1BD3 JUMPI PUSH4 0x4E487B71 PUSH1 0xE0 SHL PUSH1 0x0 MSTORE PUSH1 0x12 PUSH1 0x4 MSTORE PUSH1 0x24 PUSH1 0x0 REVERT JUMPDEST POP DIV SWAP1 JUMP JUMPDEST DUP1 DUP3 ADD DUP1 DUP3 GT ISZERO PUSH2 0x187C JUMPI PUSH2 0x187C PUSH2 0x1956 JUMP JUMPDEST PUSH1 0x40 DUP2 MSTORE PUSH1 0x19 PUSH1 0x40 DUP3 ADD MSTORE PUSH32 0x4F7261636C653A64697361626C654D616E75616C507269636500000000000000 PUSH1 0x60 DUP3 ADD MSTORE PUSH1 0x80 PUSH1 0x20 DUP3 ADD MSTORE PUSH1 0x0 PUSH2 0x1324 PUSH1 0x80 DUP4 ADD PUSH2 0x199A JUMP JUMPDEST PUSH1 0xFF DUP3 DUP2 AND DUP3 DUP3 AND SUB SWAP1 DUP2 GT ISZERO PUSH2 0x187C JUMPI PUSH2 0x187C PUSH2 0x1956 JUMP JUMPDEST PUSH1 0x1 DUP2 DUP2 JUMPDEST DUP1 DUP6 GT ISZERO PUSH2 0x1C85 JUMPI DUP2 PUSH1 0x0 NOT DIV DUP3 GT ISZERO PUSH2 0x1C6B JUMPI PUSH2 0x1C6B PUSH2 0x1956 JUMP JUMPDEST DUP1 DUP6 AND ISZERO PUSH2 0x1C78 JUMPI SWAP2 DUP2 MUL SWAP2 JUMPDEST SWAP4 DUP5 SHR SWAP4 SWAP1 DUP1 MUL SWAP1 PUSH2 0x1C4F JUMP JUMPDEST POP SWAP3 POP SWAP3 SWAP1 POP JUMP JUMPDEST PUSH1 0x0 DUP3 PUSH2 0x1C9C JUMPI POP PUSH1 0x1 PUSH2 0x187C JUMP JUMPDEST DUP2 PUSH2 0x1CA9 JUMPI POP PUSH1 0x0 PUSH2 0x187C JUMP JUMPDEST DUP2 PUSH1 0x1 DUP2 EQ PUSH2 0x1CBF JUMPI PUSH1 0x2 DUP2 EQ PUSH2 0x1CC9 JUMPI PUSH2 0x1CE5 JUMP JUMPDEST PUSH1 0x1 SWAP2 POP POP PUSH2 0x187C JUMP JUMPDEST PUSH1 0xFF DUP5 GT ISZERO PUSH2 0x1CDA JUMPI PUSH2 0x1CDA PUSH2 0x1956 JUMP JUMPDEST POP POP PUSH1 0x1 DUP3 SHL PUSH2 0x187C JUMP JUMPDEST POP PUSH1 0x20 DUP4 LT PUSH2 0x133 DUP4 LT AND PUSH1 0x4E DUP5 LT PUSH1 0xB DUP5 LT AND OR ISZERO PUSH2 0x1D08 JUMPI POP DUP2 DUP2 EXP PUSH2 0x187C JUMP JUMPDEST PUSH2 0x1D12 DUP4 DUP4 PUSH2 0x1C4A JUMP JUMPDEST DUP1 PUSH1 0x0 NOT DIV DUP3 GT ISZERO PUSH2 0x1D26 JUMPI PUSH2 0x1D26 PUSH2 0x1956 JUMP JUMPDEST MUL SWAP4 SWAP3 POP POP POP JUMP JUMPDEST PUSH1 0x0 PUSH2 0x448 PUSH1 0xFF DUP5 AND DUP4 PUSH2 0x1C8D JUMP JUMPDEST PUSH1 0x40 DUP2 MSTORE PUSH1 0x1A PUSH1 0x40 DUP3 ADD MSTORE PUSH32 0x4F7261636C653A6665746368416E645570646174655072696365000000000000 PUSH1 0x60 DUP3 ADD MSTORE PUSH1 0x80 PUSH1 0x20 DUP3 ADD MSTORE PUSH1 0x0 PUSH2 0x1324 PUSH1 0x80 DUP4 ADD PUSH2 0x199A JUMP JUMPDEST PUSH1 0x0 PUSH1 0x1 DUP3 ADD PUSH2 0x1D95 JUMPI PUSH2 0x1D95 PUSH2 0x1956 JUMP JUMPDEST POP PUSH1 0x1 ADD SWAP1 JUMP JUMPDEST PUSH1 0x0 PUSH1 0x20 DUP3 DUP5 SUB SLT ISZERO PUSH2 0x1DAE JUMPI PUSH1 0x0 DUP1 REVERT JUMPDEST POP MLOAD SWAP2 SWAP1 POP JUMP JUMPDEST PUSH1 0x0 DUP2 PUSH2 0x1DC4 JUMPI PUSH2 0x1DC4 PUSH2 0x1956 JUMP JUMPDEST POP PUSH1 0x0 NOT ADD SWAP1 JUMP INVALID LOG2 PUSH5 0x6970667358 0x22 SLT KECCAK256 PUSH19 0x52108EFE2C87BAD044D4C17E61B80FC7160898 MOD 0x23 SWAP11 0x4A 0xC8 0xBA 0xB5 SWAP7 0x2F PC SUB JUMP PUSH5 0x736F6C6343 STOP ADDMOD ISZERO STOP CALLER "},"methodIdentifiers":{"chainlinkFeeds(address)":"e8c16500","disableManualPrice(address)":"ced663b0","erc4626Underlying(address)":"d9793033","fallbackStalePeriod()":"260f9a8b","fetchAndUpdatePrice(address)":"ed06a12d","getPrice(address)":"41976e09","getPriceAge(address)":"48c87c51","isManual(address)":"0f5d559d","isPriceFresh(address)":"0af1a39f","lastValidPrice(address)":"7f33780a","manualPrices(address)":"f04c98ca","mode()":"295a5212","owner()":"8da5cb5b","renounceOwnership()":"715018a6","resolvePrice(address)":"cfa3d593","setChainlinkFeed(address,address)":"69ef32d2","setERC4626Vault(address,address)":"71e8023c","setFallbackStalePeriod(uint256)":"4316b5a2","setManualPrice(address,uint256)":"a95121b5","setOracleMode(uint8)":"3b82fdeb","setStalePeriod(uint256)":"a6f4ab2e","setVaultRateBounds(address,uint256,uint256)":"8fef24a3","stalePeriod()":"a5b36a36","transferOwnership(address)":"f2fde38b","vaultRateBounds(address)":"e310bd2a"}}}}}