{"contracts/constants/Constants.sol":{"Constants":{"abi":[{"inputs":[],"name":"DEFAULT_MAX_VAULT_RATE","outputs":[{"internalType":"uint256","name":"","type":"uint256"}],"stateMutability":"view","type":"function"},{"inputs":[],"name":"DEFAULT_MIN_VAULT_RATE","outputs":[{"internalType":"uint256","name":"","type":"uint256"}],"stateMutability":"view","type":"function"},{"inputs":[],"name":"MANUAL_PRICE_MAX_DELTA_WAD","outputs":[{"internalType":"uint256","name":"","type":"uint256"}],"stateMutability":"view","type":"function"},{"inputs":[],"name":"MAX_ABSOLUTE_PRICE","outputs":[{"internalType":"uint256","name":"","type":"uint256"}],"stateMutability":"view","type":"function"},{"inputs":[],"name":"MAX_RECURSION_DEPTH","outputs":[{"internalType":"uint256","name":"","type":"uint256"}],"stateMutability":"view","type":"function"},{"inputs":[],"name":"MIN_ABSOLUTE_PRICE","outputs":[{"internalType":"uint256","name":"","type":"uint256"}],"stateMutability":"view","type":"function"},{"inputs":[],"name":"ORACLE_DEFAULT_STALE_PERIOD","outputs":[{"internalType":"uint256","name":"","type":"uint256"}],"stateMutability":"view","type":"function"},{"inputs":[],"name":"WAD","outputs":[{"internalType":"uint256","name":"","type":"uint256"}],"stateMutability":"view","type":"function"}],"evm":{"bytecode":{"linkReferences":{},"object":"61014c61003a600b82828239805160001a60731461002d57634e487b7160e01b600052600060045260246000fd5b30600052607381538281f3fe73000000000000000000000000000000000000000030146080604052600436106100925760003560e01c806371aeb7a71161006557806371aeb7a7146100df578063b554e888146100f3578063d160ed4d14610102578063f537b1ba1461010a57600080fd5b80631bbfc7e814610097578063316ed52d146100b85780634e9331ef146100c75780636a146024146100d0575b600080fd5b6100a66729a2241af62c000081565b60405190815260200160405180910390f35b6100a66702c68af0bb14000081565b6100a6610e1081565b6100a6670de0b6b3a764000081565b6100a66c0c9f2c9cd04674edea4000000081565b6100a667016345785d8a000081565b6100a6600181565b6100a66402540be4008156fea2646970667358221220dc5a400d186a68ea34de65cde226f09d7a70321e882ff03d8d97704a7798522064736f6c63430008150033","opcodes":"PUSH2 0x14C PUSH2 0x3A PUSH1 0xB DUP3 DUP3 DUP3 CODECOPY DUP1 MLOAD PUSH1 0x0 BYTE PUSH1 0x73 EQ PUSH2 0x2D JUMPI PUSH4 0x4E487B71 PUSH1 0xE0 SHL PUSH1 0x0 MSTORE PUSH1 0x0 PUSH1 0x4 MSTORE PUSH1 0x24 PUSH1 0x0 REVERT JUMPDEST ADDRESS PUSH1 0x0 MSTORE PUSH1 0x73 DUP2 MSTORE8 DUP3 DUP2 RETURN INVALID PUSH20 0x0 ADDRESS EQ PUSH1 0x80 PUSH1 0x40 MSTORE PUSH1 0x4 CALLDATASIZE LT PUSH2 0x92 JUMPI PUSH1 0x0 CALLDATALOAD PUSH1 0xE0 SHR DUP1 PUSH4 0x71AEB7A7 GT PUSH2 0x65 JUMPI DUP1 PUSH4 0x71AEB7A7 EQ PUSH2 0xDF JUMPI DUP1 PUSH4 0xB554E888 EQ PUSH2 0xF3 JUMPI DUP1 PUSH4 0xD160ED4D EQ PUSH2 0x102 JUMPI DUP1 PUSH4 0xF537B1BA EQ PUSH2 0x10A JUMPI PUSH1 0x0 DUP1 REVERT JUMPDEST DUP1 PUSH4 0x1BBFC7E8 EQ PUSH2 0x97 JUMPI DUP1 PUSH4 0x316ED52D EQ PUSH2 0xB8 JUMPI DUP1 PUSH4 0x4E9331EF EQ PUSH2 0xC7 JUMPI DUP1 PUSH4 0x6A146024 EQ PUSH2 0xD0 JUMPI JUMPDEST PUSH1 0x0 DUP1 REVERT JUMPDEST PUSH2 0xA6 PUSH8 0x29A2241AF62C0000 DUP2 JUMP JUMPDEST PUSH1 0x40 MLOAD SWAP1 DUP2 MSTORE PUSH1 0x20 ADD PUSH1 0x40 MLOAD DUP1 SWAP2 SUB SWAP1 RETURN JUMPDEST PUSH2 0xA6 PUSH8 0x2C68AF0BB140000 DUP2 JUMP JUMPDEST PUSH2 0xA6 PUSH2 0xE10 DUP2 JUMP JUMPDEST PUSH2 0xA6 PUSH8 0xDE0B6B3A7640000 DUP2 JUMP JUMPDEST PUSH2 0xA6 PUSH13 0xC9F2C9CD04674EDEA40000000 DUP2 JUMP JUMPDEST PUSH2 0xA6 PUSH8 0x16345785D8A0000 DUP2 JUMP JUMPDEST PUSH2 0xA6 PUSH1 0x1 DUP2 JUMP JUMPDEST PUSH2 0xA6 PUSH5 0x2540BE400 DUP2 JUMP INVALID LOG2 PUSH5 0x6970667358 0x22 SLT KECCAK256 0xDC GAS BLOCKHASH 0xD XOR PUSH11 0x68EA34DE65CDE226F09D7A PUSH17 0x321E882FF03D8D97704A7798522064736F PUSH13 0x63430008150033000000000000 "},"methodIdentifiers":{"DEFAULT_MAX_VAULT_RATE()":"1bbfc7e8","DEFAULT_MIN_VAULT_RATE()":"316ed52d","MANUAL_PRICE_MAX_DELTA_WAD()":"b554e888","MAX_ABSOLUTE_PRICE()":"71aeb7a7","MAX_RECURSION_DEPTH()":"d160ed4d","MIN_ABSOLUTE_PRICE()":"f537b1ba","ORACLE_DEFAULT_STALE_PERIOD()":"4e9331ef","WAD()":"6a146024"}}}}}