{
  "_format": "hh-sol-artifact-1",
  "contractName": "MockAggregatorV3",
  "sourceName": "contracts/mocks/MockAggregatorV3.sol",
  "abi": [
    {
      "inputs": [
        {
          "internalType": "int256",
          "name": "_initialAnswer",
          "type": "int256"
        },
        {
          "internalType": "uint8",
          "name": "_decimals",
          "type": "uint8"
        }
      ],
      "stateMutability": "nonpayable",
      "type": "constructor"
    },
    {
      "inputs": [],
      "name": "decimals",
      "outputs": [
        {
          "internalType": "uint8",
          "name": "",
          "type": "uint8"
        }
      ],
      "stateMutability": "view",
      "type": "function"
    },
    {
      "inputs": [],
      "name": "description",
      "outputs": [
        {
          "internalType": "string",
          "name": "",
          "type": "string"
        }
      ],
      "stateMutability": "pure",
      "type": "function"
    },
    {
      "inputs": [
        {
          "internalType": "uint80",
          "name": "",
          "type": "uint80"
        }
      ],
      "name": "getRoundData",
      "outputs": [
        {
          "internalType": "uint80",
          "name": "",
          "type": "uint80"
        },
        {
          "internalType": "int256",
          "name": "",
          "type": "int256"
        },
        {
          "internalType": "uint256",
          "name": "",
          "type": "uint256"
        },
        {
          "internalType": "uint256",
          "name": "",
          "type": "uint256"
        },
        {
          "internalType": "uint80",
          "name": "",
          "type": "uint80"
        }
      ],
      "stateMutability": "view",
      "type": "function"
    },
    {
      "inputs": [],
      "name": "getUpdatedAt",
      "outputs": [
        {
          "internalType": "uint256",
          "name": "",
          "type": "uint256"
        }
      ],
      "stateMutability": "view",
      "type": "function"
    },
    {
      "inputs": [],
      "name": "latestRoundData",
      "outputs": [
        {
          "internalType": "uint80",
          "name": "roundId",
          "type": "uint80"
        },
        {
          "internalType": "int256",
          "name": "answer_",
          "type": "int256"
        },
        {
          "internalType": "uint256",
          "name": "startedAt",
          "type": "uint256"
        },
        {
          "internalType": "uint256",
          "name": "updatedAt",
          "type": "uint256"
        },
        {
          "internalType": "uint80",
          "name": "answeredInRound",
          "type": "uint80"
        }
      ],
      "stateMutability": "view",
      "type": "function"
    },
    {
      "inputs": [
        {
          "internalType": "uint256",
          "name": "_timestamp",
          "type": "uint256"
        }
      ],
      "name": "setUpdatedAt",
      "outputs": [],
      "stateMutability": "nonpayable",
      "type": "function"
    },
    {
      "inputs": [
        {
          "internalType": "int256",
          "name": "_newAnswer",
          "type": "int256"
        }
      ],
      "name": "updateAnswer",
      "outputs": [],
      "stateMutability": "nonpayable",
      "type": "function"
    },
    {
      "inputs": [],
      "name": "version",
      "outputs": [
        {
          "internalType": "uint256",
          "name": "",
          "type": "uint256"
        }
      ],
      "stateMutability": "pure",
      "type": "function"
    }
  ],
  "bytecode": "0x608060405234801561001057600080fd5b506040516102f63803806102f683398101604081905261002f91610051565b6000919091556001805460ff191660ff90921691909117905542600255610087565b6000806040838503121561006457600080fd5b82519150602083015160ff8116811461007c57600080fd5b809150509250929050565b610260806100966000396000f3fe608060405234801561001057600080fd5b50600436106100885760003560e01c80639a6fc8f51161005b5780639a6fc8f51461010c578063a87a20ce14610163578063e83558531461017a578063feaf968c1461018257600080fd5b80631ecc7d881461008d578063313ce567146100a257806354fd4d50146100bc5780637284e416146100cd575b600080fd5b6100a061009b366004610190565b600255565b005b60015460405160ff90911681526020015b60405180910390f35b60015b6040519081526020016100b3565b604080518082018252601981527f4d6f636b20436861696e6c696e6b2041676772656761746f7200000000000000602082015290516100b391906101a9565b61012c61011a3660046101f7565b60008054600254808391939590929450565b6040805169ffffffffffffffffffff968716815260208101959095528401929092526060830152909116608082015260a0016100b3565b6100a0610171366004610190565b60005542600255565b6002546100bf565b60008054600254808361012c565b6000602082840312156101a257600080fd5b5035919050565b600060208083528351808285015260005b818110156101d6578581018301518582016040015282016101ba565b506000604082860101526040601f19601f8301168501019250505092915050565b60006020828403121561020957600080fd5b813569ffffffffffffffffffff8116811461022357600080fd5b939250505056fea2646970667358221220115a264a22ff12ab3ddf24acb3c7d788668b62629db8fd8fd9ab36ca68d39bb364736f6c63430008150033",
  "linkReferences": {},
  "deployedLinkReferences": {}
}