{
  "_format": "hh-sol-artifact-1",
  "contractName": "Mock4626",
  "sourceName": "contracts/mocks/MockERC4626.sol",
  "abi": [
    {
      "inputs": [
        {
          "internalType": "string",
          "name": "name_",
          "type": "string"
        },
        {
          "internalType": "string",
          "name": "symbol_",
          "type": "string"
        },
        {
          "internalType": "uint8",
          "name": "decimals_",
          "type": "uint8"
        },
        {
          "internalType": "uint256",
          "name": "initialSupply",
          "type": "uint256"
        },
        {
          "internalType": "address",
          "name": "asset_",
          "type": "address"
        }
      ],
      "stateMutability": "nonpayable",
      "type": "constructor"
    },
    {
      "inputs": [
        {
          "internalType": "address",
          "name": "spender",
          "type": "address"
        },
        {
          "internalType": "uint256",
          "name": "allowance",
          "type": "uint256"
        },
        {
          "internalType": "uint256",
          "name": "needed",
          "type": "uint256"
        }
      ],
      "name": "ERC20InsufficientAllowance",
      "type": "error"
    },
    {
      "inputs": [
        {
          "internalType": "address",
          "name": "sender",
          "type": "address"
        },
        {
          "internalType": "uint256",
          "name": "balance",
          "type": "uint256"
        },
        {
          "internalType": "uint256",
          "name": "needed",
          "type": "uint256"
        }
      ],
      "name": "ERC20InsufficientBalance",
      "type": "error"
    },
    {
      "inputs": [
        {
          "internalType": "address",
          "name": "approver",
          "type": "address"
        }
      ],
      "name": "ERC20InvalidApprover",
      "type": "error"
    },
    {
      "inputs": [
        {
          "internalType": "address",
          "name": "receiver",
          "type": "address"
        }
      ],
      "name": "ERC20InvalidReceiver",
      "type": "error"
    },
    {
      "inputs": [
        {
          "internalType": "address",
          "name": "sender",
          "type": "address"
        }
      ],
      "name": "ERC20InvalidSender",
      "type": "error"
    },
    {
      "inputs": [
        {
          "internalType": "address",
          "name": "spender",
          "type": "address"
        }
      ],
      "name": "ERC20InvalidSpender",
      "type": "error"
    },
    {
      "anonymous": false,
      "inputs": [
        {
          "indexed": true,
          "internalType": "address",
          "name": "owner",
          "type": "address"
        },
        {
          "indexed": true,
          "internalType": "address",
          "name": "spender",
          "type": "address"
        },
        {
          "indexed": false,
          "internalType": "uint256",
          "name": "value",
          "type": "uint256"
        }
      ],
      "name": "Approval",
      "type": "event"
    },
    {
      "anonymous": false,
      "inputs": [
        {
          "indexed": true,
          "internalType": "address",
          "name": "from",
          "type": "address"
        },
        {
          "indexed": true,
          "internalType": "address",
          "name": "to",
          "type": "address"
        },
        {
          "indexed": false,
          "internalType": "uint256",
          "name": "value",
          "type": "uint256"
        }
      ],
      "name": "Transfer",
      "type": "event"
    },
    {
      "inputs": [
        {
          "internalType": "address",
          "name": "owner",
          "type": "address"
        },
        {
          "internalType": "address",
          "name": "spender",
          "type": "address"
        }
      ],
      "name": "allowance",
      "outputs": [
        {
          "internalType": "uint256",
          "name": "",
          "type": "uint256"
        }
      ],
      "stateMutability": "view",
      "type": "function"
    },
    {
      "inputs": [
        {
          "internalType": "address",
          "name": "spender",
          "type": "address"
        },
        {
          "internalType": "uint256",
          "name": "value",
          "type": "uint256"
        }
      ],
      "name": "approve",
      "outputs": [
        {
          "internalType": "bool",
          "name": "",
          "type": "bool"
        }
      ],
      "stateMutability": "nonpayable",
      "type": "function"
    },
    {
      "inputs": [],
      "name": "asset",
      "outputs": [
        {
          "internalType": "address",
          "name": "",
          "type": "address"
        }
      ],
      "stateMutability": "view",
      "type": "function"
    },
    {
      "inputs": [
        {
          "internalType": "address",
          "name": "account",
          "type": "address"
        }
      ],
      "name": "balanceOf",
      "outputs": [
        {
          "internalType": "uint256",
          "name": "",
          "type": "uint256"
        }
      ],
      "stateMutability": "view",
      "type": "function"
    },
    {
      "inputs": [
        {
          "internalType": "address",
          "name": "from",
          "type": "address"
        },
        {
          "internalType": "uint256",
          "name": "amount",
          "type": "uint256"
        }
      ],
      "name": "burn",
      "outputs": [],
      "stateMutability": "nonpayable",
      "type": "function"
    },
    {
      "inputs": [
        {
          "internalType": "uint256",
          "name": "shares",
          "type": "uint256"
        }
      ],
      "name": "convertToAssets",
      "outputs": [
        {
          "internalType": "uint256",
          "name": "",
          "type": "uint256"
        }
      ],
      "stateMutability": "view",
      "type": "function"
    },
    {
      "inputs": [
        {
          "internalType": "uint256",
          "name": "assets",
          "type": "uint256"
        }
      ],
      "name": "convertToShares",
      "outputs": [
        {
          "internalType": "uint256",
          "name": "",
          "type": "uint256"
        }
      ],
      "stateMutability": "view",
      "type": "function"
    },
    {
      "inputs": [],
      "name": "decimals",
      "outputs": [
        {
          "internalType": "uint8",
          "name": "",
          "type": "uint8"
        }
      ],
      "stateMutability": "view",
      "type": "function"
    },
    {
      "inputs": [
        {
          "internalType": "uint256",
          "name": "assets",
          "type": "uint256"
        },
        {
          "internalType": "address",
          "name": "receiver",
          "type": "address"
        }
      ],
      "name": "deposit",
      "outputs": [
        {
          "internalType": "uint256",
          "name": "shares",
          "type": "uint256"
        }
      ],
      "stateMutability": "nonpayable",
      "type": "function"
    },
    {
      "inputs": [],
      "name": "exchangeRate",
      "outputs": [
        {
          "internalType": "uint256",
          "name": "",
          "type": "uint256"
        }
      ],
      "stateMutability": "view",
      "type": "function"
    },
    {
      "inputs": [
        {
          "internalType": "address",
          "name": "to",
          "type": "address"
        },
        {
          "internalType": "uint256",
          "name": "amount",
          "type": "uint256"
        }
      ],
      "name": "mint",
      "outputs": [],
      "stateMutability": "nonpayable",
      "type": "function"
    },
    {
      "inputs": [],
      "name": "name",
      "outputs": [
        {
          "internalType": "string",
          "name": "",
          "type": "string"
        }
      ],
      "stateMutability": "view",
      "type": "function"
    },
    {
      "inputs": [
        {
          "internalType": "uint256",
          "name": "newRate",
          "type": "uint256"
        }
      ],
      "name": "setExchangeRate",
      "outputs": [],
      "stateMutability": "nonpayable",
      "type": "function"
    },
    {
      "inputs": [],
      "name": "symbol",
      "outputs": [
        {
          "internalType": "string",
          "name": "",
          "type": "string"
        }
      ],
      "stateMutability": "view",
      "type": "function"
    },
    {
      "inputs": [],
      "name": "totalSupply",
      "outputs": [
        {
          "internalType": "uint256",
          "name": "",
          "type": "uint256"
        }
      ],
      "stateMutability": "view",
      "type": "function"
    },
    {
      "inputs": [
        {
          "internalType": "address",
          "name": "to",
          "type": "address"
        },
        {
          "internalType": "uint256",
          "name": "value",
          "type": "uint256"
        }
      ],
      "name": "transfer",
      "outputs": [
        {
          "internalType": "bool",
          "name": "",
          "type": "bool"
        }
      ],
      "stateMutability": "nonpayable",
      "type": "function"
    },
    {
      "inputs": [
        {
          "internalType": "address",
          "name": "from",
          "type": "address"
        },
        {
          "internalType": "address",
          "name": "to",
          "type": "address"
        },
        {
          "internalType": "uint256",
          "name": "value",
          "type": "uint256"
        }
      ],
      "name": "transferFrom",
      "outputs": [
        {
          "internalType": "bool",
          "name": "",
          "type": "bool"
        }
      ],
      "stateMutability": "nonpayable",
      "type": "function"
    }
  ],
  "bytecode": "0x60c0604052670de0b6b3a76400006005553480156200001d57600080fd5b50604051620012ba380380620012ba833981016040819052620000409162000362565b84848484838360036200005483826200049a565b5060046200006382826200049a565b50505060ff821660805262000079338262000111565b5050600680546001600160a01b0319166001600160a01b0385169081179091556040805163313ce56760e01b8152905191935063313ce56792506004808201926020929091908290030181865afa158015620000d9573d6000803e3d6000fd5b505050506040513d601f19601f82011682018060405250810190620000ff919062000566565b60ff1660a05250620005b39350505050565b6001600160a01b038216620001415760405163ec442f0560e01b8152600060048201526024015b60405180910390fd5b6200014f6000838362000153565b5050565b6001600160a01b038316620001825780600260008282546200017691906200058b565b90915550620001f69050565b6001600160a01b03831660009081526020819052604090205481811015620001d75760405163391434e360e21b81526001600160a01b0385166004820152602481018290526044810183905260640162000138565b6001600160a01b03841660009081526020819052604090209082900390555b6001600160a01b038216620002145760028054829003905562000233565b6001600160a01b03821660009081526020819052604090208054820190555b816001600160a01b0316836001600160a01b03167fddf252ad1be2c89b69c2b068fc378daa952ba7f163c4a11628f55a4df523b3ef836040516200027991815260200190565b60405180910390a3505050565b634e487b7160e01b600052604160045260246000fd5b600082601f830112620002ae57600080fd5b81516001600160401b0380821115620002cb57620002cb62000286565b604051601f8301601f19908116603f01168101908282118183101715620002f657620002f662000286565b816040528381526020925086838588010111156200031357600080fd5b600091505b8382101562000337578582018301518183018401529082019062000318565b600093810190920192909252949350505050565b805160ff811681146200035d57600080fd5b919050565b600080600080600060a086880312156200037b57600080fd5b85516001600160401b03808211156200039357600080fd5b620003a189838a016200029c565b96506020880151915080821115620003b857600080fd5b50620003c7888289016200029c565b945050620003d8604087016200034b565b6060870151608088015191945092506001600160a01b0381168114620003fd57600080fd5b809150509295509295909350565b600181811c908216806200042057607f821691505b6020821081036200044157634e487b7160e01b600052602260045260246000fd5b50919050565b601f8211156200049557600081815260208120601f850160051c81016020861015620004705750805b601f850160051c820191505b8181101562000491578281556001016200047c565b5050505b505050565b81516001600160401b03811115620004b657620004b662000286565b620004ce81620004c784546200040b565b8462000447565b602080601f831160018114620005065760008415620004ed5750858301515b600019600386901b1c1916600185901b17855562000491565b600085815260208120601f198616915b82811015620005375788860151825594840194600190910190840162000516565b5085821015620005565787850151600019600388901b60f8161c191681555b5050505050600190811b01905550565b6000602082840312156200057957600080fd5b62000584826200034b565b9392505050565b80820180821115620005ad57634e487b7160e01b600052601160045260246000fd5b92915050565b60805160a051610ccc620005ee6000396000818161038601526105b301526000818161019401528181610356015261058e0152610ccc6000f3fe608060405234801561001057600080fd5b506004361061010b5760003560e01c806340c10f19116100a25780639dc29fac116100715780639dc29fac1461023b578063a9059cbb1461024e578063c6e6f59214610261578063db068e0e14610274578063dd62ed3e1461028757600080fd5b806340c10f19146101e25780636e553f65146101f757806370a082311461020a57806395d89b411461023357600080fd5b806323b872dd116100de57806323b872dd1461017a578063313ce5671461018d57806338d52e0f146101be5780633ba0b9a9146101d957600080fd5b806306fdde031461011057806307a2d13a1461012e578063095ea7b31461014f57806318160ddd14610172575b600080fd5b6101186102c0565b604051610125919061096b565b60405180910390f35b61014161013c3660046109b9565b610352565b604051908152602001610125565b61016261015d3660046109ee565b6103eb565b6040519015158152602001610125565b600254610141565b610162610188366004610a18565b610405565b60405160ff7f0000000000000000000000000000000000000000000000000000000000000000168152602001610125565b6006546040516001600160a01b039091168152602001610125565b61014160055481565b6101f56101f03660046109ee565b610429565b005b610141610205366004610a54565b610437565b610141610218366004610a80565b6001600160a01b031660009081526020819052604090205490565b610118610563565b6101f56102493660046109ee565b610572565b61016261025c3660046109ee565b61057c565b61014161026f3660046109b9565b61058a565b6101f56102823660046109b9565b600555565b610141610295366004610aa2565b6001600160a01b03918216600090815260016020908152604080832093909416825291909152205490565b6060600380546102cf90610acc565b80601f01602080910402602001604051908101604052809291908181526020018280546102fb90610acc565b80156103485780601f1061031d57610100808354040283529160200191610348565b820191906000526020600020905b81548152906001019060200180831161032b57829003601f168201915b5050505050905090565b60007f00000000000000000000000000000000000000000000000000000000000000008161038182600a610c00565b6103ac7f0000000000000000000000000000000000000000000000000000000000000000600a610c00565b6103b69086610c0f565b6103c09190610c26565b9050670de0b6b3a7640000600554826103d99190610c0f565b6103e39190610c26565b949350505050565b6000336103f9818585610610565b60019150505b92915050565b600033610413858285610622565b61041e8585856106a1565b506001949350505050565b6104338282610700565b5050565b600080831161047c5760405162461bcd60e51b815260206004820152600c60248201526b16995c9bc819195c1bdcda5d60a21b60448201526064015b60405180910390fd5b6040516363737ac960e11b815260048101849052309063c6e6f59290602401602060405180830381865afa1580156104b8573d6000803e3d6000fd5b505050506040513d601f19601f820116820180604052508101906104dc9190610c48565b6006546040516323b872dd60e01b8152336004820152306024820152604481018690529192506001600160a01b0316906323b872dd906064016020604051808303816000875af1158015610534573d6000803e3d6000fd5b505050506040513d601f19601f820116820180604052508101906105589190610c61565b506103ff8282610700565b6060600480546102cf90610acc565b6104338282610736565b6000336103f98185856106a1565b60007f0000000000000000000000000000000000000000000000000000000000000000816105d97f0000000000000000000000000000000000000000000000000000000000000000600a610c00565b6105e483600a610c00565b6105ee9086610c0f565b6105f89190610c26565b6005549091506103d982670de0b6b3a7640000610c0f565b61061d838383600161076c565b505050565b6001600160a01b0383811660009081526001602090815260408083209386168352929052205460001981101561069b578181101561068c57604051637dc7a0d960e11b81526001600160a01b03841660048201526024810182905260448101839052606401610473565b61069b8484848403600061076c565b50505050565b6001600160a01b0383166106cb57604051634b637e8f60e11b815260006004820152602401610473565b6001600160a01b0382166106f55760405163ec442f0560e01b815260006004820152602401610473565b61061d838383610841565b6001600160a01b03821661072a5760405163ec442f0560e01b815260006004820152602401610473565b61043360008383610841565b6001600160a01b03821661076057604051634b637e8f60e11b815260006004820152602401610473565b61043382600083610841565b6001600160a01b0384166107965760405163e602df0560e01b815260006004820152602401610473565b6001600160a01b0383166107c057604051634a1406b160e11b815260006004820152602401610473565b6001600160a01b038085166000908152600160209081526040808320938716835292905220829055801561069b57826001600160a01b0316846001600160a01b03167f8c5be1e5ebec7d5bd14f71427d1e84f3dd0314c0f7b2291e5b200ac8c7c3b9258460405161083391815260200190565b60405180910390a350505050565b6001600160a01b03831661086c5780600260008282546108619190610c83565b909155506108de9050565b6001600160a01b038316600090815260208190526040902054818110156108bf5760405163391434e360e21b81526001600160a01b03851660048201526024810182905260448101839052606401610473565b6001600160a01b03841660009081526020819052604090209082900390555b6001600160a01b0382166108fa57600280548290039055610919565b6001600160a01b03821660009081526020819052604090208054820190555b816001600160a01b0316836001600160a01b03167fddf252ad1be2c89b69c2b068fc378daa952ba7f163c4a11628f55a4df523b3ef8360405161095e91815260200190565b60405180910390a3505050565b600060208083528351808285015260005b818110156109985785810183015185820160400152820161097c565b506000604082860101526040601f19601f8301168501019250505092915050565b6000602082840312156109cb57600080fd5b5035919050565b80356001600160a01b03811681146109e957600080fd5b919050565b60008060408385031215610a0157600080fd5b610a0a836109d2565b946020939093013593505050565b600080600060608486031215610a2d57600080fd5b610a36846109d2565b9250610a44602085016109d2565b9150604084013590509250925092565b60008060408385031215610a6757600080fd5b82359150610a77602084016109d2565b90509250929050565b600060208284031215610a9257600080fd5b610a9b826109d2565b9392505050565b60008060408385031215610ab557600080fd5b610abe836109d2565b9150610a77602084016109d2565b600181811c90821680610ae057607f821691505b602082108103610b0057634e487b7160e01b600052602260045260246000fd5b50919050565b634e487b7160e01b600052601160045260246000fd5b600181815b80851115610b57578160001904821115610b3d57610b3d610b06565b80851615610b4a57918102915b93841c9390800290610b21565b509250929050565b600082610b6e575060016103ff565b81610b7b575060006103ff565b8160018114610b915760028114610b9b57610bb7565b60019150506103ff565b60ff841115610bac57610bac610b06565b50506001821b6103ff565b5060208310610133831016604e8410600b8410161715610bda575081810a6103ff565b610be48383610b1c565b8060001904821115610bf857610bf8610b06565b029392505050565b6000610a9b60ff841683610b5f565b80820281158282048414176103ff576103ff610b06565b600082610c4357634e487b7160e01b600052601260045260246000fd5b500490565b600060208284031215610c5a57600080fd5b5051919050565b600060208284031215610c7357600080fd5b81518015158114610a9b57600080fd5b808201808211156103ff576103ff610b0656fea2646970667358221220e6efae250830eccc011ec9127f64b3f2abd187a7bad65c1da4b9595186d835d464736f6c63430008150033",
  "linkReferences": {},
  "deployedLinkReferences": {}
}