{
  "_format": "hh-sol-artifact-1",
  "contractName": "Mock4626",
  "sourceName": "contracts/mocks/MockERC4626.sol",
  "abi": [
    {
      "inputs": [
        {
          "internalType": "string",
          "name": "name_",
          "type": "string"
        },
        {
          "internalType": "string",
          "name": "symbol_",
          "type": "string"
        },
        {
          "internalType": "uint8",
          "name": "decimals_",
          "type": "uint8"
        },
        {
          "internalType": "uint256",
          "name": "initialSupply",
          "type": "uint256"
        },
        {
          "internalType": "address",
          "name": "asset_",
          "type": "address"
        }
      ],
      "stateMutability": "nonpayable",
      "type": "constructor"
    },
    {
      "inputs": [
        {
          "internalType": "address",
          "name": "spender",
          "type": "address"
        },
        {
          "internalType": "uint256",
          "name": "allowance",
          "type": "uint256"
        },
        {
          "internalType": "uint256",
          "name": "needed",
          "type": "uint256"
        }
      ],
      "name": "ERC20InsufficientAllowance",
      "type": "error"
    },
    {
      "inputs": [
        {
          "internalType": "address",
          "name": "sender",
          "type": "address"
        },
        {
          "internalType": "uint256",
          "name": "balance",
          "type": "uint256"
        },
        {
          "internalType": "uint256",
          "name": "needed",
          "type": "uint256"
        }
      ],
      "name": "ERC20InsufficientBalance",
      "type": "error"
    },
    {
      "inputs": [
        {
          "internalType": "address",
          "name": "approver",
          "type": "address"
        }
      ],
      "name": "ERC20InvalidApprover",
      "type": "error"
    },
    {
      "inputs": [
        {
          "internalType": "address",
          "name": "receiver",
          "type": "address"
        }
      ],
      "name": "ERC20InvalidReceiver",
      "type": "error"
    },
    {
      "inputs": [
        {
          "internalType": "address",
          "name": "sender",
          "type": "address"
        }
      ],
      "name": "ERC20InvalidSender",
      "type": "error"
    },
    {
      "inputs": [
        {
          "internalType": "address",
          "name": "spender",
          "type": "address"
        }
      ],
      "name": "ERC20InvalidSpender",
      "type": "error"
    },
    {
      "anonymous": false,
      "inputs": [
        {
          "indexed": true,
          "internalType": "address",
          "name": "owner",
          "type": "address"
        },
        {
          "indexed": true,
          "internalType": "address",
          "name": "spender",
          "type": "address"
        },
        {
          "indexed": false,
          "internalType": "uint256",
          "name": "value",
          "type": "uint256"
        }
      ],
      "name": "Approval",
      "type": "event"
    },
    {
      "anonymous": false,
      "inputs": [
        {
          "indexed": true,
          "internalType": "address",
          "name": "from",
          "type": "address"
        },
        {
          "indexed": true,
          "internalType": "address",
          "name": "to",
          "type": "address"
        },
        {
          "indexed": false,
          "internalType": "uint256",
          "name": "value",
          "type": "uint256"
        }
      ],
      "name": "Transfer",
      "type": "event"
    },
    {
      "inputs": [
        {
          "internalType": "address",
          "name": "owner",
          "type": "address"
        },
        {
          "internalType": "address",
          "name": "spender",
          "type": "address"
        }
      ],
      "name": "allowance",
      "outputs": [
        {
          "internalType": "uint256",
          "name": "",
          "type": "uint256"
        }
      ],
      "stateMutability": "view",
      "type": "function"
    },
    {
      "inputs": [
        {
          "internalType": "address",
          "name": "spender",
          "type": "address"
        },
        {
          "internalType": "uint256",
          "name": "value",
          "type": "uint256"
        }
      ],
      "name": "approve",
      "outputs": [
        {
          "internalType": "bool",
          "name": "",
          "type": "bool"
        }
      ],
      "stateMutability": "nonpayable",
      "type": "function"
    },
    {
      "inputs": [],
      "name": "asset",
      "outputs": [
        {
          "internalType": "address",
          "name": "",
          "type": "address"
        }
      ],
      "stateMutability": "view",
      "type": "function"
    },
    {
      "inputs": [
        {
          "internalType": "address",
          "name": "account",
          "type": "address"
        }
      ],
      "name": "balanceOf",
      "outputs": [
        {
          "internalType": "uint256",
          "name": "",
          "type": "uint256"
        }
      ],
      "stateMutability": "view",
      "type": "function"
    },
    {
      "inputs": [
        {
          "internalType": "address",
          "name": "from",
          "type": "address"
        },
        {
          "internalType": "uint256",
          "name": "amount",
          "type": "uint256"
        }
      ],
      "name": "burn",
      "outputs": [],
      "stateMutability": "nonpayable",
      "type": "function"
    },
    {
      "inputs": [
        {
          "internalType": "uint256",
          "name": "shares",
          "type": "uint256"
        }
      ],
      "name": "convertToAssets",
      "outputs": [
        {
          "internalType": "uint256",
          "name": "",
          "type": "uint256"
        }
      ],
      "stateMutability": "view",
      "type": "function"
    },
    {
      "inputs": [
        {
          "internalType": "uint256",
          "name": "assets",
          "type": "uint256"
        }
      ],
      "name": "convertToShares",
      "outputs": [
        {
          "internalType": "uint256",
          "name": "",
          "type": "uint256"
        }
      ],
      "stateMutability": "view",
      "type": "function"
    },
    {
      "inputs": [],
      "name": "decimals",
      "outputs": [
        {
          "internalType": "uint8",
          "name": "",
          "type": "uint8"
        }
      ],
      "stateMutability": "view",
      "type": "function"
    },
    {
      "inputs": [
        {
          "internalType": "uint256",
          "name": "assets",
          "type": "uint256"
        },
        {
          "internalType": "address",
          "name": "receiver",
          "type": "address"
        }
      ],
      "name": "deposit",
      "outputs": [
        {
          "internalType": "uint256",
          "name": "shares",
          "type": "uint256"
        }
      ],
      "stateMutability": "nonpayable",
      "type": "function"
    },
    {
      "inputs": [],
      "name": "exchangeRate",
      "outputs": [
        {
          "internalType": "uint256",
          "name": "",
          "type": "uint256"
        }
      ],
      "stateMutability": "view",
      "type": "function"
    },
    {
      "inputs": [],
      "name": "getExchangeRate",
      "outputs": [
        {
          "internalType": "uint256",
          "name": "",
          "type": "uint256"
        }
      ],
      "stateMutability": "view",
      "type": "function"
    },
    {
      "inputs": [
        {
          "internalType": "address",
          "name": "to",
          "type": "address"
        },
        {
          "internalType": "uint256",
          "name": "amount",
          "type": "uint256"
        }
      ],
      "name": "mint",
      "outputs": [],
      "stateMutability": "nonpayable",
      "type": "function"
    },
    {
      "inputs": [],
      "name": "name",
      "outputs": [
        {
          "internalType": "string",
          "name": "",
          "type": "string"
        }
      ],
      "stateMutability": "view",
      "type": "function"
    },
    {
      "inputs": [
        {
          "internalType": "uint256",
          "name": "newRate",
          "type": "uint256"
        }
      ],
      "name": "setExchangeRate",
      "outputs": [],
      "stateMutability": "nonpayable",
      "type": "function"
    },
    {
      "inputs": [],
      "name": "symbol",
      "outputs": [
        {
          "internalType": "string",
          "name": "",
          "type": "string"
        }
      ],
      "stateMutability": "view",
      "type": "function"
    },
    {
      "inputs": [],
      "name": "totalSupply",
      "outputs": [
        {
          "internalType": "uint256",
          "name": "",
          "type": "uint256"
        }
      ],
      "stateMutability": "view",
      "type": "function"
    },
    {
      "inputs": [
        {
          "internalType": "address",
          "name": "to",
          "type": "address"
        },
        {
          "internalType": "uint256",
          "name": "value",
          "type": "uint256"
        }
      ],
      "name": "transfer",
      "outputs": [
        {
          "internalType": "bool",
          "name": "",
          "type": "bool"
        }
      ],
      "stateMutability": "nonpayable",
      "type": "function"
    },
    {
      "inputs": [
        {
          "internalType": "address",
          "name": "from",
          "type": "address"
        },
        {
          "internalType": "address",
          "name": "to",
          "type": "address"
        },
        {
          "internalType": "uint256",
          "name": "value",
          "type": "uint256"
        }
      ],
      "name": "transferFrom",
      "outputs": [
        {
          "internalType": "bool",
          "name": "",
          "type": "bool"
        }
      ],
      "stateMutability": "nonpayable",
      "type": "function"
    }
  ],
  "bytecode": "0x60c0604052670de0b6b3a76400006005553480156200001d57600080fd5b50604051620012cd380380620012cd833981016040819052620000409162000362565b84848484838360036200005483826200049a565b5060046200006382826200049a565b50505060ff821660805262000079338262000111565b5050600680546001600160a01b0319166001600160a01b0385169081179091556040805163313ce56760e01b8152905191935063313ce56792506004808201926020929091908290030181865afa158015620000d9573d6000803e3d6000fd5b505050506040513d601f19601f82011682018060405250810190620000ff919062000566565b60ff1660a05250620005b39350505050565b6001600160a01b038216620001415760405163ec442f0560e01b8152600060048201526024015b60405180910390fd5b6200014f6000838362000153565b5050565b6001600160a01b038316620001825780600260008282546200017691906200058b565b90915550620001f69050565b6001600160a01b03831660009081526020819052604090205481811015620001d75760405163391434e360e21b81526001600160a01b0385166004820152602481018290526044810183905260640162000138565b6001600160a01b03841660009081526020819052604090209082900390555b6001600160a01b038216620002145760028054829003905562000233565b6001600160a01b03821660009081526020819052604090208054820190555b816001600160a01b0316836001600160a01b03167fddf252ad1be2c89b69c2b068fc378daa952ba7f163c4a11628f55a4df523b3ef836040516200027991815260200190565b60405180910390a3505050565b634e487b7160e01b600052604160045260246000fd5b600082601f830112620002ae57600080fd5b81516001600160401b0380821115620002cb57620002cb62000286565b604051601f8301601f19908116603f01168101908282118183101715620002f657620002f662000286565b816040528381526020925086838588010111156200031357600080fd5b600091505b8382101562000337578582018301518183018401529082019062000318565b600093810190920192909252949350505050565b805160ff811681146200035d57600080fd5b919050565b600080600080600060a086880312156200037b57600080fd5b85516001600160401b03808211156200039357600080fd5b620003a189838a016200029c565b96506020880151915080821115620003b857600080fd5b50620003c7888289016200029c565b945050620003d8604087016200034b565b6060870151608088015191945092506001600160a01b0381168114620003fd57600080fd5b809150509295509295909350565b600181811c908216806200042057607f821691505b6020821081036200044157634e487b7160e01b600052602260045260246000fd5b50919050565b601f8211156200049557600081815260208120601f850160051c81016020861015620004705750805b601f850160051c820191505b8181101562000491578281556001016200047c565b5050505b505050565b81516001600160401b03811115620004b657620004b662000286565b620004ce81620004c784546200040b565b8462000447565b602080601f831160018114620005065760008415620004ed5750858301515b600019600386901b1c1916600185901b17855562000491565b600085815260208120601f198616915b82811015620005375788860151825594840194600190910190840162000516565b5085821015620005565787850151600019600388901b60f8161c191681555b5050505050600190811b01905550565b6000602082840312156200057957600080fd5b62000584826200034b565b9392505050565b80820180821115620005ad57634e487b7160e01b600052601160045260246000fd5b92915050565b60805160a051610cdf620005ee6000396000818161039901526105c601526000818161019f0152818161036901526105a10152610cdf6000f3fe608060405234801561001057600080fd5b50600436106101165760003560e01c80636e553f65116100a2578063a9059cbb11610071578063a9059cbb14610259578063c6e6f5921461026c578063db068e0e1461027f578063dd62ed3e14610292578063e6aa216c146102cb57600080fd5b80636e553f651461020257806370a082311461021557806395d89b411461023e5780639dc29fac1461024657600080fd5b806323b872dd116100e957806323b872dd14610185578063313ce5671461019857806338d52e0f146101c95780633ba0b9a9146101e457806340c10f19146101ed57600080fd5b806306fdde031461011b57806307a2d13a14610139578063095ea7b31461015a57806318160ddd1461017d575b600080fd5b6101236102d3565b604051610130919061097e565b60405180910390f35b61014c6101473660046109cc565b610365565b604051908152602001610130565b61016d610168366004610a01565b6103fe565b6040519015158152602001610130565b60025461014c565b61016d610193366004610a2b565b610418565b60405160ff7f0000000000000000000000000000000000000000000000000000000000000000168152602001610130565b6006546040516001600160a01b039091168152602001610130565b61014c60055481565b6102006101fb366004610a01565b61043c565b005b61014c610210366004610a67565b61044a565b61014c610223366004610a93565b6001600160a01b031660009081526020819052604090205490565b610123610576565b610200610254366004610a01565b610585565b61016d610267366004610a01565b61058f565b61014c61027a3660046109cc565b61059d565b61020061028d3660046109cc565b600555565b61014c6102a0366004610ab5565b6001600160a01b03918216600090815260016020908152604080832093909416825291909152205490565b60055461014c565b6060600380546102e290610adf565b80601f016020809104026020016040519081016040528092919081815260200182805461030e90610adf565b801561035b5780601f106103305761010080835404028352916020019161035b565b820191906000526020600020905b81548152906001019060200180831161033e57829003601f168201915b5050505050905090565b60007f00000000000000000000000000000000000000000000000000000000000000008161039482600a610c13565b6103bf7f0000000000000000000000000000000000000000000000000000000000000000600a610c13565b6103c99086610c22565b6103d39190610c39565b9050670de0b6b3a7640000600554826103ec9190610c22565b6103f69190610c39565b949350505050565b60003361040c818585610623565b60019150505b92915050565b600033610426858285610635565b6104318585856106b4565b506001949350505050565b6104468282610713565b5050565b600080831161048f5760405162461bcd60e51b815260206004820152600c60248201526b16995c9bc819195c1bdcda5d60a21b60448201526064015b60405180910390fd5b6040516363737ac960e11b815260048101849052309063c6e6f59290602401602060405180830381865afa1580156104cb573d6000803e3d6000fd5b505050506040513d601f19601f820116820180604052508101906104ef9190610c5b565b6006546040516323b872dd60e01b8152336004820152306024820152604481018690529192506001600160a01b0316906323b872dd906064016020604051808303816000875af1158015610547573d6000803e3d6000fd5b505050506040513d601f19601f8201168201806040525081019061056b9190610c74565b506104128282610713565b6060600480546102e290610adf565b6104468282610749565b60003361040c8185856106b4565b60007f0000000000000000000000000000000000000000000000000000000000000000816105ec7f0000000000000000000000000000000000000000000000000000000000000000600a610c13565b6105f783600a610c13565b6106019086610c22565b61060b9190610c39565b6005549091506103ec82670de0b6b3a7640000610c22565b610630838383600161077f565b505050565b6001600160a01b038381166000908152600160209081526040808320938616835292905220546000198110156106ae578181101561069f57604051637dc7a0d960e11b81526001600160a01b03841660048201526024810182905260448101839052606401610486565b6106ae8484848403600061077f565b50505050565b6001600160a01b0383166106de57604051634b637e8f60e11b815260006004820152602401610486565b6001600160a01b0382166107085760405163ec442f0560e01b815260006004820152602401610486565b610630838383610854565b6001600160a01b03821661073d5760405163ec442f0560e01b815260006004820152602401610486565b61044660008383610854565b6001600160a01b03821661077357604051634b637e8f60e11b815260006004820152602401610486565b61044682600083610854565b6001600160a01b0384166107a95760405163e602df0560e01b815260006004820152602401610486565b6001600160a01b0383166107d357604051634a1406b160e11b815260006004820152602401610486565b6001600160a01b03808516600090815260016020908152604080832093871683529290522082905580156106ae57826001600160a01b0316846001600160a01b03167f8c5be1e5ebec7d5bd14f71427d1e84f3dd0314c0f7b2291e5b200ac8c7c3b9258460405161084691815260200190565b60405180910390a350505050565b6001600160a01b03831661087f5780600260008282546108749190610c96565b909155506108f19050565b6001600160a01b038316600090815260208190526040902054818110156108d25760405163391434e360e21b81526001600160a01b03851660048201526024810182905260448101839052606401610486565b6001600160a01b03841660009081526020819052604090209082900390555b6001600160a01b03821661090d5760028054829003905561092c565b6001600160a01b03821660009081526020819052604090208054820190555b816001600160a01b0316836001600160a01b03167fddf252ad1be2c89b69c2b068fc378daa952ba7f163c4a11628f55a4df523b3ef8360405161097191815260200190565b60405180910390a3505050565b600060208083528351808285015260005b818110156109ab5785810183015185820160400152820161098f565b506000604082860101526040601f19601f8301168501019250505092915050565b6000602082840312156109de57600080fd5b5035919050565b80356001600160a01b03811681146109fc57600080fd5b919050565b60008060408385031215610a1457600080fd5b610a1d836109e5565b946020939093013593505050565b600080600060608486031215610a4057600080fd5b610a49846109e5565b9250610a57602085016109e5565b9150604084013590509250925092565b60008060408385031215610a7a57600080fd5b82359150610a8a602084016109e5565b90509250929050565b600060208284031215610aa557600080fd5b610aae826109e5565b9392505050565b60008060408385031215610ac857600080fd5b610ad1836109e5565b9150610a8a602084016109e5565b600181811c90821680610af357607f821691505b602082108103610b1357634e487b7160e01b600052602260045260246000fd5b50919050565b634e487b7160e01b600052601160045260246000fd5b600181815b80851115610b6a578160001904821115610b5057610b50610b19565b80851615610b5d57918102915b93841c9390800290610b34565b509250929050565b600082610b8157506001610412565b81610b8e57506000610412565b8160018114610ba45760028114610bae57610bca565b6001915050610412565b60ff841115610bbf57610bbf610b19565b50506001821b610412565b5060208310610133831016604e8410600b8410161715610bed575081810a610412565b610bf78383610b2f565b8060001904821115610c0b57610c0b610b19565b029392505050565b6000610aae60ff841683610b72565b808202811582820484141761041257610412610b19565b600082610c5657634e487b7160e01b600052601260045260246000fd5b500490565b600060208284031215610c6d57600080fd5b5051919050565b600060208284031215610c8657600080fd5b81518015158114610aae57600080fd5b8082018082111561041257610412610b1956fea264697066735822122085b69e84a8fdceba323a53974779fea0ba99eb5374b9411ac6837f0701ceb5be64736f6c63430008150033",
  "linkReferences": {},
  "deployedLinkReferences": {}
}