{
  "_format": "hh-sol-artifact-1",
  "contractName": "Constants",
  "sourceName": "contracts/constants/Constants.sol",
  "abi": [
    {
      "inputs": [],
      "name": "DEFAULT_MAX_VAULT_RATE",
      "outputs": [
        {
          "internalType": "uint256",
          "name": "",
          "type": "uint256"
        }
      ],
      "stateMutability": "view",
      "type": "function"
    },
    {
      "inputs": [],
      "name": "DEFAULT_MIN_VAULT_RATE",
      "outputs": [
        {
          "internalType": "uint256",
          "name": "",
          "type": "uint256"
        }
      ],
      "stateMutability": "view",
      "type": "function"
    },
    {
      "inputs": [],
      "name": "MANUAL_PRICE_MAX_DELTA_WAD",
      "outputs": [
        {
          "internalType": "uint256",
          "name": "",
          "type": "uint256"
        }
      ],
      "stateMutability": "view",
      "type": "function"
    },
    {
      "inputs": [],
      "name": "MAX_ABSOLUTE_PRICE",
      "outputs": [
        {
          "internalType": "uint256",
          "name": "",
          "type": "uint256"
        }
      ],
      "stateMutability": "view",
      "type": "function"
    },
    {
      "inputs": [],
      "name": "MAX_RECURSION_DEPTH",
      "outputs": [
        {
          "internalType": "uint256",
          "name": "",
          "type": "uint256"
        }
      ],
      "stateMutability": "view",
      "type": "function"
    },
    {
      "inputs": [],
      "name": "MIN_ABSOLUTE_PRICE",
      "outputs": [
        {
          "internalType": "uint256",
          "name": "",
          "type": "uint256"
        }
      ],
      "stateMutability": "view",
      "type": "function"
    },
    {
      "inputs": [],
      "name": "ORACLE_DEFAULT_STALE_PERIOD",
      "outputs": [
        {
          "internalType": "uint256",
          "name": "",
          "type": "uint256"
        }
      ],
      "stateMutability": "view",
      "type": "function"
    },
    {
      "inputs": [],
      "name": "WAD",
      "outputs": [
        {
          "internalType": "uint256",
          "name": "",
          "type": "uint256"
        }
      ],
      "stateMutability": "view",
      "type": "function"
    }
  ],
  "bytecode": "0x61014c61003a600b82828239805160001a60731461002d57634e487b7160e01b600052600060045260246000fd5b30600052607381538281f3fe73000000000000000000000000000000000000000030146080604052600436106100925760003560e01c806371aeb7a71161006557806371aeb7a7146100df578063b554e888146100f3578063d160ed4d14610102578063f537b1ba1461010a57600080fd5b80631bbfc7e814610097578063316ed52d146100b85780634e9331ef146100c75780636a146024146100d0575b600080fd5b6100a66729a2241af62c000081565b60405190815260200160405180910390f35b6100a66702c68af0bb14000081565b6100a6610e1081565b6100a6670de0b6b3a764000081565b6100a66c0c9f2c9cd04674edea4000000081565b6100a667016345785d8a000081565b6100a6600181565b6100a66402540be4008156fea2646970667358221220dc5a400d186a68ea34de65cde226f09d7a70321e882ff03d8d97704a7798522064736f6c63430008150033",
  "linkReferences": {},
  "deployedLinkReferences": {}
}