{
  "_format": "hh-sol-artifact-1",
  "contractName": "Oracle",
  "sourceName": "contracts/core/Oracle.sol",
  "abi": [
    {
      "inputs": [
        {
          "internalType": "address",
          "name": "_owner",
          "type": "address"
        }
      ],
      "stateMutability": "nonpayable",
      "type": "constructor"
    },
    {
      "inputs": [
        {
          "internalType": "address",
          "name": "feed",
          "type": "address"
        }
      ],
      "name": "InvalidFeedContract",
      "type": "error"
    },
    {
      "inputs": [
        {
          "internalType": "address",
          "name": "feed",
          "type": "address"
        },
        {
          "internalType": "uint8",
          "name": "decimals",
          "type": "uint8"
        }
      ],
      "name": "InvalidFeedDecimals",
      "type": "error"
    },
    {
      "inputs": [
        {
          "internalType": "address",
          "name": "token",
          "type": "address"
        },
        {
          "internalType": "uint256",
          "name": "price",
          "type": "uint256"
        }
      ],
      "name": "InvalidManualPrice",
      "type": "error"
    },
    {
      "inputs": [
        {
          "internalType": "address",
          "name": "token",
          "type": "address"
        },
        {
          "internalType": "address",
          "name": "feed",
          "type": "address"
        }
      ],
      "name": "InvalidOraclePrice",
      "type": "error"
    },
    {
      "inputs": [
        {
          "internalType": "uint256",
          "name": "period",
          "type": "uint256"
        }
      ],
      "name": "InvalidStalePeriod",
      "type": "error"
    },
    {
      "inputs": [
        {
          "internalType": "address",
          "name": "vault",
          "type": "address"
        },
        {
          "internalType": "uint256",
          "name": "minRate",
          "type": "uint256"
        },
        {
          "internalType": "uint256",
          "name": "maxRate",
          "type": "uint256"
        }
      ],
      "name": "InvalidVaultBounds",
      "type": "error"
    },
    {
      "inputs": [
        {
          "internalType": "address",
          "name": "vault",
          "type": "address"
        },
        {
          "internalType": "uint256",
          "name": "rate",
          "type": "uint256"
        }
      ],
      "name": "InvalidVaultExchangeRate",
      "type": "error"
    },
    {
      "inputs": [
        {
          "internalType": "address",
          "name": "token",
          "type": "address"
        }
      ],
      "name": "NoFallbackPrice",
      "type": "error"
    },
    {
      "inputs": [
        {
          "internalType": "address",
          "name": "token",
          "type": "address"
        }
      ],
      "name": "NoPriceFeed",
      "type": "error"
    },
    {
      "inputs": [
        {
          "internalType": "address",
          "name": "oracle",
          "type": "address"
        },
        {
          "internalType": "uint256",
          "name": "timestamp",
          "type": "uint256"
        }
      ],
      "name": "OraclePaused",
      "type": "error"
    },
    {
      "inputs": [
        {
          "internalType": "address",
          "name": "owner",
          "type": "address"
        }
      ],
      "name": "OwnableInvalidOwner",
      "type": "error"
    },
    {
      "inputs": [
        {
          "internalType": "address",
          "name": "account",
          "type": "address"
        }
      ],
      "name": "OwnableUnauthorizedAccount",
      "type": "error"
    },
    {
      "inputs": [
        {
          "internalType": "address",
          "name": "token",
          "type": "address"
        }
      ],
      "name": "RecursiveResolution",
      "type": "error"
    },
    {
      "inputs": [
        {
          "internalType": "address",
          "name": "token",
          "type": "address"
        }
      ],
      "name": "StaleFallback",
      "type": "error"
    },
    {
      "inputs": [
        {
          "internalType": "address",
          "name": "token",
          "type": "address"
        },
        {
          "internalType": "uint256",
          "name": "updatedAt",
          "type": "uint256"
        },
        {
          "internalType": "uint256",
          "name": "currentTime",
          "type": "uint256"
        }
      ],
      "name": "StalePrice",
      "type": "error"
    },
    {
      "inputs": [
        {
          "internalType": "address",
          "name": "vault",
          "type": "address"
        },
        {
          "internalType": "uint256",
          "name": "rate",
          "type": "uint256"
        }
      ],
      "name": "SuspiciousVaultRate",
      "type": "error"
    },
    {
      "inputs": [
        {
          "internalType": "string",
          "name": "functionName",
          "type": "string"
        },
        {
          "internalType": "string",
          "name": "field",
          "type": "string"
        }
      ],
      "name": "ZeroAddress",
      "type": "error"
    },
    {
      "anonymous": false,
      "inputs": [
        {
          "indexed": true,
          "internalType": "address",
          "name": "token",
          "type": "address"
        },
        {
          "indexed": true,
          "internalType": "address",
          "name": "feed",
          "type": "address"
        }
      ],
      "name": "ChainlinkFeedSet",
      "type": "event"
    },
    {
      "anonymous": false,
      "inputs": [
        {
          "indexed": true,
          "internalType": "address",
          "name": "vault",
          "type": "address"
        },
        {
          "indexed": true,
          "internalType": "address",
          "name": "underlying",
          "type": "address"
        }
      ],
      "name": "ERC4626Registered",
      "type": "event"
    },
    {
      "anonymous": false,
      "inputs": [
        {
          "indexed": false,
          "internalType": "uint256",
          "name": "newPeriod",
          "type": "uint256"
        }
      ],
      "name": "FallbackStalePeriodUpdated",
      "type": "event"
    },
    {
      "anonymous": false,
      "inputs": [
        {
          "indexed": true,
          "internalType": "address",
          "name": "token",
          "type": "address"
        },
        {
          "indexed": false,
          "internalType": "uint256",
          "name": "price",
          "type": "uint256"
        },
        {
          "indexed": false,
          "internalType": "uint256",
          "name": "timestamp",
          "type": "uint256"
        }
      ],
      "name": "LastValidPriceUpdated",
      "type": "event"
    },
    {
      "anonymous": false,
      "inputs": [
        {
          "indexed": true,
          "internalType": "address",
          "name": "token",
          "type": "address"
        },
        {
          "indexed": false,
          "internalType": "bool",
          "name": "enabled",
          "type": "bool"
        }
      ],
      "name": "ManualModeEnabled",
      "type": "event"
    },
    {
      "anonymous": false,
      "inputs": [
        {
          "indexed": true,
          "internalType": "address",
          "name": "token",
          "type": "address"
        },
        {
          "indexed": false,
          "internalType": "uint256",
          "name": "price",
          "type": "uint256"
        }
      ],
      "name": "ManualPriceSet",
      "type": "event"
    },
    {
      "anonymous": false,
      "inputs": [
        {
          "indexed": true,
          "internalType": "address",
          "name": "token",
          "type": "address"
        },
        {
          "indexed": false,
          "internalType": "uint256",
          "name": "lastValid",
          "type": "uint256"
        },
        {
          "indexed": false,
          "internalType": "uint256",
          "name": "at",
          "type": "uint256"
        },
        {
          "indexed": false,
          "internalType": "string",
          "name": "reason",
          "type": "string"
        }
      ],
      "name": "OracleFallbackUsed",
      "type": "event"
    },
    {
      "anonymous": false,
      "inputs": [
        {
          "indexed": false,
          "internalType": "enum IOracle.OracleMode",
          "name": "oldMode",
          "type": "uint8"
        },
        {
          "indexed": false,
          "internalType": "enum IOracle.OracleMode",
          "name": "newMode",
          "type": "uint8"
        }
      ],
      "name": "OracleModeChanged",
      "type": "event"
    },
    {
      "anonymous": false,
      "inputs": [
        {
          "indexed": true,
          "internalType": "address",
          "name": "previousOwner",
          "type": "address"
        },
        {
          "indexed": true,
          "internalType": "address",
          "name": "newOwner",
          "type": "address"
        }
      ],
      "name": "OwnershipTransferred",
      "type": "event"
    },
    {
      "anonymous": false,
      "inputs": [
        {
          "indexed": false,
          "internalType": "uint256",
          "name": "newPeriod",
          "type": "uint256"
        }
      ],
      "name": "StalePeriodUpdated",
      "type": "event"
    },
    {
      "anonymous": false,
      "inputs": [
        {
          "indexed": true,
          "internalType": "address",
          "name": "token",
          "type": "address"
        }
      ],
      "name": "TokenSupportAdded",
      "type": "event"
    },
    {
      "anonymous": false,
      "inputs": [
        {
          "indexed": true,
          "internalType": "address",
          "name": "vault",
          "type": "address"
        },
        {
          "indexed": false,
          "internalType": "uint256",
          "name": "minRate",
          "type": "uint256"
        },
        {
          "indexed": false,
          "internalType": "uint256",
          "name": "maxRate",
          "type": "uint256"
        }
      ],
      "name": "VaultRateBoundsSet",
      "type": "event"
    },
    {
      "inputs": [
        {
          "internalType": "address",
          "name": "",
          "type": "address"
        }
      ],
      "name": "chainlinkFeeds",
      "outputs": [
        {
          "internalType": "address",
          "name": "",
          "type": "address"
        }
      ],
      "stateMutability": "view",
      "type": "function"
    },
    {
      "inputs": [
        {
          "internalType": "address",
          "name": "token",
          "type": "address"
        }
      ],
      "name": "disableManualPrice",
      "outputs": [],
      "stateMutability": "nonpayable",
      "type": "function"
    },
    {
      "inputs": [
        {
          "internalType": "address",
          "name": "",
          "type": "address"
        }
      ],
      "name": "erc4626Underlying",
      "outputs": [
        {
          "internalType": "address",
          "name": "",
          "type": "address"
        }
      ],
      "stateMutability": "view",
      "type": "function"
    },
    {
      "inputs": [],
      "name": "fallbackStalePeriod",
      "outputs": [
        {
          "internalType": "uint256",
          "name": "",
          "type": "uint256"
        }
      ],
      "stateMutability": "view",
      "type": "function"
    },
    {
      "inputs": [
        {
          "internalType": "address",
          "name": "token",
          "type": "address"
        }
      ],
      "name": "fetchAndUpdatePrice",
      "outputs": [
        {
          "internalType": "uint256",
          "name": "",
          "type": "uint256"
        }
      ],
      "stateMutability": "nonpayable",
      "type": "function"
    },
    {
      "inputs": [
        {
          "internalType": "address",
          "name": "token",
          "type": "address"
        }
      ],
      "name": "getPrice",
      "outputs": [
        {
          "internalType": "uint256",
          "name": "price",
          "type": "uint256"
        }
      ],
      "stateMutability": "view",
      "type": "function"
    },
    {
      "inputs": [
        {
          "internalType": "address",
          "name": "token",
          "type": "address"
        }
      ],
      "name": "getPriceAge",
      "outputs": [
        {
          "internalType": "uint256",
          "name": "age",
          "type": "uint256"
        }
      ],
      "stateMutability": "view",
      "type": "function"
    },
    {
      "inputs": [],
      "name": "getSupportedTokens",
      "outputs": [
        {
          "internalType": "address[]",
          "name": "tokens",
          "type": "address[]"
        }
      ],
      "stateMutability": "view",
      "type": "function"
    },
    {
      "inputs": [
        {
          "internalType": "address",
          "name": "",
          "type": "address"
        }
      ],
      "name": "isManual",
      "outputs": [
        {
          "internalType": "bool",
          "name": "",
          "type": "bool"
        }
      ],
      "stateMutability": "view",
      "type": "function"
    },
    {
      "inputs": [
        {
          "internalType": "address",
          "name": "token",
          "type": "address"
        }
      ],
      "name": "isPriceFresh",
      "outputs": [
        {
          "internalType": "bool",
          "name": "isFresh",
          "type": "bool"
        }
      ],
      "stateMutability": "view",
      "type": "function"
    },
    {
      "inputs": [
        {
          "internalType": "address",
          "name": "",
          "type": "address"
        }
      ],
      "name": "isSupported",
      "outputs": [
        {
          "internalType": "bool",
          "name": "",
          "type": "bool"
        }
      ],
      "stateMutability": "view",
      "type": "function"
    },
    {
      "inputs": [
        {
          "internalType": "address",
          "name": "",
          "type": "address"
        }
      ],
      "name": "lastValidPrice",
      "outputs": [
        {
          "internalType": "uint256",
          "name": "price",
          "type": "uint256"
        },
        {
          "internalType": "uint256",
          "name": "timestamp",
          "type": "uint256"
        }
      ],
      "stateMutability": "view",
      "type": "function"
    },
    {
      "inputs": [
        {
          "internalType": "address",
          "name": "",
          "type": "address"
        }
      ],
      "name": "manualPrices",
      "outputs": [
        {
          "internalType": "uint256",
          "name": "",
          "type": "uint256"
        }
      ],
      "stateMutability": "view",
      "type": "function"
    },
    {
      "inputs": [],
      "name": "mode",
      "outputs": [
        {
          "internalType": "enum IOracle.OracleMode",
          "name": "",
          "type": "uint8"
        }
      ],
      "stateMutability": "view",
      "type": "function"
    },
    {
      "inputs": [],
      "name": "owner",
      "outputs": [
        {
          "internalType": "address",
          "name": "",
          "type": "address"
        }
      ],
      "stateMutability": "view",
      "type": "function"
    },
    {
      "inputs": [],
      "name": "renounceOwnership",
      "outputs": [],
      "stateMutability": "nonpayable",
      "type": "function"
    },
    {
      "inputs": [
        {
          "internalType": "address",
          "name": "token",
          "type": "address"
        }
      ],
      "name": "resolvePrice",
      "outputs": [
        {
          "internalType": "uint256",
          "name": "price",
          "type": "uint256"
        }
      ],
      "stateMutability": "nonpayable",
      "type": "function"
    },
    {
      "inputs": [
        {
          "internalType": "address",
          "name": "token",
          "type": "address"
        },
        {
          "internalType": "address",
          "name": "feed",
          "type": "address"
        }
      ],
      "name": "setChainlinkFeed",
      "outputs": [],
      "stateMutability": "nonpayable",
      "type": "function"
    },
    {
      "inputs": [
        {
          "internalType": "address",
          "name": "vault",
          "type": "address"
        },
        {
          "internalType": "address",
          "name": "underlying",
          "type": "address"
        }
      ],
      "name": "setERC4626Vault",
      "outputs": [],
      "stateMutability": "nonpayable",
      "type": "function"
    },
    {
      "inputs": [
        {
          "internalType": "uint256",
          "name": "period",
          "type": "uint256"
        }
      ],
      "name": "setFallbackStalePeriod",
      "outputs": [],
      "stateMutability": "nonpayable",
      "type": "function"
    },
    {
      "inputs": [
        {
          "internalType": "address",
          "name": "token",
          "type": "address"
        },
        {
          "internalType": "uint256",
          "name": "price",
          "type": "uint256"
        }
      ],
      "name": "setManualPrice",
      "outputs": [],
      "stateMutability": "nonpayable",
      "type": "function"
    },
    {
      "inputs": [
        {
          "internalType": "enum IOracle.OracleMode",
          "name": "newMode",
          "type": "uint8"
        }
      ],
      "name": "setOracleMode",
      "outputs": [],
      "stateMutability": "nonpayable",
      "type": "function"
    },
    {
      "inputs": [
        {
          "internalType": "uint256",
          "name": "period",
          "type": "uint256"
        }
      ],
      "name": "setStalePeriod",
      "outputs": [],
      "stateMutability": "nonpayable",
      "type": "function"
    },
    {
      "inputs": [
        {
          "internalType": "address",
          "name": "vault",
          "type": "address"
        },
        {
          "internalType": "uint256",
          "name": "minRate",
          "type": "uint256"
        },
        {
          "internalType": "uint256",
          "name": "maxRate",
          "type": "uint256"
        }
      ],
      "name": "setVaultRateBounds",
      "outputs": [],
      "stateMutability": "nonpayable",
      "type": "function"
    },
    {
      "inputs": [],
      "name": "stalePeriod",
      "outputs": [
        {
          "internalType": "uint256",
          "name": "",
          "type": "uint256"
        }
      ],
      "stateMutability": "view",
      "type": "function"
    },
    {
      "inputs": [
        {
          "internalType": "uint256",
          "name": "",
          "type": "uint256"
        }
      ],
      "name": "supportedTokens",
      "outputs": [
        {
          "internalType": "address",
          "name": "",
          "type": "address"
        }
      ],
      "stateMutability": "view",
      "type": "function"
    },
    {
      "inputs": [
        {
          "internalType": "address",
          "name": "newOwner",
          "type": "address"
        }
      ],
      "name": "transferOwnership",
      "outputs": [],
      "stateMutability": "nonpayable",
      "type": "function"
    },
    {
      "inputs": [
        {
          "internalType": "address",
          "name": "",
          "type": "address"
        }
      ],
      "name": "vaultRateBounds",
      "outputs": [
        {
          "internalType": "uint256",
          "name": "minRate",
          "type": "uint256"
        },
        {
          "internalType": "uint256",
          "name": "maxRate",
          "type": "uint256"
        }
      ],
      "stateMutability": "view",
      "type": "function"
    }
  ],
  "bytecode": "0x6080604052610e10600755610e1060026200001b919062000158565b6008556009805460ff191690553480156200003557600080fd5b506040516200225738038062002257833981016040819052620000589162000184565b806001600160a01b0381166200008957604051631e4fbdf760e01b8152600060048201526024015b60405180910390fd5b620000948162000108565b506001600160a01b0381166200010157604080516374b58fcf60e01b81526004810191909152601260448201527127b930b1b6329d31b7b739ba393ab1ba37b960711b606482015260806024820152600560848201526437bbb732b960d91b60a482015260c40162000080565b50620001b6565b600080546001600160a01b038381166001600160a01b0319831681178455604051919092169283917f8be0079c531659141344cd1fd0a4f28419497f9722a3daafe3b4186f6b6457e09190a35050565b80820281158282048414176200017e57634e487b7160e01b600052601160045260246000fd5b92915050565b6000602082840312156200019757600080fd5b81516001600160a01b0381168114620001af57600080fd5b9392505050565b61209180620001c66000396000f3fe608060405234801561001057600080fd5b50600436106101c45760003560e01c80638fef24a3116100f9578063d3c7c2c711610097578063e8c1650011610071578063e8c1650014610425578063ed06a12d1461044e578063f04c98ca14610461578063f2fde38b1461048157600080fd5b8063d3c7c2c7146103c0578063d9793033146103d5578063e310bd2a146103fe57600080fd5b8063a95121b5116100d3578063a95121b514610374578063c625562614610387578063ced663b01461039a578063cfa3d593146103ad57600080fd5b80638fef24a314610345578063a5b36a3614610358578063a6f4ab2e1461036157600080fd5b806348c87c5111610166578063715018a611610140578063715018a6146102c957806371e8023c146102d15780637f33780a146102e45780638da5cb5b1461032057600080fd5b806348c87c51146102805780634f129c531461029357806369ef32d2146102b657600080fd5b8063295a5212116101a2578063295a52121461022b5780633b82fdeb1461024557806341976e091461025a5780634316b5a21461026d57600080fd5b80630af1a39f146101c95780630f5d559d146101f1578063260f9a8b14610214575b600080fd5b6101dc6101d7366004611a5b565b610494565b60405190151581526020015b60405180910390f35b6101dc6101ff366004611a5b565b60046020526000908152604090205460ff1681565b61021d60085481565b6040519081526020016101e8565b6009546102389060ff1681565b6040516101e89190611ab0565b610258610253366004611ac4565b6104eb565b005b61021d610268366004611a5b565b610557565b61025861027b366004611ae5565b610692565b61021d61028e366004611a5b565b6106fc565b6101dc6102a1366004611a5b565b600c6020526000908152604090205460ff1681565b6102586102c4366004611afe565b61074d565b6102586109b6565b6102586102df366004611afe565b6109ca565b61030b6102f2366004611a5b565b6005602052600090815260409020805460019091015482565b604080519283526020830191909152016101e8565b6000546001600160a01b03165b6040516001600160a01b0390911681526020016101e8565b610258610353366004611b37565b610b27565b61021d60075481565b61025861036f366004611ae5565b610c72565b610258610382366004611b6c565b610ce1565b61032d610395366004611ae5565b610fa8565b6102586103a8366004611a5b565b610fd2565b61021d6103bb366004611a5b565b611056565b6103c8611236565b6040516101e89190611b98565b61032d6103e3366004611a5b565b6002602052600090815260409020546001600160a01b031681565b61030b61040c366004611a5b565b6006602052600090815260409020805460019091015482565b61032d610433366004611a5b565b6001602052600090815260409020546001600160a01b031681565b61021d61045c366004611a5b565b611298565b61021d61046f366004611a5b565b60036020526000908152604090205481565b61025861048f366004611a5b565b611311565b6001600160a01b03811660009081526005602090815260408083208151808301909252805482526001015491810182905290158015906104e4575060075460208201516104e19042611bfb565b11155b9392505050565b6104f361134f565b6009805460ff811691839160ff19166001838181111561051557610515611a78565b02179055507fa6972b82c1819c55fbb1eb3a5226aab6498a55b1cccd85bcffc44175751eb573818360405161054b929190611c0e565b60405180910390a15050565b60006001600160a01b038216610589576040516374b58fcf60e01b815260040161058090611c41565b60405180910390fd5b6001600160a01b0382166000908152600560209081526040808320815180830190925280548083526001909101549282019290925291036105e857604051635a94181960e01b81526001600160a01b0384166004820152602401610580565b604051630af1a39f60e01b81526001600160a01b03841660048201523090630af1a39f90602401602060405180830381865afa15801561062c573d6000803e3d6000fd5b505050506040513d601f19601f820116820180604052508101906106509190611c79565b61068b5760208101516040516348da37e960e11b81526001600160a01b03851660048201526024810191909152426044820152606401610580565b5192915050565b61069a61134f565b6007548110156106c0576040516301ee48e160e71b815260048101829052602401610580565b60088190556040518181527fedd414ac063290211a282c8be3e328fcc6d60e4d1422ab34bc5af9a01736943d906020015b60405180910390a150565b6001600160a01b03811660009081526005602090815260408083208151808301909252805482526001015491810182905290820361073e575060001992915050565b60208101516104e49042611bfb565b61075561134f565b6001600160a01b038216158061077257506001600160a01b038116155b15610790576040516374b58fcf60e01b815260040161058090611c9b565b806001600160a01b03163b6000036107c65760405163c2b3d6a360e01b81526001600160a01b0382166004820152602401610580565b60008190506000816001600160a01b031663313ce5676040518163ffffffff1660e01b8152600401602060405180830381865afa15801561080b573d6000803e3d6000fd5b505050506040513d601f19601f8201168201806040525081019061082f9190611cf4565b905060128160ff16111561086a5760405163bed0220560e01b81526001600160a01b038416600482015260ff82166024820152604401610580565b816001600160a01b031663feaf968c6040518163ffffffff1660e01b815260040160a060405180830381865afa9250505080156108c4575060408051601f3d908101601f191682019092526108c191810190611d31565b60015b6108ec5760405163c2b3d6a360e01b81526001600160a01b0384166004820152602401610580565b6000841315806108fa575081155b156109235760405163c2b3d6a360e01b81526001600160a01b0389166004820152602401610580565b505050506001600160a01b03858116600090815260016020908152604080832080546001600160a01b031916948916949094179093556004905220805460ff19169055506109708461137c565b826001600160a01b0316846001600160a01b03167fb9b75140a682094a10720170347bc8e03bfd71f1bb59d103cd8dc0782c52568360405160405180910390a350505050565b6109be61134f565b6109c8600061142b565b565b6109d261134f565b6001600160a01b03821615806109ef57506001600160a01b038116155b15610a0d576040516374b58fcf60e01b815260040161058090611d81565b816001600160a01b03166338d52e0f6040518163ffffffff1660e01b8152600401602060405180830381865afa925050508015610a67575060408051601f3d908101601f19168201909252610a6491810190611dd3565b60015b610aab5760405162461bcd60e51b8152602060048201526015602482015274125b9d985b1a5908115490cd0d8c8d881d985d5b1d605a1b6044820152606401610580565b506001600160a01b03828116600090815260026020526040902080546001600160a01b031916918316919091179055610ae38261137c565b806001600160a01b0316826001600160a01b03167f456db9889a9cf62250a0d96274761be08bc928b1ea97a2b6e45d9db8b575fa0c60405160405180910390a35050565b610b2f61134f565b6001600160a01b038316610ba457604080516374b58fcf60e01b81526004810191909152601960448201527f4f7261636c653a7365745661756c7452617465426f756e64730000000000000060648201526080602482015260056084820152641d985d5b1d60da1b60a482015260c401610580565b811580610bb15750818111155b80610bc4575068056bc75e2d6310000081115b15610bfb5760405163dceed17360e01b81526001600160a01b03841660048201526024810183905260448101829052606401610580565b60408051808201825283815260208082018481526001600160a01b038716600081815260068452859020935184559051600190930192909255825185815290810184905290917f97b96731e654217eb1034ea218d533d1b086cd0ba6ba8b09735ef3e70c4d5fd491015b60405180910390a2505050565b610c7a61134f565b610e10811080610c8b5750612a3081115b15610cac576040516301ee48e160e71b815260048101829052602401610580565b60078190556040518181527f8e163815dacf2204ab589790672a86e421041804acc4cb85a7caebac33be1b2b906020016106f1565b610ce961134f565b600160095460ff166001811115610d0257610d02611a78565b03610d28576040516330bcb70560e21b8152306004820152426024820152604401610580565b6001600160a01b038216610d4f576040516374b58fcf60e01b815260040161058090611df0565b6402540be400811080610d6b575069d3c21bcecceda100000081115b15610d9b57604051638366d84d60e01b81526001600160a01b038316600482015260248101829052604401610580565b6001600160a01b038216600090815260056020908152604091829020825180840190935280548084526001909101549183019190915215801590610def57506007546020820151610dec9042611bfb565b11155b15610e9e576000670de0b6b3a7640000610e1167016345785d8a000082611bfb565b8351610e1d9190611e2e565b610e279190611e45565b90506000670de0b6b3a7640000610e4667016345785d8a000082611e67565b8451610e529190611e2e565b610e5c9190611e45565b905081841080610e6b57508084115b15610e9b57604051638366d84d60e01b81526001600160a01b038616600482015260248101859052604401610580565b50505b6001600160a01b038316600081815260036020908152604080832086905560048252808320805460ff191660019081179091558151808301835287815242818501908152868652600585529483902090518155935193019290925590518481527f469ff3a7ada7a8c122e2729e7041dfdabfc5e8b26802fa04d7f00706149c4e24910160405180910390a2604051600181526001600160a01b038416907f782cbde6cfd4fcc41b55a876a6a2983d09080438d1e4316b98042b68025a29a89060200160405180910390a2604080518381524260208201526001600160a01b038516917f895efb821f241e50aca7011c501989268b4e15748c700bf77d48ff447049888c9101610c65565b600b8181548110610fb857600080fd5b6000918252602090912001546001600160a01b0316905081565b610fda61134f565b6001600160a01b038116611001576040516374b58fcf60e01b815260040161058090611e7a565b6001600160a01b0381166000818152600460209081526040808320805460ff19169055519182527f782cbde6cfd4fcc41b55a876a6a2983d09080438d1e4316b98042b68025a29a8910160405180910390a250565b6001600160a01b03811660009081526004602052604081205460ff161561109357506001600160a01b031660009081526003602052604090205490565b6001600160a01b038083166000908152600260205260409020541680156110be576104e4838261147b565b6001600160a01b03808416600090815260016020526040902054168061110257604051632a4f499d60e21b81526001600160a01b0385166004820152602401610580565b60008061110e836117c4565b9150915080156111215750949350505050565b6001600160a01b03861660009081526005602090815260408083208151808301909252805480835260019091015492820192909252910361118057604051635a94181960e01b81526001600160a01b0388166004820152602401610580565b60085460208201516111929042611bfb565b11156111bc57604051634ebf1f0f60e11b81526001600160a01b0388166004820152602401610580565b805160408051918252426020830152606090820181905260119082015270436861696e6c696e6b206661696c75726560781b60808201526001600160a01b038816907f1037657730ddbc445dbaba678e03c33d31f7ae7f523c4f5de5f458ea5b837d399060a00160405180910390a2519695505050505050565b6060600b80548060200260200160405190810160405280929190818152602001828054801561128e57602002820191906000526020600020905b81546001600160a01b03168152600190910190602001808311611270575b5050505050905090565b6000600160095460ff1660018111156112b3576112b3611a78565b036112d9576040516330bcb70560e21b8152306004820152426024820152604401610580565b6001600160a01b038216611300576040516374b58fcf60e01b815260040161058090611ec0565b61130982611975565b90505b919050565b61131961134f565b6001600160a01b03811661134357604051631e4fbdf760e01b815260006004820152602401610580565b61134c8161142b565b50565b6000546001600160a01b031633146109c85760405163118cdaa760e01b8152336004820152602401610580565b6001600160a01b0381166000908152600c602052604090205460ff1661134c57600b805460018082019092557f0175b7a638427703f0dbe7bb9bbf987a2551717b34e79f33b5b1008d1fa01db90180546001600160a01b0319166001600160a01b0384169081179091556000818152600c6020526040808220805460ff1916909417909355915190917f8f50fda9bf5d3b403c53b7e91646abd507f8cebf2577655d55d7de3926168b1791a250565b600080546001600160a01b038381166001600160a01b0319831681178455604051919092169283917f8be0079c531659141344cd1fd0a4f28419497f9722a3daafe3b4186f6b6457e09190a35050565b60006005600a54106114a357604051630e5daffd60e11b815260006004820152602401610580565b600a80549060006114b383611f06565b91905055506000836001600160a01b031663313ce5676040518163ffffffff1660e01b8152600401602060405180830381865afa1580156114f8573d6000803e3d6000fd5b505050506040513d601f19601f8201168201806040525081019061151c9190611cf4565b90506000836001600160a01b031663313ce5676040518163ffffffff1660e01b8152600401602060405180830381865afa15801561155e573d6000803e3d6000fd5b505050506040513d601f19601f820116820180604052508101906115829190611cf4565b9050600061159183600a612003565b6040516303d1689d60e11b8152600481018290529091506000906001600160a01b038816906307a2d13a90602401602060405180830381865afa1580156115dc573d6000803e3d6000fd5b505050506040513d601f19601f820116820180604052508101906116009190612012565b905080158061161d57506ec097ce7bc90715b34b9f100000000081115b1561164c57604051624df74960e31b81526001600160a01b038816600482015260248101829052604401610580565b600061165984600a612003565b61166b670de0b6b3a764000084611e2e565b6116759190611e45565b9050600061168486600a612003565b611696670de0b6b3a764000086611e2e565b6116a09190611e45565b90506000816116b7670de0b6b3a764000085611e2e565b6116c19190611e45565b6001600160a01b038b16600090815260066020908152604080832081518083019092528054808352600190910154928201929092529293501561170557815161170f565b6702c68af0bb1400005b905060008260200151600014611729578260200151611733565b6729a2241af62c00005b90508084118061174257508184105b156117725760405163c55e83d360e01b81526001600160a01b038e16600482015260248101859052604401610580565b600061177d8d611056565b9050670de0b6b3a76400006117928683611e2e565b61179c9190611e45565b9b505050505050505050505050600a80549060006117b98361202b565b919050555092915050565b600080826001600160a01b031663feaf968c6040518163ffffffff1660e01b815260040160a060405180830381865afa925050508015611821575060408051601f3d908101601f1916820190925261181e91810190611d31565b60015b61183057506000928392509050565b60008413158061183e575081155b8061185357506007546118518342611bfb565b115b15611868575060009788975095505050505050565b6000886001600160a01b031663313ce5676040518163ffffffff1660e01b8152600401602060405180830381865afa1580156118a8573d6000803e3d6000fd5b505050506040513d601f19601f820116820180604052508101906118cc9190611cf4565b9050846000601260ff84161461192c5760128360ff161061190c576118f2601284612042565b6118fd90600a612003565b6119079083611e45565b61192e565b611917836012612042565b61192290600a612003565b6119079083611e2e565b815b90506402540be40081108061194c575069d3c21bcecceda100000081115b15611964575060009a8b9a5098505050505050505050565b9a60019a5098505050505050505050565b600061198082611056565b90506402540be40081108061199e575069d3c21bcecceda100000081115b156119ce57604051631b27609360e01b81526001600160a01b038316600482015260006024820152604401610580565b6040805180820182528281524260208083018281526001600160a01b03871660008181526005845286902094518555905160019094019390935583518581529081019190915290917f895efb821f241e50aca7011c501989268b4e15748c700bf77d48ff447049888c910160405180910390a2919050565b6001600160a01b038116811461134c57600080fd5b600060208284031215611a6d57600080fd5b81356104e481611a46565b634e487b7160e01b600052602160045260246000fd5b60028110611aac57634e487b7160e01b600052602160045260246000fd5b9052565b60208101611abe8284611a8e565b92915050565b600060208284031215611ad657600080fd5b8135600281106104e457600080fd5b600060208284031215611af757600080fd5b5035919050565b60008060408385031215611b1157600080fd5b8235611b1c81611a46565b91506020830135611b2c81611a46565b809150509250929050565b600080600060608486031215611b4c57600080fd5b8335611b5781611a46565b95602085013595506040909401359392505050565b60008060408385031215611b7f57600080fd5b8235611b8a81611a46565b946020939093013593505050565b6020808252825182820181905260009190848201906040850190845b81811015611bd95783516001600160a01b031683529284019291840191600101611bb4565b50909695505050505050565b634e487b7160e01b600052601160045260246000fd5b81810381811115611abe57611abe611be5565b60408101611c1c8285611a8e565b6104e46020830184611a8e565b60058152643a37b5b2b760d91b602082015260400190565b60408152600f60408201526e4f7261636c653a676574507269636560881b606082015260806020820152600061130960808301611c29565b600060208284031215611c8b57600080fd5b815180151581146104e457600080fd5b60408152601760408201527f4f7261636c653a736574436861696e6c696e6b4665656400000000000000000060608201526080602082015260006113096080830160058152641a5b9c1d5d60da1b602082015260400190565b600060208284031215611d0657600080fd5b815160ff811681146104e457600080fd5b805169ffffffffffffffffffff8116811461130c57600080fd5b600080600080600060a08688031215611d4957600080fd5b611d5286611d17565b9450602086015193506040860151925060608601519150611d7560808701611d17565b90509295509295909350565b60408152601660408201527513dc9858db194e9cd95d115490cd0d8c8d95985d5b1d60521b60608201526080602082015260006113096080830160058152641a5b9c1d5d60da1b602082015260400190565b600060208284031215611de557600080fd5b81516104e481611a46565b6040815260156040820152744f7261636c653a7365744d616e75616c507269636560581b606082015260806020820152600061130960808301611c29565b8082028115828204841417611abe57611abe611be5565b600082611e6257634e487b7160e01b600052601260045260246000fd5b500490565b80820180821115611abe57611abe611be5565b60408152601960408201527f4f7261636c653a64697361626c654d616e75616c507269636500000000000000606082015260806020820152600061130960808301611c29565b60408152601a60408201527f4f7261636c653a6665746368416e645570646174655072696365000000000000606082015260806020820152600061130960808301611c29565b600060018201611f1857611f18611be5565b5060010190565b600181815b80851115611f5a578160001904821115611f4057611f40611be5565b80851615611f4d57918102915b93841c9390800290611f24565b509250929050565b600082611f7157506001611abe565b81611f7e57506000611abe565b8160018114611f945760028114611f9e57611fba565b6001915050611abe565b60ff841115611faf57611faf611be5565b50506001821b611abe565b5060208310610133831016604e8410600b8410161715611fdd575081810a611abe565b611fe78383611f1f565b8060001904821115611ffb57611ffb611be5565b029392505050565b60006104e460ff841683611f62565b60006020828403121561202457600080fd5b5051919050565b60008161203a5761203a611be5565b506000190190565b60ff8281168282160390811115611abe57611abe611be556fea2646970667358221220a49d3c5ae39d779ae77a3c3b00d694ac2d537ed5fad18be890b080ad6e2b154364736f6c63430008150033",
  "linkReferences": {},
  "deployedLinkReferences": {}
}