{
  "_format": "hh-sol-artifact-1",
  "contractName": "Oracle",
  "sourceName": "contracts/core/Oracle.sol",
  "abi": [
    {
      "inputs": [
        {
          "internalType": "address",
          "name": "_owner",
          "type": "address"
        }
      ],
      "stateMutability": "nonpayable",
      "type": "constructor"
    },
    {
      "inputs": [
        {
          "internalType": "address",
          "name": "feed",
          "type": "address"
        }
      ],
      "name": "InvalidFeedContract",
      "type": "error"
    },
    {
      "inputs": [
        {
          "internalType": "address",
          "name": "feed",
          "type": "address"
        },
        {
          "internalType": "uint8",
          "name": "decimals",
          "type": "uint8"
        }
      ],
      "name": "InvalidFeedDecimals",
      "type": "error"
    },
    {
      "inputs": [
        {
          "internalType": "address",
          "name": "token",
          "type": "address"
        },
        {
          "internalType": "uint256",
          "name": "price",
          "type": "uint256"
        }
      ],
      "name": "InvalidManualPrice",
      "type": "error"
    },
    {
      "inputs": [
        {
          "internalType": "address",
          "name": "token",
          "type": "address"
        },
        {
          "internalType": "address",
          "name": "feed",
          "type": "address"
        }
      ],
      "name": "InvalidOraclePrice",
      "type": "error"
    },
    {
      "inputs": [
        {
          "internalType": "uint256",
          "name": "period",
          "type": "uint256"
        }
      ],
      "name": "InvalidStalePeriod",
      "type": "error"
    },
    {
      "inputs": [
        {
          "internalType": "address",
          "name": "vault",
          "type": "address"
        },
        {
          "internalType": "uint256",
          "name": "minRate",
          "type": "uint256"
        },
        {
          "internalType": "uint256",
          "name": "maxRate",
          "type": "uint256"
        }
      ],
      "name": "InvalidVaultBounds",
      "type": "error"
    },
    {
      "inputs": [
        {
          "internalType": "address",
          "name": "vault",
          "type": "address"
        },
        {
          "internalType": "uint256",
          "name": "rate",
          "type": "uint256"
        }
      ],
      "name": "InvalidVaultExchangeRate",
      "type": "error"
    },
    {
      "inputs": [
        {
          "internalType": "address",
          "name": "token",
          "type": "address"
        }
      ],
      "name": "NoFallbackPrice",
      "type": "error"
    },
    {
      "inputs": [
        {
          "internalType": "address",
          "name": "token",
          "type": "address"
        }
      ],
      "name": "NoPriceFeed",
      "type": "error"
    },
    {
      "inputs": [
        {
          "internalType": "address",
          "name": "oracle",
          "type": "address"
        },
        {
          "internalType": "uint256",
          "name": "timestamp",
          "type": "uint256"
        }
      ],
      "name": "OraclePaused",
      "type": "error"
    },
    {
      "inputs": [
        {
          "internalType": "address",
          "name": "owner",
          "type": "address"
        }
      ],
      "name": "OwnableInvalidOwner",
      "type": "error"
    },
    {
      "inputs": [
        {
          "internalType": "address",
          "name": "account",
          "type": "address"
        }
      ],
      "name": "OwnableUnauthorizedAccount",
      "type": "error"
    },
    {
      "inputs": [
        {
          "internalType": "address",
          "name": "token",
          "type": "address"
        }
      ],
      "name": "RecursiveResolution",
      "type": "error"
    },
    {
      "inputs": [
        {
          "internalType": "address",
          "name": "token",
          "type": "address"
        }
      ],
      "name": "StaleFallback",
      "type": "error"
    },
    {
      "inputs": [
        {
          "internalType": "address",
          "name": "token",
          "type": "address"
        },
        {
          "internalType": "uint256",
          "name": "updatedAt",
          "type": "uint256"
        },
        {
          "internalType": "uint256",
          "name": "currentTime",
          "type": "uint256"
        }
      ],
      "name": "StalePrice",
      "type": "error"
    },
    {
      "inputs": [
        {
          "internalType": "address",
          "name": "vault",
          "type": "address"
        },
        {
          "internalType": "uint256",
          "name": "rate",
          "type": "uint256"
        }
      ],
      "name": "SuspiciousVaultRate",
      "type": "error"
    },
    {
      "inputs": [
        {
          "internalType": "string",
          "name": "functionName",
          "type": "string"
        },
        {
          "internalType": "string",
          "name": "field",
          "type": "string"
        }
      ],
      "name": "ZeroAddress",
      "type": "error"
    },
    {
      "anonymous": false,
      "inputs": [
        {
          "indexed": true,
          "internalType": "address",
          "name": "token",
          "type": "address"
        },
        {
          "indexed": true,
          "internalType": "address",
          "name": "feed",
          "type": "address"
        }
      ],
      "name": "ChainlinkFeedSet",
      "type": "event"
    },
    {
      "anonymous": false,
      "inputs": [
        {
          "indexed": true,
          "internalType": "address",
          "name": "vault",
          "type": "address"
        },
        {
          "indexed": true,
          "internalType": "address",
          "name": "underlying",
          "type": "address"
        }
      ],
      "name": "ERC4626Registered",
      "type": "event"
    },
    {
      "anonymous": false,
      "inputs": [
        {
          "indexed": false,
          "internalType": "uint256",
          "name": "newPeriod",
          "type": "uint256"
        }
      ],
      "name": "FallbackStalePeriodUpdated",
      "type": "event"
    },
    {
      "anonymous": false,
      "inputs": [
        {
          "indexed": true,
          "internalType": "address",
          "name": "token",
          "type": "address"
        },
        {
          "indexed": false,
          "internalType": "uint256",
          "name": "price",
          "type": "uint256"
        },
        {
          "indexed": false,
          "internalType": "uint256",
          "name": "timestamp",
          "type": "uint256"
        }
      ],
      "name": "LastValidPriceUpdated",
      "type": "event"
    },
    {
      "anonymous": false,
      "inputs": [
        {
          "indexed": true,
          "internalType": "address",
          "name": "token",
          "type": "address"
        },
        {
          "indexed": false,
          "internalType": "bool",
          "name": "enabled",
          "type": "bool"
        }
      ],
      "name": "ManualModeEnabled",
      "type": "event"
    },
    {
      "anonymous": false,
      "inputs": [
        {
          "indexed": true,
          "internalType": "address",
          "name": "token",
          "type": "address"
        },
        {
          "indexed": false,
          "internalType": "uint256",
          "name": "price",
          "type": "uint256"
        }
      ],
      "name": "ManualPriceSet",
      "type": "event"
    },
    {
      "anonymous": false,
      "inputs": [
        {
          "indexed": true,
          "internalType": "address",
          "name": "token",
          "type": "address"
        },
        {
          "indexed": false,
          "internalType": "uint256",
          "name": "lastValid",
          "type": "uint256"
        },
        {
          "indexed": false,
          "internalType": "uint256",
          "name": "at",
          "type": "uint256"
        },
        {
          "indexed": false,
          "internalType": "string",
          "name": "reason",
          "type": "string"
        }
      ],
      "name": "OracleFallbackUsed",
      "type": "event"
    },
    {
      "anonymous": false,
      "inputs": [
        {
          "indexed": false,
          "internalType": "enum IOracle.OracleMode",
          "name": "oldMode",
          "type": "uint8"
        },
        {
          "indexed": false,
          "internalType": "enum IOracle.OracleMode",
          "name": "newMode",
          "type": "uint8"
        }
      ],
      "name": "OracleModeChanged",
      "type": "event"
    },
    {
      "anonymous": false,
      "inputs": [
        {
          "indexed": true,
          "internalType": "address",
          "name": "previousOwner",
          "type": "address"
        },
        {
          "indexed": true,
          "internalType": "address",
          "name": "newOwner",
          "type": "address"
        }
      ],
      "name": "OwnershipTransferred",
      "type": "event"
    },
    {
      "anonymous": false,
      "inputs": [
        {
          "indexed": false,
          "internalType": "uint256",
          "name": "newPeriod",
          "type": "uint256"
        }
      ],
      "name": "StalePeriodUpdated",
      "type": "event"
    },
    {
      "anonymous": false,
      "inputs": [
        {
          "indexed": true,
          "internalType": "address",
          "name": "vault",
          "type": "address"
        },
        {
          "indexed": false,
          "internalType": "uint256",
          "name": "minRate",
          "type": "uint256"
        },
        {
          "indexed": false,
          "internalType": "uint256",
          "name": "maxRate",
          "type": "uint256"
        }
      ],
      "name": "VaultRateBoundsSet",
      "type": "event"
    },
    {
      "inputs": [
        {
          "internalType": "address",
          "name": "",
          "type": "address"
        }
      ],
      "name": "chainlinkFeeds",
      "outputs": [
        {
          "internalType": "address",
          "name": "",
          "type": "address"
        }
      ],
      "stateMutability": "view",
      "type": "function"
    },
    {
      "inputs": [
        {
          "internalType": "address",
          "name": "token",
          "type": "address"
        }
      ],
      "name": "disableManualPrice",
      "outputs": [],
      "stateMutability": "nonpayable",
      "type": "function"
    },
    {
      "inputs": [
        {
          "internalType": "address",
          "name": "",
          "type": "address"
        }
      ],
      "name": "erc4626Underlying",
      "outputs": [
        {
          "internalType": "address",
          "name": "",
          "type": "address"
        }
      ],
      "stateMutability": "view",
      "type": "function"
    },
    {
      "inputs": [],
      "name": "fallbackStalePeriod",
      "outputs": [
        {
          "internalType": "uint256",
          "name": "",
          "type": "uint256"
        }
      ],
      "stateMutability": "view",
      "type": "function"
    },
    {
      "inputs": [
        {
          "internalType": "address",
          "name": "token",
          "type": "address"
        }
      ],
      "name": "fetchAndUpdatePrice",
      "outputs": [
        {
          "internalType": "uint256",
          "name": "",
          "type": "uint256"
        }
      ],
      "stateMutability": "nonpayable",
      "type": "function"
    },
    {
      "inputs": [
        {
          "internalType": "address",
          "name": "token",
          "type": "address"
        }
      ],
      "name": "getPrice",
      "outputs": [
        {
          "internalType": "uint256",
          "name": "price",
          "type": "uint256"
        }
      ],
      "stateMutability": "view",
      "type": "function"
    },
    {
      "inputs": [
        {
          "internalType": "address",
          "name": "token",
          "type": "address"
        }
      ],
      "name": "getPriceAge",
      "outputs": [
        {
          "internalType": "uint256",
          "name": "age",
          "type": "uint256"
        }
      ],
      "stateMutability": "view",
      "type": "function"
    },
    {
      "inputs": [
        {
          "internalType": "address",
          "name": "",
          "type": "address"
        }
      ],
      "name": "isManual",
      "outputs": [
        {
          "internalType": "bool",
          "name": "",
          "type": "bool"
        }
      ],
      "stateMutability": "view",
      "type": "function"
    },
    {
      "inputs": [
        {
          "internalType": "address",
          "name": "token",
          "type": "address"
        }
      ],
      "name": "isPriceFresh",
      "outputs": [
        {
          "internalType": "bool",
          "name": "isFresh",
          "type": "bool"
        }
      ],
      "stateMutability": "view",
      "type": "function"
    },
    {
      "inputs": [
        {
          "internalType": "address",
          "name": "",
          "type": "address"
        }
      ],
      "name": "lastValidPrice",
      "outputs": [
        {
          "internalType": "uint256",
          "name": "price",
          "type": "uint256"
        },
        {
          "internalType": "uint256",
          "name": "timestamp",
          "type": "uint256"
        }
      ],
      "stateMutability": "view",
      "type": "function"
    },
    {
      "inputs": [
        {
          "internalType": "address",
          "name": "",
          "type": "address"
        }
      ],
      "name": "manualPrices",
      "outputs": [
        {
          "internalType": "uint256",
          "name": "",
          "type": "uint256"
        }
      ],
      "stateMutability": "view",
      "type": "function"
    },
    {
      "inputs": [],
      "name": "mode",
      "outputs": [
        {
          "internalType": "enum IOracle.OracleMode",
          "name": "",
          "type": "uint8"
        }
      ],
      "stateMutability": "view",
      "type": "function"
    },
    {
      "inputs": [],
      "name": "owner",
      "outputs": [
        {
          "internalType": "address",
          "name": "",
          "type": "address"
        }
      ],
      "stateMutability": "view",
      "type": "function"
    },
    {
      "inputs": [],
      "name": "renounceOwnership",
      "outputs": [],
      "stateMutability": "nonpayable",
      "type": "function"
    },
    {
      "inputs": [
        {
          "internalType": "address",
          "name": "token",
          "type": "address"
        }
      ],
      "name": "resolvePrice",
      "outputs": [
        {
          "internalType": "uint256",
          "name": "price",
          "type": "uint256"
        }
      ],
      "stateMutability": "nonpayable",
      "type": "function"
    },
    {
      "inputs": [
        {
          "internalType": "address",
          "name": "token",
          "type": "address"
        },
        {
          "internalType": "address",
          "name": "feed",
          "type": "address"
        }
      ],
      "name": "setChainlinkFeed",
      "outputs": [],
      "stateMutability": "nonpayable",
      "type": "function"
    },
    {
      "inputs": [
        {
          "internalType": "address",
          "name": "vault",
          "type": "address"
        },
        {
          "internalType": "address",
          "name": "underlying",
          "type": "address"
        }
      ],
      "name": "setERC4626Vault",
      "outputs": [],
      "stateMutability": "nonpayable",
      "type": "function"
    },
    {
      "inputs": [
        {
          "internalType": "uint256",
          "name": "period",
          "type": "uint256"
        }
      ],
      "name": "setFallbackStalePeriod",
      "outputs": [],
      "stateMutability": "nonpayable",
      "type": "function"
    },
    {
      "inputs": [
        {
          "internalType": "address",
          "name": "token",
          "type": "address"
        },
        {
          "internalType": "uint256",
          "name": "price",
          "type": "uint256"
        }
      ],
      "name": "setManualPrice",
      "outputs": [],
      "stateMutability": "nonpayable",
      "type": "function"
    },
    {
      "inputs": [
        {
          "internalType": "enum IOracle.OracleMode",
          "name": "newMode",
          "type": "uint8"
        }
      ],
      "name": "setOracleMode",
      "outputs": [],
      "stateMutability": "nonpayable",
      "type": "function"
    },
    {
      "inputs": [
        {
          "internalType": "uint256",
          "name": "period",
          "type": "uint256"
        }
      ],
      "name": "setStalePeriod",
      "outputs": [],
      "stateMutability": "nonpayable",
      "type": "function"
    },
    {
      "inputs": [
        {
          "internalType": "address",
          "name": "vault",
          "type": "address"
        },
        {
          "internalType": "uint256",
          "name": "minRate",
          "type": "uint256"
        },
        {
          "internalType": "uint256",
          "name": "maxRate",
          "type": "uint256"
        }
      ],
      "name": "setVaultRateBounds",
      "outputs": [],
      "stateMutability": "nonpayable",
      "type": "function"
    },
    {
      "inputs": [],
      "name": "stalePeriod",
      "outputs": [
        {
          "internalType": "uint256",
          "name": "",
          "type": "uint256"
        }
      ],
      "stateMutability": "view",
      "type": "function"
    },
    {
      "inputs": [
        {
          "internalType": "address",
          "name": "newOwner",
          "type": "address"
        }
      ],
      "name": "transferOwnership",
      "outputs": [],
      "stateMutability": "nonpayable",
      "type": "function"
    },
    {
      "inputs": [
        {
          "internalType": "address",
          "name": "",
          "type": "address"
        }
      ],
      "name": "vaultRateBounds",
      "outputs": [
        {
          "internalType": "uint256",
          "name": "minRate",
          "type": "uint256"
        },
        {
          "internalType": "uint256",
          "name": "maxRate",
          "type": "uint256"
        }
      ],
      "stateMutability": "view",
      "type": "function"
    }
  ],
  "bytecode": "0x6080604052610e10600755610e1060026200001b919062000158565b6008556009805460ff191690553480156200003557600080fd5b5060405162001fbf38038062001fbf833981016040819052620000589162000184565b806001600160a01b0381166200008957604051631e4fbdf760e01b8152600060048201526024015b60405180910390fd5b620000948162000108565b506001600160a01b0381166200010157604080516374b58fcf60e01b81526004810191909152601260448201527127b930b1b6329d31b7b739ba393ab1ba37b960711b606482015260806024820152600560848201526437bbb732b960d91b60a482015260c40162000080565b50620001b6565b600080546001600160a01b038381166001600160a01b0319831681178455604051919092169283917f8be0079c531659141344cd1fd0a4f28419497f9722a3daafe3b4186f6b6457e09190a35050565b80820281158282048414176200017e57634e487b7160e01b600052601160045260246000fd5b92915050565b6000602082840312156200019757600080fd5b81516001600160a01b0381168114620001af57600080fd5b9392505050565b611df980620001c66000396000f3fe608060405234801561001057600080fd5b50600436106101735760003560e01c80638da5cb5b116100de578063cfa3d59311610097578063e8c1650011610071578063e8c1650014610389578063ed06a12d146103b2578063f04c98ca146103c5578063f2fde38b146103e557600080fd5b8063cfa3d59314610326578063d979303314610339578063e310bd2a1461036257600080fd5b80638da5cb5b146102ac5780638fef24a3146102d1578063a5b36a36146102e4578063a6f4ab2e146102ed578063a95121b514610300578063ced663b01461031357600080fd5b80634316b5a2116101305780634316b5a21461021c57806348c87c511461022f57806369ef32d214610242578063715018a61461025557806371e8023c1461025d5780637f33780a1461027057600080fd5b80630af1a39f146101785780630f5d559d146101a0578063260f9a8b146101c3578063295a5212146101da5780633b82fdeb146101f457806341976e0914610209575b600080fd5b61018b610186366004611810565b6103f8565b60405190151581526020015b60405180910390f35b61018b6101ae366004611810565b60046020526000908152604090205460ff1681565b6101cc60085481565b604051908152602001610197565b6009546101e79060ff1681565b6040516101979190611865565b610207610202366004611879565b61044f565b005b6101cc610217366004611810565b6104bb565b61020761022a36600461189a565b6105f6565b6101cc61023d366004611810565b610660565b6102076102503660046118b3565b6106b1565b6102076108f8565b61020761026b3660046118b3565b61090c565b61029761027e366004611810565b6005602052600090815260409020805460019091015482565b60408051928352602083019190915201610197565b6000546001600160a01b03165b6040516001600160a01b039091168152602001610197565b6102076102df3660046118ec565b610a45565b6101cc60075481565b6102076102fb36600461189a565b610b90565b61020761030e366004611921565b610bff565b610207610321366004611810565b610ec6565b6101cc610334366004611810565b610f4a565b6102b9610347366004611810565b6002602052600090815260409020546001600160a01b031681565b610297610370366004611810565b6006602052600090815260409020805460019091015482565b6102b9610397366004611810565b6001602052600090815260409020546001600160a01b031681565b6101cc6103c0366004611810565b6112ad565b6101cc6103d3366004611810565b60036020526000908152604090205481565b6102076103f3366004611810565b611326565b6001600160a01b0381166000908152600560209081526040808320815180830190925280548252600101549181018290529015801590610448575060075460208201516104459042611963565b11155b9392505050565b610457611364565b6009805460ff811691839160ff1916600183818111156104795761047961182d565b02179055507fa6972b82c1819c55fbb1eb3a5226aab6498a55b1cccd85bcffc44175751eb57381836040516104af929190611976565b60405180910390a15050565b60006001600160a01b0382166104ed576040516374b58fcf60e01b81526004016104e4906119a9565b60405180910390fd5b6001600160a01b03821660009081526005602090815260408083208151808301909252805480835260019091015492820192909252910361054c57604051635a94181960e01b81526001600160a01b03841660048201526024016104e4565b604051630af1a39f60e01b81526001600160a01b03841660048201523090630af1a39f90602401602060405180830381865afa158015610590573d6000803e3d6000fd5b505050506040513d601f19601f820116820180604052508101906105b491906119e1565b6105ef5760208101516040516348da37e960e11b81526001600160a01b038516600482015260248101919091524260448201526064016104e4565b5192915050565b6105fe611364565b600754811015610624576040516301ee48e160e71b8152600481018290526024016104e4565b60088190556040518181527fedd414ac063290211a282c8be3e328fcc6d60e4d1422ab34bc5af9a01736943d906020015b60405180910390a150565b6001600160a01b0381166000908152600560209081526040808320815180830190925280548252600101549181018290529082036106a2575060001992915050565b60208101516104489042611963565b6106b9611364565b6001600160a01b03821615806106d657506001600160a01b038116155b156106f4576040516374b58fcf60e01b81526004016104e490611a03565b806001600160a01b03163b60000361072a5760405163c2b3d6a360e01b81526001600160a01b03821660048201526024016104e4565b60008190506000816001600160a01b031663313ce5676040518163ffffffff1660e01b8152600401602060405180830381865afa15801561076f573d6000803e3d6000fd5b505050506040513d601f19601f820116820180604052508101906107939190611a5c565b905060128160ff1611156107ce5760405163bed0220560e01b81526001600160a01b038416600482015260ff821660248201526044016104e4565b816001600160a01b031663feaf968c6040518163ffffffff1660e01b815260040160a060405180830381865afa925050508015610828575060408051601f3d908101601f1916820190925261082591810190611a99565b60015b6108505760405163c2b3d6a360e01b81526001600160a01b03841660048201526024016104e4565b60008413158061085e575081155b156108875760405163c2b3d6a360e01b81526001600160a01b03891660048201526024016104e4565b50505050506001600160a01b03808516600081815260016020908152604080832080549589166001600160a01b0319909616861790556004909152808220805460ff19169055517fb9b75140a682094a10720170347bc8e03bfd71f1bb59d103cd8dc0782c5256839190a350505050565b610900611364565b61090a6000611391565b565b610914611364565b6001600160a01b038216158061093157506001600160a01b038116155b1561094f576040516374b58fcf60e01b81526004016104e490611ae9565b816001600160a01b03166338d52e0f6040518163ffffffff1660e01b8152600401602060405180830381865afa9250505080156109a9575060408051601f3d908101601f191682019092526109a691810190611b3b565b60015b6109ed5760405162461bcd60e51b8152602060048201526015602482015274125b9d985b1a5908115490cd0d8c8d881d985d5b1d605a1b60448201526064016104e4565b506001600160a01b0382811660008181526002602052604080822080546001600160a01b0319169486169485179055517f456db9889a9cf62250a0d96274761be08bc928b1ea97a2b6e45d9db8b575fa0c9190a35050565b610a4d611364565b6001600160a01b038316610ac257604080516374b58fcf60e01b81526004810191909152601960448201527f4f7261636c653a7365745661756c7452617465426f756e64730000000000000060648201526080602482015260056084820152641d985d5b1d60da1b60a482015260c4016104e4565b811580610acf5750818111155b80610ae2575068056bc75e2d6310000081115b15610b195760405163dceed17360e01b81526001600160a01b038416600482015260248101839052604481018290526064016104e4565b60408051808201825283815260208082018481526001600160a01b038716600081815260068452859020935184559051600190930192909255825185815290810184905290917f97b96731e654217eb1034ea218d533d1b086cd0ba6ba8b09735ef3e70c4d5fd491015b60405180910390a2505050565b610b98611364565b610e10811080610ba95750612a3081115b15610bca576040516301ee48e160e71b8152600481018290526024016104e4565b60078190556040518181527f8e163815dacf2204ab589790672a86e421041804acc4cb85a7caebac33be1b2b90602001610655565b610c07611364565b600160095460ff166001811115610c2057610c2061182d565b03610c46576040516330bcb70560e21b81523060048201524260248201526044016104e4565b6001600160a01b038216610c6d576040516374b58fcf60e01b81526004016104e490611b58565b6402540be400811080610c89575069d3c21bcecceda100000081115b15610cb957604051638366d84d60e01b81526001600160a01b0383166004820152602481018290526044016104e4565b6001600160a01b038216600090815260056020908152604091829020825180840190935280548084526001909101549183019190915215801590610d0d57506007546020820151610d0a9042611963565b11155b15610dbc576000670de0b6b3a7640000610d2f67016345785d8a000082611963565b8351610d3b9190611b96565b610d459190611bad565b90506000670de0b6b3a7640000610d6467016345785d8a000082611bcf565b8451610d709190611b96565b610d7a9190611bad565b905081841080610d8957508084115b15610db957604051638366d84d60e01b81526001600160a01b0386166004820152602481018590526044016104e4565b50505b6001600160a01b038316600081815260036020908152604080832086905560048252808320805460ff191660019081179091558151808301835287815242818501908152868652600585529483902090518155935193019290925590518481527f469ff3a7ada7a8c122e2729e7041dfdabfc5e8b26802fa04d7f00706149c4e24910160405180910390a2604051600181526001600160a01b038416907f782cbde6cfd4fcc41b55a876a6a2983d09080438d1e4316b98042b68025a29a89060200160405180910390a2604080518381524260208201526001600160a01b038516917f895efb821f241e50aca7011c501989268b4e15748c700bf77d48ff447049888c9101610b83565b610ece611364565b6001600160a01b038116610ef5576040516374b58fcf60e01b81526004016104e490611be2565b6001600160a01b0381166000818152600460209081526040808320805460ff19169055519182527f782cbde6cfd4fcc41b55a876a6a2983d09080438d1e4316b98042b68025a29a8910160405180910390a250565b6001600160a01b03811660009081526004602052604081205460ff1615610f8757506001600160a01b031660009081526003602052604090205490565b6001600160a01b03808316600090815260026020526040902054168015610fb25761044883826113e1565b6001600160a01b038084166000908152600160205260409020541680610ff657604051632a4f499d60e21b81526001600160a01b03851660048201526024016104e4565b60008060019050826001600160a01b031663feaf968c6040518163ffffffff1660e01b815260040160a060405180830381865afa925050508015611057575060408051601f3d908101601f1916820190925261105491810190611a99565b60015b61106357506000611189565b600084131580611071575081155b8061108657506007546110848342611963565b115b156110945760009550611183565b6000886001600160a01b031663313ce5676040518163ffffffff1660e01b8152600401602060405180830381865afa1580156110d4573d6000803e3d6000fd5b505050506040513d601f19601f820116820180604052508101906110f89190611a5c565b905084601260ff8316146111565760128260ff16106111365761111c601283611c28565b61112790600a611d25565b6111319082611bad565b611158565b611141826012611c28565b61114c90600a611d25565b6111319082611b96565b805b98506402540be400891080611176575069d3c21bcecceda100000089115b1561118057600097505b50505b50505050505b80156111985750949350505050565b6001600160a01b0386166000908152600560209081526040808320815180830190925280548083526001909101549282019290925291036111f757604051635a94181960e01b81526001600160a01b03881660048201526024016104e4565b60085460208201516112099042611963565b111561123357604051634ebf1f0f60e11b81526001600160a01b03881660048201526024016104e4565b805160408051918252426020830152606090820181905260119082015270436861696e6c696e6b206661696c75726560781b60808201526001600160a01b038816907f1037657730ddbc445dbaba678e03c33d31f7ae7f523c4f5de5f458ea5b837d399060a00160405180910390a2519695505050505050565b6000600160095460ff1660018111156112c8576112c861182d565b036112ee576040516330bcb70560e21b81523060048201524260248201526044016104e4565b6001600160a01b038216611315576040516374b58fcf60e01b81526004016104e490611d34565b61131e8261172a565b90505b919050565b61132e611364565b6001600160a01b03811661135857604051631e4fbdf760e01b8152600060048201526024016104e4565b61136181611391565b50565b6000546001600160a01b0316331461090a5760405163118cdaa760e01b81523360048201526024016104e4565b600080546001600160a01b038381166001600160a01b0319831681178455604051919092169283917f8be0079c531659141344cd1fd0a4f28419497f9722a3daafe3b4186f6b6457e09190a35050565b60006005600a541061140957604051630e5daffd60e11b8152600060048201526024016104e4565b600a805490600061141983611d7a565b91905055506000836001600160a01b031663313ce5676040518163ffffffff1660e01b8152600401602060405180830381865afa15801561145e573d6000803e3d6000fd5b505050506040513d601f19601f820116820180604052508101906114829190611a5c565b90506000836001600160a01b031663313ce5676040518163ffffffff1660e01b8152600401602060405180830381865afa1580156114c4573d6000803e3d6000fd5b505050506040513d601f19601f820116820180604052508101906114e89190611a5c565b905060006114f783600a611d25565b6040516303d1689d60e11b8152600481018290529091506000906001600160a01b038816906307a2d13a90602401602060405180830381865afa158015611542573d6000803e3d6000fd5b505050506040513d601f19601f820116820180604052508101906115669190611d93565b905080158061158357506ec097ce7bc90715b34b9f100000000081115b156115b257604051624df74960e31b81526001600160a01b0388166004820152602481018290526044016104e4565b60006115bf84600a611d25565b6115d1670de0b6b3a764000084611b96565b6115db9190611bad565b905060006115ea86600a611d25565b6115fc670de0b6b3a764000086611b96565b6116069190611bad565b905060008161161d670de0b6b3a764000085611b96565b6116279190611bad565b6001600160a01b038b16600090815260066020908152604080832081518083019092528054808352600190910154928201929092529293501561166b578151611675565b6702c68af0bb1400005b90506000826020015160001461168f578260200151611699565b6729a2241af62c00005b9050808411806116a857508184105b156116d85760405163c55e83d360e01b81526001600160a01b038e166004820152602481018590526044016104e4565b60006116e38d610f4a565b9050670de0b6b3a76400006116f88683611b96565b6117029190611bad565b9b505050505050505050505050600a805490600061171f83611dac565b919050555092915050565b600061173582610f4a565b90506402540be400811080611753575069d3c21bcecceda100000081115b1561178357604051631b27609360e01b81526001600160a01b0383166004820152600060248201526044016104e4565b6040805180820182528281524260208083018281526001600160a01b03871660008181526005845286902094518555905160019094019390935583518581529081019190915290917f895efb821f241e50aca7011c501989268b4e15748c700bf77d48ff447049888c910160405180910390a2919050565b6001600160a01b038116811461136157600080fd5b60006020828403121561182257600080fd5b8135610448816117fb565b634e487b7160e01b600052602160045260246000fd5b6002811061186157634e487b7160e01b600052602160045260246000fd5b9052565b602081016118738284611843565b92915050565b60006020828403121561188b57600080fd5b81356002811061044857600080fd5b6000602082840312156118ac57600080fd5b5035919050565b600080604083850312156118c657600080fd5b82356118d1816117fb565b915060208301356118e1816117fb565b809150509250929050565b60008060006060848603121561190157600080fd5b833561190c816117fb565b95602085013595506040909401359392505050565b6000806040838503121561193457600080fd5b823561193f816117fb565b946020939093013593505050565b634e487b7160e01b600052601160045260246000fd5b818103818111156118735761187361194d565b604081016119848285611843565b6104486020830184611843565b60058152643a37b5b2b760d91b602082015260400190565b60408152600f60408201526e4f7261636c653a676574507269636560881b606082015260806020820152600061131e60808301611991565b6000602082840312156119f357600080fd5b8151801515811461044857600080fd5b60408152601760408201527f4f7261636c653a736574436861696e6c696e6b46656564000000000000000000606082015260806020820152600061131e6080830160058152641a5b9c1d5d60da1b602082015260400190565b600060208284031215611a6e57600080fd5b815160ff8116811461044857600080fd5b805169ffffffffffffffffffff8116811461132157600080fd5b600080600080600060a08688031215611ab157600080fd5b611aba86611a7f565b9450602086015193506040860151925060608601519150611add60808701611a7f565b90509295509295909350565b60408152601660408201527513dc9858db194e9cd95d115490cd0d8c8d95985d5b1d60521b606082015260806020820152600061131e6080830160058152641a5b9c1d5d60da1b602082015260400190565b600060208284031215611b4d57600080fd5b8151610448816117fb565b6040815260156040820152744f7261636c653a7365744d616e75616c507269636560581b606082015260806020820152600061131e60808301611991565b80820281158282048414176118735761187361194d565b600082611bca57634e487b7160e01b600052601260045260246000fd5b500490565b808201808211156118735761187361194d565b60408152601960408201527f4f7261636c653a64697361626c654d616e75616c507269636500000000000000606082015260806020820152600061131e60808301611991565b60ff82811682821603908111156118735761187361194d565b600181815b80851115611c7c578160001904821115611c6257611c6261194d565b80851615611c6f57918102915b93841c9390800290611c46565b509250929050565b600082611c9357506001611873565b81611ca057506000611873565b8160018114611cb65760028114611cc057611cdc565b6001915050611873565b60ff841115611cd157611cd161194d565b50506001821b611873565b5060208310610133831016604e8410600b8410161715611cff575081810a611873565b611d098383611c41565b8060001904821115611d1d57611d1d61194d565b029392505050565b600061044860ff841683611c84565b60408152601a60408201527f4f7261636c653a6665746368416e645570646174655072696365000000000000606082015260806020820152600061131e60808301611991565b600060018201611d8c57611d8c61194d565b5060010190565b600060208284031215611da557600080fd5b5051919050565b600081611dbb57611dbb61194d565b50600019019056fea26469706673582212200f1706285a269c527073902b9b9dcf335f04deefadfb48ec76a8280cf3c4ef0c64736f6c63430008150033",
  "linkReferences": {},
  "deployedLinkReferences": {}
}