{
  "_format": "hh-sol-artifact-1",
  "contractName": "Oracle",
  "sourceName": "contracts/core/Oracle.sol",
  "abi": [
    {
      "inputs": [
        {
          "internalType": "address",
          "name": "_owner",
          "type": "address"
        }
      ],
      "stateMutability": "nonpayable",
      "type": "constructor"
    },
    {
      "inputs": [
        {
          "internalType": "address",
          "name": "feed",
          "type": "address"
        }
      ],
      "name": "InvalidFeedContract",
      "type": "error"
    },
    {
      "inputs": [
        {
          "internalType": "address",
          "name": "feed",
          "type": "address"
        },
        {
          "internalType": "uint8",
          "name": "decimals",
          "type": "uint8"
        }
      ],
      "name": "InvalidFeedDecimals",
      "type": "error"
    },
    {
      "inputs": [
        {
          "internalType": "address",
          "name": "token",
          "type": "address"
        },
        {
          "internalType": "uint256",
          "name": "price",
          "type": "uint256"
        }
      ],
      "name": "InvalidManualPrice",
      "type": "error"
    },
    {
      "inputs": [
        {
          "internalType": "address",
          "name": "token",
          "type": "address"
        },
        {
          "internalType": "address",
          "name": "feed",
          "type": "address"
        }
      ],
      "name": "InvalidOraclePrice",
      "type": "error"
    },
    {
      "inputs": [
        {
          "internalType": "uint256",
          "name": "period",
          "type": "uint256"
        }
      ],
      "name": "InvalidStalePeriod",
      "type": "error"
    },
    {
      "inputs": [
        {
          "internalType": "address",
          "name": "vault",
          "type": "address"
        },
        {
          "internalType": "uint256",
          "name": "minRate",
          "type": "uint256"
        },
        {
          "internalType": "uint256",
          "name": "maxRate",
          "type": "uint256"
        }
      ],
      "name": "InvalidVaultBounds",
      "type": "error"
    },
    {
      "inputs": [
        {
          "internalType": "address",
          "name": "vault",
          "type": "address"
        },
        {
          "internalType": "uint256",
          "name": "rate",
          "type": "uint256"
        }
      ],
      "name": "InvalidVaultExchangeRate",
      "type": "error"
    },
    {
      "inputs": [
        {
          "internalType": "address",
          "name": "token",
          "type": "address"
        }
      ],
      "name": "NoFallbackPrice",
      "type": "error"
    },
    {
      "inputs": [
        {
          "internalType": "address",
          "name": "token",
          "type": "address"
        }
      ],
      "name": "NoPriceFeed",
      "type": "error"
    },
    {
      "inputs": [
        {
          "internalType": "address",
          "name": "oracle",
          "type": "address"
        },
        {
          "internalType": "uint256",
          "name": "timestamp",
          "type": "uint256"
        }
      ],
      "name": "OraclePaused",
      "type": "error"
    },
    {
      "inputs": [
        {
          "internalType": "address",
          "name": "owner",
          "type": "address"
        }
      ],
      "name": "OwnableInvalidOwner",
      "type": "error"
    },
    {
      "inputs": [
        {
          "internalType": "address",
          "name": "account",
          "type": "address"
        }
      ],
      "name": "OwnableUnauthorizedAccount",
      "type": "error"
    },
    {
      "inputs": [
        {
          "internalType": "address",
          "name": "token",
          "type": "address"
        }
      ],
      "name": "RecursiveResolution",
      "type": "error"
    },
    {
      "inputs": [
        {
          "internalType": "address",
          "name": "token",
          "type": "address"
        }
      ],
      "name": "StaleFallback",
      "type": "error"
    },
    {
      "inputs": [
        {
          "internalType": "address",
          "name": "token",
          "type": "address"
        },
        {
          "internalType": "uint256",
          "name": "updatedAt",
          "type": "uint256"
        },
        {
          "internalType": "uint256",
          "name": "currentTime",
          "type": "uint256"
        }
      ],
      "name": "StalePrice",
      "type": "error"
    },
    {
      "inputs": [
        {
          "internalType": "address",
          "name": "vault",
          "type": "address"
        },
        {
          "internalType": "uint256",
          "name": "rate",
          "type": "uint256"
        }
      ],
      "name": "SuspiciousVaultRate",
      "type": "error"
    },
    {
      "inputs": [
        {
          "internalType": "string",
          "name": "functionName",
          "type": "string"
        },
        {
          "internalType": "string",
          "name": "field",
          "type": "string"
        }
      ],
      "name": "ZeroAddress",
      "type": "error"
    },
    {
      "anonymous": false,
      "inputs": [
        {
          "indexed": true,
          "internalType": "address",
          "name": "token",
          "type": "address"
        },
        {
          "indexed": true,
          "internalType": "address",
          "name": "feed",
          "type": "address"
        }
      ],
      "name": "ChainlinkFeedSet",
      "type": "event"
    },
    {
      "anonymous": false,
      "inputs": [
        {
          "indexed": true,
          "internalType": "address",
          "name": "vault",
          "type": "address"
        },
        {
          "indexed": true,
          "internalType": "address",
          "name": "underlying",
          "type": "address"
        }
      ],
      "name": "ERC4626Registered",
      "type": "event"
    },
    {
      "anonymous": false,
      "inputs": [
        {
          "indexed": false,
          "internalType": "uint256",
          "name": "newPeriod",
          "type": "uint256"
        }
      ],
      "name": "FallbackStalePeriodUpdated",
      "type": "event"
    },
    {
      "anonymous": false,
      "inputs": [
        {
          "indexed": true,
          "internalType": "address",
          "name": "token",
          "type": "address"
        },
        {
          "indexed": false,
          "internalType": "uint256",
          "name": "price",
          "type": "uint256"
        },
        {
          "indexed": false,
          "internalType": "uint256",
          "name": "timestamp",
          "type": "uint256"
        }
      ],
      "name": "LastValidPriceUpdated",
      "type": "event"
    },
    {
      "anonymous": false,
      "inputs": [
        {
          "indexed": true,
          "internalType": "address",
          "name": "token",
          "type": "address"
        },
        {
          "indexed": false,
          "internalType": "bool",
          "name": "enabled",
          "type": "bool"
        }
      ],
      "name": "ManualModeEnabled",
      "type": "event"
    },
    {
      "anonymous": false,
      "inputs": [
        {
          "indexed": true,
          "internalType": "address",
          "name": "token",
          "type": "address"
        },
        {
          "indexed": false,
          "internalType": "uint256",
          "name": "price",
          "type": "uint256"
        }
      ],
      "name": "ManualPriceSet",
      "type": "event"
    },
    {
      "anonymous": false,
      "inputs": [
        {
          "indexed": true,
          "internalType": "address",
          "name": "token",
          "type": "address"
        },
        {
          "indexed": false,
          "internalType": "uint256",
          "name": "lastValid",
          "type": "uint256"
        },
        {
          "indexed": false,
          "internalType": "uint256",
          "name": "at",
          "type": "uint256"
        },
        {
          "indexed": false,
          "internalType": "string",
          "name": "reason",
          "type": "string"
        }
      ],
      "name": "OracleFallbackUsed",
      "type": "event"
    },
    {
      "anonymous": false,
      "inputs": [
        {
          "indexed": false,
          "internalType": "enum IOracle.OracleMode",
          "name": "oldMode",
          "type": "uint8"
        },
        {
          "indexed": false,
          "internalType": "enum IOracle.OracleMode",
          "name": "newMode",
          "type": "uint8"
        }
      ],
      "name": "OracleModeChanged",
      "type": "event"
    },
    {
      "anonymous": false,
      "inputs": [
        {
          "indexed": true,
          "internalType": "address",
          "name": "previousOwner",
          "type": "address"
        },
        {
          "indexed": true,
          "internalType": "address",
          "name": "newOwner",
          "type": "address"
        }
      ],
      "name": "OwnershipTransferred",
      "type": "event"
    },
    {
      "anonymous": false,
      "inputs": [
        {
          "indexed": false,
          "internalType": "uint256",
          "name": "newPeriod",
          "type": "uint256"
        }
      ],
      "name": "StalePeriodUpdated",
      "type": "event"
    },
    {
      "anonymous": false,
      "inputs": [
        {
          "indexed": true,
          "internalType": "address",
          "name": "vault",
          "type": "address"
        },
        {
          "indexed": false,
          "internalType": "uint256",
          "name": "minRate",
          "type": "uint256"
        },
        {
          "indexed": false,
          "internalType": "uint256",
          "name": "maxRate",
          "type": "uint256"
        }
      ],
      "name": "VaultRateBoundsSet",
      "type": "event"
    },
    {
      "inputs": [
        {
          "internalType": "address",
          "name": "",
          "type": "address"
        }
      ],
      "name": "chainlinkFeeds",
      "outputs": [
        {
          "internalType": "address",
          "name": "",
          "type": "address"
        }
      ],
      "stateMutability": "view",
      "type": "function"
    },
    {
      "inputs": [
        {
          "internalType": "address",
          "name": "token",
          "type": "address"
        }
      ],
      "name": "disableManualPrice",
      "outputs": [],
      "stateMutability": "nonpayable",
      "type": "function"
    },
    {
      "inputs": [
        {
          "internalType": "address",
          "name": "",
          "type": "address"
        }
      ],
      "name": "erc4626Underlying",
      "outputs": [
        {
          "internalType": "address",
          "name": "",
          "type": "address"
        }
      ],
      "stateMutability": "view",
      "type": "function"
    },
    {
      "inputs": [],
      "name": "fallbackStalePeriod",
      "outputs": [
        {
          "internalType": "uint256",
          "name": "",
          "type": "uint256"
        }
      ],
      "stateMutability": "view",
      "type": "function"
    },
    {
      "inputs": [
        {
          "internalType": "address",
          "name": "token",
          "type": "address"
        }
      ],
      "name": "fetchAndUpdatePrice",
      "outputs": [
        {
          "internalType": "uint256",
          "name": "",
          "type": "uint256"
        }
      ],
      "stateMutability": "nonpayable",
      "type": "function"
    },
    {
      "inputs": [
        {
          "internalType": "address",
          "name": "token",
          "type": "address"
        }
      ],
      "name": "getPrice",
      "outputs": [
        {
          "internalType": "uint256",
          "name": "price",
          "type": "uint256"
        }
      ],
      "stateMutability": "view",
      "type": "function"
    },
    {
      "inputs": [
        {
          "internalType": "address",
          "name": "token",
          "type": "address"
        }
      ],
      "name": "getPriceAge",
      "outputs": [
        {
          "internalType": "uint256",
          "name": "age",
          "type": "uint256"
        }
      ],
      "stateMutability": "view",
      "type": "function"
    },
    {
      "inputs": [
        {
          "internalType": "address",
          "name": "",
          "type": "address"
        }
      ],
      "name": "isManual",
      "outputs": [
        {
          "internalType": "bool",
          "name": "",
          "type": "bool"
        }
      ],
      "stateMutability": "view",
      "type": "function"
    },
    {
      "inputs": [
        {
          "internalType": "address",
          "name": "token",
          "type": "address"
        }
      ],
      "name": "isPriceFresh",
      "outputs": [
        {
          "internalType": "bool",
          "name": "isFresh",
          "type": "bool"
        }
      ],
      "stateMutability": "view",
      "type": "function"
    },
    {
      "inputs": [
        {
          "internalType": "address",
          "name": "",
          "type": "address"
        }
      ],
      "name": "lastValidPrice",
      "outputs": [
        {
          "internalType": "uint256",
          "name": "price",
          "type": "uint256"
        },
        {
          "internalType": "uint256",
          "name": "timestamp",
          "type": "uint256"
        }
      ],
      "stateMutability": "view",
      "type": "function"
    },
    {
      "inputs": [
        {
          "internalType": "address",
          "name": "",
          "type": "address"
        }
      ],
      "name": "manualPrices",
      "outputs": [
        {
          "internalType": "uint256",
          "name": "",
          "type": "uint256"
        }
      ],
      "stateMutability": "view",
      "type": "function"
    },
    {
      "inputs": [],
      "name": "mode",
      "outputs": [
        {
          "internalType": "enum IOracle.OracleMode",
          "name": "",
          "type": "uint8"
        }
      ],
      "stateMutability": "view",
      "type": "function"
    },
    {
      "inputs": [],
      "name": "owner",
      "outputs": [
        {
          "internalType": "address",
          "name": "",
          "type": "address"
        }
      ],
      "stateMutability": "view",
      "type": "function"
    },
    {
      "inputs": [],
      "name": "renounceOwnership",
      "outputs": [],
      "stateMutability": "nonpayable",
      "type": "function"
    },
    {
      "inputs": [
        {
          "internalType": "address",
          "name": "token",
          "type": "address"
        }
      ],
      "name": "resolvePrice",
      "outputs": [
        {
          "internalType": "uint256",
          "name": "price",
          "type": "uint256"
        }
      ],
      "stateMutability": "nonpayable",
      "type": "function"
    },
    {
      "inputs": [
        {
          "internalType": "address",
          "name": "token",
          "type": "address"
        },
        {
          "internalType": "address",
          "name": "feed",
          "type": "address"
        }
      ],
      "name": "setChainlinkFeed",
      "outputs": [],
      "stateMutability": "nonpayable",
      "type": "function"
    },
    {
      "inputs": [
        {
          "internalType": "address",
          "name": "vault",
          "type": "address"
        },
        {
          "internalType": "address",
          "name": "underlying",
          "type": "address"
        }
      ],
      "name": "setERC4626Vault",
      "outputs": [],
      "stateMutability": "nonpayable",
      "type": "function"
    },
    {
      "inputs": [
        {
          "internalType": "uint256",
          "name": "period",
          "type": "uint256"
        }
      ],
      "name": "setFallbackStalePeriod",
      "outputs": [],
      "stateMutability": "nonpayable",
      "type": "function"
    },
    {
      "inputs": [
        {
          "internalType": "address",
          "name": "token",
          "type": "address"
        },
        {
          "internalType": "uint256",
          "name": "price",
          "type": "uint256"
        }
      ],
      "name": "setManualPrice",
      "outputs": [],
      "stateMutability": "nonpayable",
      "type": "function"
    },
    {
      "inputs": [
        {
          "internalType": "enum IOracle.OracleMode",
          "name": "newMode",
          "type": "uint8"
        }
      ],
      "name": "setOracleMode",
      "outputs": [],
      "stateMutability": "nonpayable",
      "type": "function"
    },
    {
      "inputs": [
        {
          "internalType": "uint256",
          "name": "period",
          "type": "uint256"
        }
      ],
      "name": "setStalePeriod",
      "outputs": [],
      "stateMutability": "nonpayable",
      "type": "function"
    },
    {
      "inputs": [
        {
          "internalType": "address",
          "name": "vault",
          "type": "address"
        },
        {
          "internalType": "uint256",
          "name": "minRate",
          "type": "uint256"
        },
        {
          "internalType": "uint256",
          "name": "maxRate",
          "type": "uint256"
        }
      ],
      "name": "setVaultRateBounds",
      "outputs": [],
      "stateMutability": "nonpayable",
      "type": "function"
    },
    {
      "inputs": [],
      "name": "stalePeriod",
      "outputs": [
        {
          "internalType": "uint256",
          "name": "",
          "type": "uint256"
        }
      ],
      "stateMutability": "view",
      "type": "function"
    },
    {
      "inputs": [
        {
          "internalType": "address",
          "name": "newOwner",
          "type": "address"
        }
      ],
      "name": "transferOwnership",
      "outputs": [],
      "stateMutability": "nonpayable",
      "type": "function"
    },
    {
      "inputs": [
        {
          "internalType": "address",
          "name": "",
          "type": "address"
        }
      ],
      "name": "vaultRateBounds",
      "outputs": [
        {
          "internalType": "uint256",
          "name": "minRate",
          "type": "uint256"
        },
        {
          "internalType": "uint256",
          "name": "maxRate",
          "type": "uint256"
        }
      ],
      "stateMutability": "view",
      "type": "function"
    }
  ],
  "bytecode": "0x6080604052610e10600755610e1060026200001b919062000158565b6008556009805460ff191690553480156200003557600080fd5b5060405162001fc838038062001fc8833981016040819052620000589162000184565b806001600160a01b0381166200008957604051631e4fbdf760e01b8152600060048201526024015b60405180910390fd5b620000948162000108565b506001600160a01b0381166200010157604080516374b58fcf60e01b81526004810191909152601260448201527127b930b1b6329d31b7b739ba393ab1ba37b960711b606482015260806024820152600560848201526437bbb732b960d91b60a482015260c40162000080565b50620001b6565b600080546001600160a01b038381166001600160a01b0319831681178455604051919092169283917f8be0079c531659141344cd1fd0a4f28419497f9722a3daafe3b4186f6b6457e09190a35050565b80820281158282048414176200017e57634e487b7160e01b600052601160045260246000fd5b92915050565b6000602082840312156200019757600080fd5b81516001600160a01b0381168114620001af57600080fd5b9392505050565b611e0280620001c66000396000f3fe608060405234801561001057600080fd5b50600436106101735760003560e01c80638da5cb5b116100de578063cfa3d59311610097578063e8c1650011610071578063e8c1650014610389578063ed06a12d146103b2578063f04c98ca146103c5578063f2fde38b146103e557600080fd5b8063cfa3d59314610326578063d979303314610339578063e310bd2a1461036257600080fd5b80638da5cb5b146102ac5780638fef24a3146102d1578063a5b36a36146102e4578063a6f4ab2e146102ed578063a95121b514610300578063ced663b01461031357600080fd5b80634316b5a2116101305780634316b5a21461021c57806348c87c511461022f57806369ef32d214610242578063715018a61461025557806371e8023c1461025d5780637f33780a1461027057600080fd5b80630af1a39f146101785780630f5d559d146101a0578063260f9a8b146101c3578063295a5212146101da5780633b82fdeb146101f457806341976e0914610209575b600080fd5b61018b610186366004611819565b6103f8565b60405190151581526020015b60405180910390f35b61018b6101ae366004611819565b60046020526000908152604090205460ff1681565b6101cc60085481565b604051908152602001610197565b6009546101e79060ff1681565b604051610197919061186e565b610207610202366004611882565b61044f565b005b6101cc610217366004611819565b6104bb565b61020761022a3660046118a3565b6105f6565b6101cc61023d366004611819565b610660565b6102076102503660046118bc565b6106b1565b6102076108f8565b61020761026b3660046118bc565b61090c565b61029761027e366004611819565b6005602052600090815260409020805460019091015482565b60408051928352602083019190915201610197565b6000546001600160a01b03165b6040516001600160a01b039091168152602001610197565b6102076102df3660046118f5565b610a45565b6101cc60075481565b6102076102fb3660046118a3565b610b90565b61020761030e36600461192a565b610bff565b610207610321366004611819565b610ec9565b6101cc610334366004611819565b610f4d565b6102b9610347366004611819565b6002602052600090815260409020546001600160a01b031681565b610297610370366004611819565b6006602052600090815260409020805460019091015482565b6102b9610397366004611819565b6001602052600090815260409020546001600160a01b031681565b6101cc6103c0366004611819565b6112b3565b6101cc6103d3366004611819565b60036020526000908152604090205481565b6102076103f3366004611819565b61132c565b6001600160a01b038116600090815260056020908152604080832081518083019092528054825260010154918101829052901580159061044857506007546020820151610445904261196c565b11155b9392505050565b61045761136a565b6009805460ff811691839160ff19166001838181111561047957610479611836565b02179055507fa6972b82c1819c55fbb1eb3a5226aab6498a55b1cccd85bcffc44175751eb57381836040516104af92919061197f565b60405180910390a15050565b60006001600160a01b0382166104ed576040516374b58fcf60e01b81526004016104e4906119b2565b60405180910390fd5b6001600160a01b03821660009081526005602090815260408083208151808301909252805480835260019091015492820192909252910361054c57604051635a94181960e01b81526001600160a01b03841660048201526024016104e4565b604051630af1a39f60e01b81526001600160a01b03841660048201523090630af1a39f90602401602060405180830381865afa158015610590573d6000803e3d6000fd5b505050506040513d601f19601f820116820180604052508101906105b491906119ea565b6105ef5760208101516040516348da37e960e11b81526001600160a01b038516600482015260248101919091524260448201526064016104e4565b5192915050565b6105fe61136a565b600754811015610624576040516301ee48e160e71b8152600481018290526024016104e4565b60088190556040518181527fedd414ac063290211a282c8be3e328fcc6d60e4d1422ab34bc5af9a01736943d906020015b60405180910390a150565b6001600160a01b0381166000908152600560209081526040808320815180830190925280548252600101549181018290529082036106a2575060001992915050565b6020810151610448904261196c565b6106b961136a565b6001600160a01b03821615806106d657506001600160a01b038116155b156106f4576040516374b58fcf60e01b81526004016104e490611a0c565b806001600160a01b03163b60000361072a5760405163c2b3d6a360e01b81526001600160a01b03821660048201526024016104e4565b60008190506000816001600160a01b031663313ce5676040518163ffffffff1660e01b8152600401602060405180830381865afa15801561076f573d6000803e3d6000fd5b505050506040513d601f19601f820116820180604052508101906107939190611a65565b905060128160ff1611156107ce5760405163bed0220560e01b81526001600160a01b038416600482015260ff821660248201526044016104e4565b816001600160a01b031663feaf968c6040518163ffffffff1660e01b815260040160a060405180830381865afa925050508015610828575060408051601f3d908101601f1916820190925261082591810190611aa2565b60015b6108505760405163c2b3d6a360e01b81526001600160a01b03841660048201526024016104e4565b60008413158061085e575081155b156108875760405163c2b3d6a360e01b81526001600160a01b03891660048201526024016104e4565b50505050506001600160a01b03808516600081815260016020908152604080832080549589166001600160a01b0319909616861790556004909152808220805460ff19169055517fb9b75140a682094a10720170347bc8e03bfd71f1bb59d103cd8dc0782c5256839190a350505050565b61090061136a565b61090a6000611397565b565b61091461136a565b6001600160a01b038216158061093157506001600160a01b038116155b1561094f576040516374b58fcf60e01b81526004016104e490611af2565b816001600160a01b03166338d52e0f6040518163ffffffff1660e01b8152600401602060405180830381865afa9250505080156109a9575060408051601f3d908101601f191682019092526109a691810190611b44565b60015b6109ed5760405162461bcd60e51b8152602060048201526015602482015274125b9d985b1a5908115490cd0d8c8d881d985d5b1d605a1b60448201526064016104e4565b506001600160a01b0382811660008181526002602052604080822080546001600160a01b0319169486169485179055517f456db9889a9cf62250a0d96274761be08bc928b1ea97a2b6e45d9db8b575fa0c9190a35050565b610a4d61136a565b6001600160a01b038316610ac257604080516374b58fcf60e01b81526004810191909152601960448201527f4f7261636c653a7365745661756c7452617465426f756e64730000000000000060648201526080602482015260056084820152641d985d5b1d60da1b60a482015260c4016104e4565b811580610acf5750818111155b80610ae2575068056bc75e2d6310000081115b15610b195760405163dceed17360e01b81526001600160a01b038416600482015260248101839052604481018290526064016104e4565b60408051808201825283815260208082018481526001600160a01b038716600081815260068452859020935184559051600190930192909255825185815290810184905290917f97b96731e654217eb1034ea218d533d1b086cd0ba6ba8b09735ef3e70c4d5fd491015b60405180910390a2505050565b610b9861136a565b610e10811080610ba95750612a3081115b15610bca576040516301ee48e160e71b8152600481018290526024016104e4565b60078190556040518181527f8e163815dacf2204ab589790672a86e421041804acc4cb85a7caebac33be1b2b90602001610655565b610c0761136a565b600160095460ff166001811115610c2057610c20611836565b03610c46576040516330bcb70560e21b81523060048201524260248201526044016104e4565b6001600160a01b038216610c6d576040516374b58fcf60e01b81526004016104e490611b61565b6402540be400811080610c8c57506c0c9f2c9cd04674edea4000000081115b15610cbc57604051638366d84d60e01b81526001600160a01b0383166004820152602481018290526044016104e4565b6001600160a01b038216600090815260056020908152604091829020825180840190935280548084526001909101549183019190915215801590610d1057506007546020820151610d0d904261196c565b11155b15610dbf576000670de0b6b3a7640000610d3267016345785d8a00008261196c565b8351610d3e9190611b9f565b610d489190611bb6565b90506000670de0b6b3a7640000610d6767016345785d8a000082611bd8565b8451610d739190611b9f565b610d7d9190611bb6565b905081841080610d8c57508084115b15610dbc57604051638366d84d60e01b81526001600160a01b0386166004820152602481018590526044016104e4565b50505b6001600160a01b038316600081815260036020908152604080832086905560048252808320805460ff191660019081179091558151808301835287815242818501908152868652600585529483902090518155935193019290925590518481527f469ff3a7ada7a8c122e2729e7041dfdabfc5e8b26802fa04d7f00706149c4e24910160405180910390a2604051600181526001600160a01b038416907f782cbde6cfd4fcc41b55a876a6a2983d09080438d1e4316b98042b68025a29a89060200160405180910390a2604080518381524260208201526001600160a01b038516917f895efb821f241e50aca7011c501989268b4e15748c700bf77d48ff447049888c9101610b83565b610ed161136a565b6001600160a01b038116610ef8576040516374b58fcf60e01b81526004016104e490611beb565b6001600160a01b0381166000818152600460209081526040808320805460ff19169055519182527f782cbde6cfd4fcc41b55a876a6a2983d09080438d1e4316b98042b68025a29a8910160405180910390a250565b6001600160a01b03811660009081526004602052604081205460ff1615610f8a57506001600160a01b031660009081526003602052604090205490565b6001600160a01b03808316600090815260026020526040902054168015610fb55761044883826113e7565b6001600160a01b038084166000908152600160205260409020541680610ff957604051632a4f499d60e21b81526001600160a01b03851660048201526024016104e4565b60008060019050826001600160a01b031663feaf968c6040518163ffffffff1660e01b815260040160a060405180830381865afa92505050801561105a575060408051601f3d908101601f1916820190925261105791810190611aa2565b60015b6110665750600061118f565b600084131580611074575081155b806110895750600754611087834261196c565b115b156110975760009550611189565b6000886001600160a01b031663313ce5676040518163ffffffff1660e01b8152600401602060405180830381865afa1580156110d7573d6000803e3d6000fd5b505050506040513d601f19601f820116820180604052508101906110fb9190611a65565b905084601260ff8316146111595760128260ff16106111395761111f601283611c31565b61112a90600a611d2e565b6111349082611bb6565b61115b565b611144826012611c31565b61114f90600a611d2e565b6111349082611b9f565b805b98506402540be40089108061117c57506c0c9f2c9cd04674edea4000000089115b1561118657600097505b50505b50505050505b801561119e5750949350505050565b6001600160a01b0386166000908152600560209081526040808320815180830190925280548083526001909101549282019290925291036111fd57604051635a94181960e01b81526001600160a01b03881660048201526024016104e4565b600854602082015161120f904261196c565b111561123957604051634ebf1f0f60e11b81526001600160a01b03881660048201526024016104e4565b805160408051918252426020830152606090820181905260119082015270436861696e6c696e6b206661696c75726560781b60808201526001600160a01b038816907f1037657730ddbc445dbaba678e03c33d31f7ae7f523c4f5de5f458ea5b837d399060a00160405180910390a2519695505050505050565b6000600160095460ff1660018111156112ce576112ce611836565b036112f4576040516330bcb70560e21b81523060048201524260248201526044016104e4565b6001600160a01b03821661131b576040516374b58fcf60e01b81526004016104e490611d3d565b61132482611730565b90505b919050565b61133461136a565b6001600160a01b03811661135e57604051631e4fbdf760e01b8152600060048201526024016104e4565b61136781611397565b50565b6000546001600160a01b0316331461090a5760405163118cdaa760e01b81523360048201526024016104e4565b600080546001600160a01b038381166001600160a01b0319831681178455604051919092169283917f8be0079c531659141344cd1fd0a4f28419497f9722a3daafe3b4186f6b6457e09190a35050565b60006001600a541061140f57604051630e5daffd60e11b8152600060048201526024016104e4565b600a805490600061141f83611d83565b91905055506000836001600160a01b031663313ce5676040518163ffffffff1660e01b8152600401602060405180830381865afa158015611464573d6000803e3d6000fd5b505050506040513d601f19601f820116820180604052508101906114889190611a65565b90506000836001600160a01b031663313ce5676040518163ffffffff1660e01b8152600401602060405180830381865afa1580156114ca573d6000803e3d6000fd5b505050506040513d601f19601f820116820180604052508101906114ee9190611a65565b905060006114fd83600a611d2e565b6040516303d1689d60e11b8152600481018290529091506000906001600160a01b038816906307a2d13a90602401602060405180830381865afa158015611548573d6000803e3d6000fd5b505050506040513d601f19601f8201168201806040525081019061156c9190611d9c565b905080158061158957506ec097ce7bc90715b34b9f100000000081115b156115b857604051624df74960e31b81526001600160a01b0388166004820152602481018290526044016104e4565b60006115c584600a611d2e565b6115d7670de0b6b3a764000084611b9f565b6115e19190611bb6565b905060006115f086600a611d2e565b611602670de0b6b3a764000086611b9f565b61160c9190611bb6565b9050600081611623670de0b6b3a764000085611b9f565b61162d9190611bb6565b6001600160a01b038b16600090815260066020908152604080832081518083019092528054808352600190910154928201929092529293501561167157815161167b565b6702c68af0bb1400005b90506000826020015160001461169557826020015161169f565b6729a2241af62c00005b9050808411806116ae57508184105b156116de5760405163c55e83d360e01b81526001600160a01b038e166004820152602481018590526044016104e4565b60006116e98d610f4d565b9050670de0b6b3a76400006116fe8683611b9f565b6117089190611bb6565b9b505050505050505050505050600a805490600061172583611db5565b919050555092915050565b600061173b82610f4d565b90506402540be40081108061175c57506c0c9f2c9cd04674edea4000000081115b1561178c57604051631b27609360e01b81526001600160a01b0383166004820152600060248201526044016104e4565b6040805180820182528281524260208083018281526001600160a01b03871660008181526005845286902094518555905160019094019390935583518581529081019190915290917f895efb821f241e50aca7011c501989268b4e15748c700bf77d48ff447049888c910160405180910390a2919050565b6001600160a01b038116811461136757600080fd5b60006020828403121561182b57600080fd5b813561044881611804565b634e487b7160e01b600052602160045260246000fd5b6002811061186a57634e487b7160e01b600052602160045260246000fd5b9052565b6020810161187c828461184c565b92915050565b60006020828403121561189457600080fd5b81356002811061044857600080fd5b6000602082840312156118b557600080fd5b5035919050565b600080604083850312156118cf57600080fd5b82356118da81611804565b915060208301356118ea81611804565b809150509250929050565b60008060006060848603121561190a57600080fd5b833561191581611804565b95602085013595506040909401359392505050565b6000806040838503121561193d57600080fd5b823561194881611804565b946020939093013593505050565b634e487b7160e01b600052601160045260246000fd5b8181038181111561187c5761187c611956565b6040810161198d828561184c565b610448602083018461184c565b60058152643a37b5b2b760d91b602082015260400190565b60408152600f60408201526e4f7261636c653a676574507269636560881b60608201526080602082015260006113246080830161199a565b6000602082840312156119fc57600080fd5b8151801515811461044857600080fd5b60408152601760408201527f4f7261636c653a736574436861696e6c696e6b4665656400000000000000000060608201526080602082015260006113246080830160058152641a5b9c1d5d60da1b602082015260400190565b600060208284031215611a7757600080fd5b815160ff8116811461044857600080fd5b805169ffffffffffffffffffff8116811461132757600080fd5b600080600080600060a08688031215611aba57600080fd5b611ac386611a88565b9450602086015193506040860151925060608601519150611ae660808701611a88565b90509295509295909350565b60408152601660408201527513dc9858db194e9cd95d115490cd0d8c8d95985d5b1d60521b60608201526080602082015260006113246080830160058152641a5b9c1d5d60da1b602082015260400190565b600060208284031215611b5657600080fd5b815161044881611804565b6040815260156040820152744f7261636c653a7365744d616e75616c507269636560581b60608201526080602082015260006113246080830161199a565b808202811582820484141761187c5761187c611956565b600082611bd357634e487b7160e01b600052601260045260246000fd5b500490565b8082018082111561187c5761187c611956565b60408152601960408201527f4f7261636c653a64697361626c654d616e75616c50726963650000000000000060608201526080602082015260006113246080830161199a565b60ff828116828216039081111561187c5761187c611956565b600181815b80851115611c85578160001904821115611c6b57611c6b611956565b80851615611c7857918102915b93841c9390800290611c4f565b509250929050565b600082611c9c5750600161187c565b81611ca95750600061187c565b8160018114611cbf5760028114611cc957611ce5565b600191505061187c565b60ff841115611cda57611cda611956565b50506001821b61187c565b5060208310610133831016604e8410600b8410161715611d08575081810a61187c565b611d128383611c4a565b8060001904821115611d2657611d26611956565b029392505050565b600061044860ff841683611c8d565b60408152601a60408201527f4f7261636c653a6665746368416e64557064617465507269636500000000000060608201526080602082015260006113246080830161199a565b600060018201611d9557611d95611956565b5060010190565b600060208284031215611dae57600080fd5b5051919050565b600081611dc457611dc4611956565b50600019019056fea26469706673582212207252108efe2c87bad044d4c17e61b80fc716089806239a4ac8bab5962f58035664736f6c63430008150033",
  "linkReferences": {},
  "deployedLinkReferences": {}
}