{
  "_format": "hh-sol-artifact-1",
  "contractName": "MockERC20",
  "sourceName": "contracts/mocks/MockERC20.sol",
  "abi": [
    {
      "inputs": [
        {
          "internalType": "string",
          "name": "name_",
          "type": "string"
        },
        {
          "internalType": "string",
          "name": "symbol_",
          "type": "string"
        },
        {
          "internalType": "uint8",
          "name": "decimals_",
          "type": "uint8"
        },
        {
          "internalType": "uint256",
          "name": "initialSupply",
          "type": "uint256"
        }
      ],
      "stateMutability": "nonpayable",
      "type": "constructor"
    },
    {
      "inputs": [
        {
          "internalType": "address",
          "name": "spender",
          "type": "address"
        },
        {
          "internalType": "uint256",
          "name": "allowance",
          "type": "uint256"
        },
        {
          "internalType": "uint256",
          "name": "needed",
          "type": "uint256"
        }
      ],
      "name": "ERC20InsufficientAllowance",
      "type": "error"
    },
    {
      "inputs": [
        {
          "internalType": "address",
          "name": "sender",
          "type": "address"
        },
        {
          "internalType": "uint256",
          "name": "balance",
          "type": "uint256"
        },
        {
          "internalType": "uint256",
          "name": "needed",
          "type": "uint256"
        }
      ],
      "name": "ERC20InsufficientBalance",
      "type": "error"
    },
    {
      "inputs": [
        {
          "internalType": "address",
          "name": "approver",
          "type": "address"
        }
      ],
      "name": "ERC20InvalidApprover",
      "type": "error"
    },
    {
      "inputs": [
        {
          "internalType": "address",
          "name": "receiver",
          "type": "address"
        }
      ],
      "name": "ERC20InvalidReceiver",
      "type": "error"
    },
    {
      "inputs": [
        {
          "internalType": "address",
          "name": "sender",
          "type": "address"
        }
      ],
      "name": "ERC20InvalidSender",
      "type": "error"
    },
    {
      "inputs": [
        {
          "internalType": "address",
          "name": "spender",
          "type": "address"
        }
      ],
      "name": "ERC20InvalidSpender",
      "type": "error"
    },
    {
      "anonymous": false,
      "inputs": [
        {
          "indexed": true,
          "internalType": "address",
          "name": "owner",
          "type": "address"
        },
        {
          "indexed": true,
          "internalType": "address",
          "name": "spender",
          "type": "address"
        },
        {
          "indexed": false,
          "internalType": "uint256",
          "name": "value",
          "type": "uint256"
        }
      ],
      "name": "Approval",
      "type": "event"
    },
    {
      "anonymous": false,
      "inputs": [
        {
          "indexed": true,
          "internalType": "address",
          "name": "from",
          "type": "address"
        },
        {
          "indexed": true,
          "internalType": "address",
          "name": "to",
          "type": "address"
        },
        {
          "indexed": false,
          "internalType": "uint256",
          "name": "value",
          "type": "uint256"
        }
      ],
      "name": "Transfer",
      "type": "event"
    },
    {
      "inputs": [
        {
          "internalType": "address",
          "name": "owner",
          "type": "address"
        },
        {
          "internalType": "address",
          "name": "spender",
          "type": "address"
        }
      ],
      "name": "allowance",
      "outputs": [
        {
          "internalType": "uint256",
          "name": "",
          "type": "uint256"
        }
      ],
      "stateMutability": "view",
      "type": "function"
    },
    {
      "inputs": [
        {
          "internalType": "address",
          "name": "spender",
          "type": "address"
        },
        {
          "internalType": "uint256",
          "name": "value",
          "type": "uint256"
        }
      ],
      "name": "approve",
      "outputs": [
        {
          "internalType": "bool",
          "name": "",
          "type": "bool"
        }
      ],
      "stateMutability": "nonpayable",
      "type": "function"
    },
    {
      "inputs": [
        {
          "internalType": "address",
          "name": "account",
          "type": "address"
        }
      ],
      "name": "balanceOf",
      "outputs": [
        {
          "internalType": "uint256",
          "name": "",
          "type": "uint256"
        }
      ],
      "stateMutability": "view",
      "type": "function"
    },
    {
      "inputs": [
        {
          "internalType": "address",
          "name": "from",
          "type": "address"
        },
        {
          "internalType": "uint256",
          "name": "amount",
          "type": "uint256"
        }
      ],
      "name": "burn",
      "outputs": [],
      "stateMutability": "nonpayable",
      "type": "function"
    },
    {
      "inputs": [],
      "name": "decimals",
      "outputs": [
        {
          "internalType": "uint8",
          "name": "",
          "type": "uint8"
        }
      ],
      "stateMutability": "view",
      "type": "function"
    },
    {
      "inputs": [
        {
          "internalType": "address",
          "name": "to",
          "type": "address"
        },
        {
          "internalType": "uint256",
          "name": "amount",
          "type": "uint256"
        }
      ],
      "name": "mint",
      "outputs": [],
      "stateMutability": "nonpayable",
      "type": "function"
    },
    {
      "inputs": [],
      "name": "name",
      "outputs": [
        {
          "internalType": "string",
          "name": "",
          "type": "string"
        }
      ],
      "stateMutability": "view",
      "type": "function"
    },
    {
      "inputs": [],
      "name": "symbol",
      "outputs": [
        {
          "internalType": "string",
          "name": "",
          "type": "string"
        }
      ],
      "stateMutability": "view",
      "type": "function"
    },
    {
      "inputs": [],
      "name": "totalSupply",
      "outputs": [
        {
          "internalType": "uint256",
          "name": "",
          "type": "uint256"
        }
      ],
      "stateMutability": "view",
      "type": "function"
    },
    {
      "inputs": [
        {
          "internalType": "address",
          "name": "to",
          "type": "address"
        },
        {
          "internalType": "uint256",
          "name": "value",
          "type": "uint256"
        }
      ],
      "name": "transfer",
      "outputs": [
        {
          "internalType": "bool",
          "name": "",
          "type": "bool"
        }
      ],
      "stateMutability": "nonpayable",
      "type": "function"
    },
    {
      "inputs": [
        {
          "internalType": "address",
          "name": "from",
          "type": "address"
        },
        {
          "internalType": "address",
          "name": "to",
          "type": "address"
        },
        {
          "internalType": "uint256",
          "name": "value",
          "type": "uint256"
        }
      ],
      "name": "transferFrom",
      "outputs": [
        {
          "internalType": "bool",
          "name": "",
          "type": "bool"
        }
      ],
      "stateMutability": "nonpayable",
      "type": "function"
    }
  ],
  "bytecode": "0x60a06040523480156200001157600080fd5b5060405162000cdc38038062000cdc8339810160408190526200003491620002ad565b83836003620000448382620003c7565b506004620000538282620003c7565b50505060ff821660805262000069338262000073565b50505050620004bb565b6001600160a01b038216620000a35760405163ec442f0560e01b8152600060048201526024015b60405180910390fd5b620000b160008383620000b5565b5050565b6001600160a01b038316620000e4578060026000828254620000d8919062000493565b90915550620001589050565b6001600160a01b03831660009081526020819052604090205481811015620001395760405163391434e360e21b81526001600160a01b038516600482015260248101829052604481018390526064016200009a565b6001600160a01b03841660009081526020819052604090209082900390555b6001600160a01b038216620001765760028054829003905562000195565b6001600160a01b03821660009081526020819052604090208054820190555b816001600160a01b0316836001600160a01b03167fddf252ad1be2c89b69c2b068fc378daa952ba7f163c4a11628f55a4df523b3ef83604051620001db91815260200190565b60405180910390a3505050565b634e487b7160e01b600052604160045260246000fd5b600082601f8301126200021057600080fd5b81516001600160401b03808211156200022d576200022d620001e8565b604051601f8301601f19908116603f01168101908282118183101715620002585762000258620001e8565b816040528381526020925086838588010111156200027557600080fd5b600091505b838210156200029957858201830151818301840152908201906200027a565b600093810190920192909252949350505050565b60008060008060808587031215620002c457600080fd5b84516001600160401b0380821115620002dc57600080fd5b620002ea88838901620001fe565b955060208701519150808211156200030157600080fd5b506200031087828801620001fe565b935050604085015160ff811681146200032857600080fd5b6060959095015193969295505050565b600181811c908216806200034d57607f821691505b6020821081036200036e57634e487b7160e01b600052602260045260246000fd5b50919050565b601f821115620003c257600081815260208120601f850160051c810160208610156200039d5750805b601f850160051c820191505b81811015620003be57828155600101620003a9565b5050505b505050565b81516001600160401b03811115620003e357620003e3620001e8565b620003fb81620003f4845462000338565b8462000374565b602080601f8311600181146200043357600084156200041a5750858301515b600019600386901b1c1916600185901b178555620003be565b600085815260208120601f198616915b82811015620004645788860151825594840194600190910190840162000443565b5085821015620004835787850151600019600388901b60f8161c191681555b5050505050600190811b01905550565b80820180821115620004b557634e487b7160e01b600052601160045260246000fd5b92915050565b608051610805620004d7600039600061011b01526108056000f3fe608060405234801561001057600080fd5b50600436106100a95760003560e01c806340c10f191161007157806340c10f191461014557806370a082311461015a57806395d89b41146101835780639dc29fac1461018b578063a9059cbb1461019e578063dd62ed3e146101b157600080fd5b806306fdde03146100ae578063095ea7b3146100cc57806318160ddd146100ef57806323b872dd14610101578063313ce56714610114575b600080fd5b6100b66101ea565b6040516100c3919061064f565b60405180910390f35b6100df6100da3660046106b9565b61027c565b60405190151581526020016100c3565b6002545b6040519081526020016100c3565b6100df61010f3660046106e3565b610296565b60405160ff7f00000000000000000000000000000000000000000000000000000000000000001681526020016100c3565b6101586101533660046106b9565b6102ba565b005b6100f361016836600461071f565b6001600160a01b031660009081526020819052604090205490565b6100b66102c8565b6101586101993660046106b9565b6102d7565b6100df6101ac3660046106b9565b6102e1565b6100f36101bf366004610741565b6001600160a01b03918216600090815260016020908152604080832093909416825291909152205490565b6060600380546101f990610774565b80601f016020809104026020016040519081016040528092919081815260200182805461022590610774565b80156102725780601f1061024757610100808354040283529160200191610272565b820191906000526020600020905b81548152906001019060200180831161025557829003601f168201915b5050505050905090565b60003361028a8185856102ef565b60019150505b92915050565b6000336102a4858285610301565b6102af858585610385565b506001949350505050565b6102c482826103e4565b5050565b6060600480546101f990610774565b6102c4828261041a565b60003361028a818585610385565b6102fc8383836001610450565b505050565b6001600160a01b0383811660009081526001602090815260408083209386168352929052205460001981101561037f578181101561037057604051637dc7a0d960e11b81526001600160a01b038416600482015260248101829052604481018390526064015b60405180910390fd5b61037f84848484036000610450565b50505050565b6001600160a01b0383166103af57604051634b637e8f60e11b815260006004820152602401610367565b6001600160a01b0382166103d95760405163ec442f0560e01b815260006004820152602401610367565b6102fc838383610525565b6001600160a01b03821661040e5760405163ec442f0560e01b815260006004820152602401610367565b6102c460008383610525565b6001600160a01b03821661044457604051634b637e8f60e11b815260006004820152602401610367565b6102c482600083610525565b6001600160a01b03841661047a5760405163e602df0560e01b815260006004820152602401610367565b6001600160a01b0383166104a457604051634a1406b160e11b815260006004820152602401610367565b6001600160a01b038085166000908152600160209081526040808320938716835292905220829055801561037f57826001600160a01b0316846001600160a01b03167f8c5be1e5ebec7d5bd14f71427d1e84f3dd0314c0f7b2291e5b200ac8c7c3b9258460405161051791815260200190565b60405180910390a350505050565b6001600160a01b03831661055057806002600082825461054591906107ae565b909155506105c29050565b6001600160a01b038316600090815260208190526040902054818110156105a35760405163391434e360e21b81526001600160a01b03851660048201526024810182905260448101839052606401610367565b6001600160a01b03841660009081526020819052604090209082900390555b6001600160a01b0382166105de576002805482900390556105fd565b6001600160a01b03821660009081526020819052604090208054820190555b816001600160a01b0316836001600160a01b03167fddf252ad1be2c89b69c2b068fc378daa952ba7f163c4a11628f55a4df523b3ef8360405161064291815260200190565b60405180910390a3505050565b600060208083528351808285015260005b8181101561067c57858101830151858201604001528201610660565b506000604082860101526040601f19601f8301168501019250505092915050565b80356001600160a01b03811681146106b457600080fd5b919050565b600080604083850312156106cc57600080fd5b6106d58361069d565b946020939093013593505050565b6000806000606084860312156106f857600080fd5b6107018461069d565b925061070f6020850161069d565b9150604084013590509250925092565b60006020828403121561073157600080fd5b61073a8261069d565b9392505050565b6000806040838503121561075457600080fd5b61075d8361069d565b915061076b6020840161069d565b90509250929050565b600181811c9082168061078857607f821691505b6020821081036107a857634e487b7160e01b600052602260045260246000fd5b50919050565b8082018082111561029057634e487b7160e01b600052601160045260246000fdfea2646970667358221220796b991bd4e7d38e33a58be564147d02635b17b7c46639d0d1dac834e428131c64736f6c63430008150033",
  "linkReferences": {},
  "deployedLinkReferences": {}
}