{
  "_format": "hh-sol-artifact-1",
  "contractName": "UBKConstants",
  "sourceName": "@ubk-labs/ubk-commons/commons/UBKConstants.sol",
  "abi": [
    {
      "inputs": [],
      "name": "WAD",
      "outputs": [
        {
          "internalType": "uint256",
          "name": "",
          "type": "uint256"
        }
      ],
      "stateMutability": "view",
      "type": "function"
    }
  ],
  "bytecode": "0x608e610038600b82828239805160001a607314602b57634e487b7160e01b600052600060045260246000fd5b30600052607381538281f3fe730000000000000000000000000000000000000000301460806040526004361060335760003560e01c80636a146024146038575b600080fd5b6046670de0b6b3a764000081565b60405190815260200160405180910390f3fea2646970667358221220c7ff4e0b868f6868147ce2344b4c14d8e70a6f873737b4289303f06176ef769964736f6c63430008150033",
  "linkReferences": {},
  "deployedLinkReferences": {}
}